{
	"contracts/MyOperator.sol": {
		"MyERC20Operator": {
			"abi": [
				{
					"inputs": [
						{
							"internalType": "address",
							"name": "my_erc20_address",
							"type": "address"
						}
					],
					"stateMutability": "nonpayable",
					"type": "constructor"
				},
				{
					"inputs": [
						{
							"internalType": "address",
							"name": "",
							"type": "address"
						}
					],
					"name": "balances",
					"outputs": [
						{
							"internalType": "uint256",
							"name": "",
							"type": "uint256"
						}
					],
					"stateMutability": "view",
					"type": "function"
				},
				{
					"inputs": [
						{
							"internalType": "uint256",
							"name": "amount",
							"type": "uint256"
						}
					],
					"name": "deposit",
					"outputs": [],
					"stateMutability": "nonpayable",
					"type": "function"
				},
				{
					"inputs": [],
					"name": "retrieveTokens",
					"outputs": [],
					"stateMutability": "nonpayable",
					"type": "function"
				}
			],
			"devdoc": {
				"kind": "dev",
				"methods": {},
				"version": 1
			},
			"evm": {
				"assembly": "    /* \"contracts/MyOperator.sol\":171:667  contract MyERC20Operator {\r... */\n  mstore(0x40, 0x80)\n    /* \"contracts/MyOperator.sol\":268:357  constructor (address my_erc20_address)\r... */\n  callvalue\n  dup1\n  iszero\n  tag_1\n  jumpi\n  0x00\n  dup1\n  revert\ntag_1:\n  pop\n  mload(0x40)\n  sub(codesize, bytecodeSize)\n  dup1\n  bytecodeSize\n  dup4\n  codecopy\n  dup2\n  dup2\n  add\n  0x40\n  mstore\n  dup2\n  add\n  swap1\n  tag_2\n  swap2\n  swap1\n  tag_3\n  jump\t// in\ntag_2:\n    /* \"contracts/MyOperator.sol\":334:350  my_erc20_address */\n  dup1\n    /* \"contracts/MyOperator.sol\":317:325  my_erc20 */\n  0x01\n  0x00\n    /* \"contracts/MyOperator.sol\":317:351  my_erc20 = ERC20(my_erc20_address) */\n  0x0100\n  exp\n  dup2\n  sload\n  dup2\n  0xffffffffffffffffffffffffffffffffffffffff\n  mul\n  not\n  and\n  swap1\n  dup4\n  0xffffffffffffffffffffffffffffffffffffffff\n  and\n  mul\n  or\n  swap1\n  sstore\n  pop\n    /* \"contracts/MyOperator.sol\":268:357  constructor (address my_erc20_address)\r... */\n  pop\n    /* \"contracts/MyOperator.sol\":171:667  contract MyERC20Operator {\r... */\n  jump(tag_6)\n    /* \"#utility.yul\":7:150   */\ntag_8:\n    /* \"#utility.yul\":64:69   */\n  0x00\n    /* \"#utility.yul\":95:101   */\n  dup2\n    /* \"#utility.yul\":89:102   */\n  mload\n    /* \"#utility.yul\":80:102   */\n  swap1\n  pop\n    /* \"#utility.yul\":111:144   */\n  tag_10\n    /* \"#utility.yul\":138:143   */\n  dup2\n    /* \"#utility.yul\":111:144   */\n  tag_11\n  jump\t// in\ntag_10:\n    /* \"#utility.yul\":70:150   */\n  swap3\n  swap2\n  pop\n  pop\n  jump\t// out\n    /* \"#utility.yul\":156:507   */\ntag_3:\n    /* \"#utility.yul\":226:232   */\n  0x00\n    /* \"#utility.yul\":275:277   */\n  0x20\n    /* \"#utility.yul\":263:272   */\n  dup3\n    /* \"#utility.yul\":254:261   */\n  dup5\n    /* \"#utility.yul\":250:273   */\n  sub\n    /* \"#utility.yul\":246:278   */\n  slt\n    /* \"#utility.yul\":243:245   */\n  iszero\n  tag_13\n  jumpi\n    /* \"#utility.yul\":281:360   */\n  tag_14\n  tag_15\n  jump\t// in\ntag_14:\n    /* \"#utility.yul\":243:245   */\ntag_13:\n    /* \"#utility.yul\":401:402   */\n  0x00\n    /* \"#utility.yul\":426:490   */\n  tag_16\n    /* \"#utility.yul\":482:489   */\n  dup5\n    /* \"#utility.yul\":473:479   */\n  dup3\n    /* \"#utility.yul\":462:471   */\n  dup6\n    /* \"#utility.yul\":458:480   */\n  add\n    /* \"#utility.yul\":426:490   */\n  tag_8\n  jump\t// in\ntag_16:\n    /* \"#utility.yul\":416:490   */\n  swap2\n  pop\n    /* \"#utility.yul\":372:500   */\n  pop\n    /* \"#utility.yul\":233:507   */\n  swap3\n  swap2\n  pop\n  pop\n  jump\t// out\n    /* \"#utility.yul\":594:690   */\ntag_19:\n    /* \"#utility.yul\":631:638   */\n  0x00\n    /* \"#utility.yul\":660:684   */\n  tag_21\n    /* \"#utility.yul\":678:683   */\n  dup3\n    /* \"#utility.yul\":660:684   */\n  tag_22\n  jump\t// in\ntag_21:\n    /* \"#utility.yul\":649:684   */\n  swap1\n  pop\n    /* \"#utility.yul\":639:690   */\n  swap2\n  swap1\n  pop\n  jump\t// out\n    /* \"#utility.yul\":696:822   */\ntag_22:\n    /* \"#utility.yul\":733:740   */\n  0x00\n    /* \"#utility.yul\":773:815   */\n  0xffffffffffffffffffffffffffffffffffffffff\n    /* \"#utility.yul\":766:771   */\n  dup3\n    /* \"#utility.yul\":762:816   */\n  and\n    /* \"#utility.yul\":751:816   */\n  swap1\n  pop\n    /* \"#utility.yul\":741:822   */\n  swap2\n  swap1\n  pop\n  jump\t// out\n    /* \"#utility.yul\":951:1068   */\ntag_15:\n    /* \"#utility.yul\":1060:1061   */\n  0x00\n    /* \"#utility.yul\":1057:1058   */\n  dup1\n    /* \"#utility.yul\":1050:1062   */\n  revert\n    /* \"#utility.yul\":1074:1196   */\ntag_11:\n    /* \"#utility.yul\":1147:1171   */\n  tag_28\n    /* \"#utility.yul\":1165:1170   */\n  dup2\n    /* \"#utility.yul\":1147:1171   */\n  tag_19\n  jump\t// in\ntag_28:\n    /* \"#utility.yul\":1140:1145   */\n  dup2\n    /* \"#utility.yul\":1137:1172   */\n  eq\n    /* \"#utility.yul\":1127:1129   */\n  tag_29\n  jumpi\n    /* \"#utility.yul\":1186:1187   */\n  0x00\n    /* \"#utility.yul\":1183:1184   */\n  dup1\n    /* \"#utility.yul\":1176:1188   */\n  revert\n    /* \"#utility.yul\":1127:1129   */\ntag_29:\n    /* \"#utility.yul\":1117:1196   */\n  pop\n  jump\t// out\n    /* \"contracts/MyOperator.sol\":171:667  contract MyERC20Operator {\r... */\ntag_6:\n  dataSize(sub_0)\n  dup1\n  dataOffset(sub_0)\n  0x00\n  codecopy\n  0x00\n  return\nstop\n\nsub_0: assembly {\n        /* \"contracts/MyOperator.sol\":171:667  contract MyERC20Operator {\r... */\n      mstore(0x40, 0x80)\n      callvalue\n      dup1\n      iszero\n      tag_1\n      jumpi\n      0x00\n      dup1\n      revert\n    tag_1:\n      pop\n      jumpi(tag_2, lt(calldatasize, 0x04))\n      shr(0xe0, calldataload(0x00))\n      dup1\n      0x27e235e3\n      eq\n      tag_3\n      jumpi\n      dup1\n      0x600d7003\n      eq\n      tag_4\n      jumpi\n      dup1\n      0xb6b55f25\n      eq\n      tag_5\n      jumpi\n    tag_2:\n      0x00\n      dup1\n      revert\n        /* \"contracts/MyOperator.sol\":203:242  mapping (address=>uint) public balances */\n    tag_3:\n      tag_6\n      0x04\n      dup1\n      calldatasize\n      sub\n      dup2\n      add\n      swap1\n      tag_7\n      swap2\n      swap1\n      tag_8\n      jump\t// in\n    tag_7:\n      tag_9\n      jump\t// in\n    tag_6:\n      mload(0x40)\n      tag_10\n      swap2\n      swap1\n      tag_11\n      jump\t// in\n    tag_10:\n      mload(0x40)\n      dup1\n      swap2\n      sub\n      swap1\n      return\n        /* \"contracts/MyOperator.sol\":524:664  function retrieveTokens() public\r... */\n    tag_4:\n      tag_12\n      tag_13\n      jump\t// in\n    tag_12:\n      stop\n        /* \"contracts/MyOperator.sol\":363:518  function deposit(uint amount) public\r... */\n    tag_5:\n      tag_14\n      0x04\n      dup1\n      calldatasize\n      sub\n      dup2\n      add\n      swap1\n      tag_15\n      swap2\n      swap1\n      tag_16\n      jump\t// in\n    tag_15:\n      tag_17\n      jump\t// in\n    tag_14:\n      stop\n        /* \"contracts/MyOperator.sol\":203:242  mapping (address=>uint) public balances */\n    tag_9:\n      mstore(0x20, 0x00)\n      dup1\n      0x00\n      mstore\n      keccak256(0x00, 0x40)\n      0x00\n      swap2\n      pop\n      swap1\n      pop\n      sload\n      dup2\n      jump\t// out\n        /* \"contracts/MyOperator.sol\":524:664  function retrieveTokens() public\r... */\n    tag_13:\n        /* \"contracts/MyOperator.sol\":567:575  my_erc20 */\n      0x01\n      0x00\n      swap1\n      sload\n      swap1\n      0x0100\n      exp\n      swap1\n      div\n      0xffffffffffffffffffffffffffffffffffffffff\n      and\n        /* \"contracts/MyOperator.sol\":567:584  my_erc20.transfer */\n      0xffffffffffffffffffffffffffffffffffffffff\n      and\n      0xa9059cbb\n        /* \"contracts/MyOperator.sol\":593:603  msg.sender */\n      caller\n        /* \"contracts/MyOperator.sol\":606:614  balances */\n      0x00\n        /* \"contracts/MyOperator.sol\":606:626  balances[msg.sender] */\n      dup1\n        /* \"contracts/MyOperator.sol\":615:625  msg.sender */\n      caller\n        /* \"contracts/MyOperator.sol\":606:626  balances[msg.sender] */\n      0xffffffffffffffffffffffffffffffffffffffff\n      and\n      0xffffffffffffffffffffffffffffffffffffffff\n      and\n      dup2\n      mstore\n      0x20\n      add\n      swap1\n      dup2\n      mstore\n      0x20\n      add\n      0x00\n      keccak256\n      sload\n        /* \"contracts/MyOperator.sol\":567:627  my_erc20.transfer(address(msg.sender), balances[msg.sender]) */\n      mload(0x40)\n      dup4\n      0xffffffff\n      and\n      0xe0\n      shl\n      dup2\n      mstore\n      0x04\n      add\n      tag_19\n      swap3\n      swap2\n      swap1\n      tag_20\n      jump\t// in\n    tag_19:\n      0x20\n      mload(0x40)\n      dup1\n      dup4\n      sub\n      dup2\n      0x00\n      dup8\n      dup1\n      extcodesize\n      iszero\n      dup1\n      iszero\n      tag_21\n      jumpi\n      0x00\n      dup1\n      revert\n    tag_21:\n      pop\n      gas\n      call\n      iszero\n      dup1\n      iszero\n      tag_23\n      jumpi\n      returndatasize\n      0x00\n      dup1\n      returndatacopy\n      revert(0x00, returndatasize)\n    tag_23:\n      pop\n      pop\n      pop\n      pop\n      mload(0x40)\n      returndatasize\n      not(0x1f)\n      0x1f\n      dup3\n      add\n      and\n      dup3\n      add\n      dup1\n      0x40\n      mstore\n      pop\n      dup2\n      add\n      swap1\n      tag_24\n      swap2\n      swap1\n      tag_25\n      jump\t// in\n    tag_24:\n      pop\n        /* \"contracts/MyOperator.sol\":657:658  0 */\n      0x00\n        /* \"contracts/MyOperator.sol\":634:642  balances */\n      dup1\n        /* \"contracts/MyOperator.sol\":634:654  balances[msg.sender] */\n      0x00\n        /* \"contracts/MyOperator.sol\":643:653  msg.sender */\n      caller\n        /* \"contracts/MyOperator.sol\":634:654  balances[msg.sender] */\n      0xffffffffffffffffffffffffffffffffffffffff\n      and\n      0xffffffffffffffffffffffffffffffffffffffff\n      and\n      dup2\n      mstore\n      0x20\n      add\n      swap1\n      dup2\n      mstore\n      0x20\n      add\n      0x00\n      keccak256\n        /* \"contracts/MyOperator.sol\":634:658  balances[msg.sender] = 0 */\n      dup2\n      swap1\n      sstore\n      pop\n        /* \"contracts/MyOperator.sol\":524:664  function retrieveTokens() public\r... */\n      jump\t// out\n        /* \"contracts/MyOperator.sol\":363:518  function deposit(uint amount) public\r... */\n    tag_17:\n        /* \"contracts/MyOperator.sol\":410:418  my_erc20 */\n      0x01\n      0x00\n      swap1\n      sload\n      swap1\n      0x0100\n      exp\n      swap1\n      div\n      0xffffffffffffffffffffffffffffffffffffffff\n      and\n        /* \"contracts/MyOperator.sol\":410:431  my_erc20.transferFrom */\n      0xffffffffffffffffffffffffffffffffffffffff\n      and\n      0x23b872dd\n        /* \"contracts/MyOperator.sol\":440:450  msg.sender */\n      caller\n        /* \"contracts/MyOperator.sol\":461:465  this */\n      address\n        /* \"contracts/MyOperator.sol\":468:474  amount */\n      dup5\n        /* \"contracts/MyOperator.sol\":410:475  my_erc20.transferFrom(address(msg.sender), address(this), amount) */\n      mload(0x40)\n      dup5\n      0xffffffff\n      and\n      0xe0\n      shl\n      dup2\n      mstore\n      0x04\n      add\n      tag_27\n      swap4\n      swap3\n      swap2\n      swap1\n      tag_28\n      jump\t// in\n    tag_27:\n      0x20\n      mload(0x40)\n      dup1\n      dup4\n      sub\n      dup2\n      0x00\n      dup8\n      dup1\n      extcodesize\n      iszero\n      dup1\n      iszero\n      tag_29\n      jumpi\n      0x00\n      dup1\n      revert\n    tag_29:\n      pop\n      gas\n      call\n      iszero\n      dup1\n      iszero\n      tag_31\n      jumpi\n      returndatasize\n      0x00\n      dup1\n      returndatacopy\n      revert(0x00, returndatasize)\n    tag_31:\n      pop\n      pop\n      pop\n      pop\n      mload(0x40)\n      returndatasize\n      not(0x1f)\n      0x1f\n      dup3\n      add\n      and\n      dup3\n      add\n      dup1\n      0x40\n      mstore\n      pop\n      dup2\n      add\n      swap1\n      tag_32\n      swap2\n      swap1\n      tag_25\n      jump\t// in\n    tag_32:\n      pop\n        /* \"contracts/MyOperator.sol\":506:512  amount */\n      dup1\n        /* \"contracts/MyOperator.sol\":482:490  balances */\n      0x00\n        /* \"contracts/MyOperator.sol\":482:502  balances[msg.sender] */\n      dup1\n        /* \"contracts/MyOperator.sol\":491:501  msg.sender */\n      caller\n        /* \"contracts/MyOperator.sol\":482:502  balances[msg.sender] */\n      0xffffffffffffffffffffffffffffffffffffffff\n      and\n      0xffffffffffffffffffffffffffffffffffffffff\n      and\n      dup2\n      mstore\n      0x20\n      add\n      swap1\n      dup2\n      mstore\n      0x20\n      add\n      0x00\n      keccak256\n      0x00\n        /* \"contracts/MyOperator.sol\":482:512  balances[msg.sender] += amount */\n      dup3\n      dup3\n      sload\n      tag_33\n      swap2\n      swap1\n      tag_34\n      jump\t// in\n    tag_33:\n      swap3\n      pop\n      pop\n      dup2\n      swap1\n      sstore\n      pop\n        /* \"contracts/MyOperator.sol\":363:518  function deposit(uint amount) public\r... */\n      pop\n      jump\t// out\n        /* \"#utility.yul\":7:146   */\n    tag_36:\n        /* \"#utility.yul\":53:58   */\n      0x00\n        /* \"#utility.yul\":91:97   */\n      dup2\n        /* \"#utility.yul\":78:98   */\n      calldataload\n        /* \"#utility.yul\":69:98   */\n      swap1\n      pop\n        /* \"#utility.yul\":107:140   */\n      tag_38\n        /* \"#utility.yul\":134:139   */\n      dup2\n        /* \"#utility.yul\":107:140   */\n      tag_39\n      jump\t// in\n    tag_38:\n        /* \"#utility.yul\":59:146   */\n      swap3\n      swap2\n      pop\n      pop\n      jump\t// out\n        /* \"#utility.yul\":152:289   */\n    tag_40:\n        /* \"#utility.yul\":206:211   */\n      0x00\n        /* \"#utility.yul\":237:243   */\n      dup2\n        /* \"#utility.yul\":231:244   */\n      mload\n        /* \"#utility.yul\":222:244   */\n      swap1\n      pop\n        /* \"#utility.yul\":253:283   */\n      tag_42\n        /* \"#utility.yul\":277:282   */\n      dup2\n        /* \"#utility.yul\":253:283   */\n      tag_43\n      jump\t// in\n    tag_42:\n        /* \"#utility.yul\":212:289   */\n      swap3\n      swap2\n      pop\n      pop\n      jump\t// out\n        /* \"#utility.yul\":295:434   */\n    tag_44:\n        /* \"#utility.yul\":341:346   */\n      0x00\n        /* \"#utility.yul\":379:385   */\n      dup2\n        /* \"#utility.yul\":366:386   */\n      calldataload\n        /* \"#utility.yul\":357:386   */\n      swap1\n      pop\n        /* \"#utility.yul\":395:428   */\n      tag_46\n        /* \"#utility.yul\":422:427   */\n      dup2\n        /* \"#utility.yul\":395:428   */\n      tag_47\n      jump\t// in\n    tag_46:\n        /* \"#utility.yul\":347:434   */\n      swap3\n      swap2\n      pop\n      pop\n      jump\t// out\n        /* \"#utility.yul\":440:769   */\n    tag_8:\n        /* \"#utility.yul\":499:505   */\n      0x00\n        /* \"#utility.yul\":548:550   */\n      0x20\n        /* \"#utility.yul\":536:545   */\n      dup3\n        /* \"#utility.yul\":527:534   */\n      dup5\n        /* \"#utility.yul\":523:546   */\n      sub\n        /* \"#utility.yul\":519:551   */\n      slt\n        /* \"#utility.yul\":516:518   */\n      iszero\n      tag_49\n      jumpi\n        /* \"#utility.yul\":554:633   */\n      tag_50\n      tag_51\n      jump\t// in\n    tag_50:\n        /* \"#utility.yul\":516:518   */\n    tag_49:\n        /* \"#utility.yul\":674:675   */\n      0x00\n        /* \"#utility.yul\":699:752   */\n      tag_52\n        /* \"#utility.yul\":744:751   */\n      dup5\n        /* \"#utility.yul\":735:741   */\n      dup3\n        /* \"#utility.yul\":724:733   */\n      dup6\n        /* \"#utility.yul\":720:742   */\n      add\n        /* \"#utility.yul\":699:752   */\n      tag_36\n      jump\t// in\n    tag_52:\n        /* \"#utility.yul\":689:752   */\n      swap2\n      pop\n        /* \"#utility.yul\":645:762   */\n      pop\n        /* \"#utility.yul\":506:769   */\n      swap3\n      swap2\n      pop\n      pop\n      jump\t// out\n        /* \"#utility.yul\":775:1120   */\n    tag_25:\n        /* \"#utility.yul\":842:848   */\n      0x00\n        /* \"#utility.yul\":891:893   */\n      0x20\n        /* \"#utility.yul\":879:888   */\n      dup3\n        /* \"#utility.yul\":870:877   */\n      dup5\n        /* \"#utility.yul\":866:889   */\n      sub\n        /* \"#utility.yul\":862:894   */\n      slt\n        /* \"#utility.yul\":859:861   */\n      iszero\n      tag_54\n      jumpi\n        /* \"#utility.yul\":897:976   */\n      tag_55\n      tag_51\n      jump\t// in\n    tag_55:\n        /* \"#utility.yul\":859:861   */\n    tag_54:\n        /* \"#utility.yul\":1017:1018   */\n      0x00\n        /* \"#utility.yul\":1042:1103   */\n      tag_56\n        /* \"#utility.yul\":1095:1102   */\n      dup5\n        /* \"#utility.yul\":1086:1092   */\n      dup3\n        /* \"#utility.yul\":1075:1084   */\n      dup6\n        /* \"#utility.yul\":1071:1093   */\n      add\n        /* \"#utility.yul\":1042:1103   */\n      tag_40\n      jump\t// in\n    tag_56:\n        /* \"#utility.yul\":1032:1103   */\n      swap2\n      pop\n        /* \"#utility.yul\":988:1113   */\n      pop\n        /* \"#utility.yul\":849:1120   */\n      swap3\n      swap2\n      pop\n      pop\n      jump\t// out\n        /* \"#utility.yul\":1126:1455   */\n    tag_16:\n        /* \"#utility.yul\":1185:1191   */\n      0x00\n        /* \"#utility.yul\":1234:1236   */\n      0x20\n        /* \"#utility.yul\":1222:1231   */\n      dup3\n        /* \"#utility.yul\":1213:1220   */\n      dup5\n        /* \"#utility.yul\":1209:1232   */\n      sub\n        /* \"#utility.yul\":1205:1237   */\n      slt\n        /* \"#utility.yul\":1202:1204   */\n      iszero\n      tag_58\n      jumpi\n        /* \"#utility.yul\":1240:1319   */\n      tag_59\n      tag_51\n      jump\t// in\n    tag_59:\n        /* \"#utility.yul\":1202:1204   */\n    tag_58:\n        /* \"#utility.yul\":1360:1361   */\n      0x00\n        /* \"#utility.yul\":1385:1438   */\n      tag_60\n        /* \"#utility.yul\":1430:1437   */\n      dup5\n        /* \"#utility.yul\":1421:1427   */\n      dup3\n        /* \"#utility.yul\":1410:1419   */\n      dup6\n        /* \"#utility.yul\":1406:1428   */\n      add\n        /* \"#utility.yul\":1385:1438   */\n      tag_44\n      jump\t// in\n    tag_60:\n        /* \"#utility.yul\":1375:1438   */\n      swap2\n      pop\n        /* \"#utility.yul\":1331:1448   */\n      pop\n        /* \"#utility.yul\":1192:1455   */\n      swap3\n      swap2\n      pop\n      pop\n      jump\t// out\n        /* \"#utility.yul\":1461:1579   */\n    tag_61:\n        /* \"#utility.yul\":1548:1572   */\n      tag_63\n        /* \"#utility.yul\":1566:1571   */\n      dup2\n        /* \"#utility.yul\":1548:1572   */\n      tag_64\n      jump\t// in\n    tag_63:\n        /* \"#utility.yul\":1543:1546   */\n      dup3\n        /* \"#utility.yul\":1536:1573   */\n      mstore\n        /* \"#utility.yul\":1526:1579   */\n      pop\n      pop\n      jump\t// out\n        /* \"#utility.yul\":1585:1703   */\n    tag_65:\n        /* \"#utility.yul\":1672:1696   */\n      tag_67\n        /* \"#utility.yul\":1690:1695   */\n      dup2\n        /* \"#utility.yul\":1672:1696   */\n      tag_68\n      jump\t// in\n    tag_67:\n        /* \"#utility.yul\":1667:1670   */\n      dup3\n        /* \"#utility.yul\":1660:1697   */\n      mstore\n        /* \"#utility.yul\":1650:1703   */\n      pop\n      pop\n      jump\t// out\n        /* \"#utility.yul\":1709:2151   */\n    tag_28:\n        /* \"#utility.yul\":1858:1862   */\n      0x00\n        /* \"#utility.yul\":1896:1898   */\n      0x60\n        /* \"#utility.yul\":1885:1894   */\n      dup3\n        /* \"#utility.yul\":1881:1899   */\n      add\n        /* \"#utility.yul\":1873:1899   */\n      swap1\n      pop\n        /* \"#utility.yul\":1909:1980   */\n      tag_70\n        /* \"#utility.yul\":1977:1978   */\n      0x00\n        /* \"#utility.yul\":1966:1975   */\n      dup4\n        /* \"#utility.yul\":1962:1979   */\n      add\n        /* \"#utility.yul\":1953:1959   */\n      dup7\n        /* \"#utility.yul\":1909:1980   */\n      tag_61\n      jump\t// in\n    tag_70:\n        /* \"#utility.yul\":1990:2062   */\n      tag_71\n        /* \"#utility.yul\":2058:2060   */\n      0x20\n        /* \"#utility.yul\":2047:2056   */\n      dup4\n        /* \"#utility.yul\":2043:2061   */\n      add\n        /* \"#utility.yul\":2034:2040   */\n      dup6\n        /* \"#utility.yul\":1990:2062   */\n      tag_61\n      jump\t// in\n    tag_71:\n        /* \"#utility.yul\":2072:2144   */\n      tag_72\n        /* \"#utility.yul\":2140:2142   */\n      0x40\n        /* \"#utility.yul\":2129:2138   */\n      dup4\n        /* \"#utility.yul\":2125:2143   */\n      add\n        /* \"#utility.yul\":2116:2122   */\n      dup5\n        /* \"#utility.yul\":2072:2144   */\n      tag_65\n      jump\t// in\n    tag_72:\n        /* \"#utility.yul\":1863:2151   */\n      swap5\n      swap4\n      pop\n      pop\n      pop\n      pop\n      jump\t// out\n        /* \"#utility.yul\":2157:2489   */\n    tag_20:\n        /* \"#utility.yul\":2278:2282   */\n      0x00\n        /* \"#utility.yul\":2316:2318   */\n      0x40\n        /* \"#utility.yul\":2305:2314   */\n      dup3\n        /* \"#utility.yul\":2301:2319   */\n      add\n        /* \"#utility.yul\":2293:2319   */\n      swap1\n      pop\n        /* \"#utility.yul\":2329:2400   */\n      tag_74\n        /* \"#utility.yul\":2397:2398   */\n      0x00\n        /* \"#utility.yul\":2386:2395   */\n      dup4\n        /* \"#utility.yul\":2382:2399   */\n      add\n        /* \"#utility.yul\":2373:2379   */\n      dup6\n        /* \"#utility.yul\":2329:2400   */\n      tag_61\n      jump\t// in\n    tag_74:\n        /* \"#utility.yul\":2410:2482   */\n      tag_75\n        /* \"#utility.yul\":2478:2480   */\n      0x20\n        /* \"#utility.yul\":2467:2476   */\n      dup4\n        /* \"#utility.yul\":2463:2481   */\n      add\n        /* \"#utility.yul\":2454:2460   */\n      dup5\n        /* \"#utility.yul\":2410:2482   */\n      tag_65\n      jump\t// in\n    tag_75:\n        /* \"#utility.yul\":2283:2489   */\n      swap4\n      swap3\n      pop\n      pop\n      pop\n      jump\t// out\n        /* \"#utility.yul\":2495:2717   */\n    tag_11:\n        /* \"#utility.yul\":2588:2592   */\n      0x00\n        /* \"#utility.yul\":2626:2628   */\n      0x20\n        /* \"#utility.yul\":2615:2624   */\n      dup3\n        /* \"#utility.yul\":2611:2629   */\n      add\n        /* \"#utility.yul\":2603:2629   */\n      swap1\n      pop\n        /* \"#utility.yul\":2639:2710   */\n      tag_77\n        /* \"#utility.yul\":2707:2708   */\n      0x00\n        /* \"#utility.yul\":2696:2705   */\n      dup4\n        /* \"#utility.yul\":2692:2709   */\n      add\n        /* \"#utility.yul\":2683:2689   */\n      dup5\n        /* \"#utility.yul\":2639:2710   */\n      tag_65\n      jump\t// in\n    tag_77:\n        /* \"#utility.yul\":2593:2717   */\n      swap3\n      swap2\n      pop\n      pop\n      jump\t// out\n        /* \"#utility.yul\":2804:3109   */\n    tag_34:\n        /* \"#utility.yul\":2844:2847   */\n      0x00\n        /* \"#utility.yul\":2863:2883   */\n      tag_81\n        /* \"#utility.yul\":2881:2882   */\n      dup3\n        /* \"#utility.yul\":2863:2883   */\n      tag_68\n      jump\t// in\n    tag_81:\n        /* \"#utility.yul\":2858:2883   */\n      swap2\n      pop\n        /* \"#utility.yul\":2897:2917   */\n      tag_82\n        /* \"#utility.yul\":2915:2916   */\n      dup4\n        /* \"#utility.yul\":2897:2917   */\n      tag_68\n      jump\t// in\n    tag_82:\n        /* \"#utility.yul\":2892:2917   */\n      swap3\n      pop\n        /* \"#utility.yul\":3051:3052   */\n      dup3\n        /* \"#utility.yul\":2983:3049   */\n      0xffffffffffffffffffffffffffffffffffffffffffffffffffffffffffffffff\n        /* \"#utility.yul\":2979:3053   */\n      sub\n        /* \"#utility.yul\":2976:2977   */\n      dup3\n        /* \"#utility.yul\":2973:3054   */\n      gt\n        /* \"#utility.yul\":2970:2972   */\n      iszero\n      tag_83\n      jumpi\n        /* \"#utility.yul\":3057:3075   */\n      tag_84\n      tag_85\n      jump\t// in\n    tag_84:\n        /* \"#utility.yul\":2970:2972   */\n    tag_83:\n        /* \"#utility.yul\":3101:3102   */\n      dup3\n        /* \"#utility.yul\":3098:3099   */\n      dup3\n        /* \"#utility.yul\":3094:3103   */\n      add\n        /* \"#utility.yul\":3087:3103   */\n      swap1\n      pop\n        /* \"#utility.yul\":2848:3109   */\n      swap3\n      swap2\n      pop\n      pop\n      jump\t// out\n        /* \"#utility.yul\":3115:3211   */\n    tag_64:\n        /* \"#utility.yul\":3152:3159   */\n      0x00\n        /* \"#utility.yul\":3181:3205   */\n      tag_87\n        /* \"#utility.yul\":3199:3204   */\n      dup3\n        /* \"#utility.yul\":3181:3205   */\n      tag_88\n      jump\t// in\n    tag_87:\n        /* \"#utility.yul\":3170:3205   */\n      swap1\n      pop\n        /* \"#utility.yul\":3160:3211   */\n      swap2\n      swap1\n      pop\n      jump\t// out\n        /* \"#utility.yul\":3217:3307   */\n    tag_89:\n        /* \"#utility.yul\":3251:3258   */\n      0x00\n        /* \"#utility.yul\":3294:3299   */\n      dup2\n        /* \"#utility.yul\":3287:3300   */\n      iszero\n        /* \"#utility.yul\":3280:3301   */\n      iszero\n        /* \"#utility.yul\":3269:3301   */\n      swap1\n      pop\n        /* \"#utility.yul\":3259:3307   */\n      swap2\n      swap1\n      pop\n      jump\t// out\n        /* \"#utility.yul\":3313:3439   */\n    tag_88:\n        /* \"#utility.yul\":3350:3357   */\n      0x00\n        /* \"#utility.yul\":3390:3432   */\n      0xffffffffffffffffffffffffffffffffffffffff\n        /* \"#utility.yul\":3383:3388   */\n      dup3\n        /* \"#utility.yul\":3379:3433   */\n      and\n        /* \"#utility.yul\":3368:3433   */\n      swap1\n      pop\n        /* \"#utility.yul\":3358:3439   */\n      swap2\n      swap1\n      pop\n      jump\t// out\n        /* \"#utility.yul\":3445:3522   */\n    tag_68:\n        /* \"#utility.yul\":3482:3489   */\n      0x00\n        /* \"#utility.yul\":3511:3516   */\n      dup2\n        /* \"#utility.yul\":3500:3516   */\n      swap1\n      pop\n        /* \"#utility.yul\":3490:3522   */\n      swap2\n      swap1\n      pop\n      jump\t// out\n        /* \"#utility.yul\":3528:3708   */\n    tag_85:\n        /* \"#utility.yul\":3576:3653   */\n      0x4e487b7100000000000000000000000000000000000000000000000000000000\n        /* \"#utility.yul\":3573:3574   */\n      0x00\n        /* \"#utility.yul\":3566:3654   */\n      mstore\n        /* \"#utility.yul\":3673:3677   */\n      0x11\n        /* \"#utility.yul\":3670:3671   */\n      0x04\n        /* \"#utility.yul\":3663:3678   */\n      mstore\n        /* \"#utility.yul\":3697:3701   */\n      0x24\n        /* \"#utility.yul\":3694:3695   */\n      0x00\n        /* \"#utility.yul\":3687:3702   */\n      revert\n        /* \"#utility.yul\":3837:3954   */\n    tag_51:\n        /* \"#utility.yul\":3946:3947   */\n      0x00\n        /* \"#utility.yul\":3943:3944   */\n      dup1\n        /* \"#utility.yul\":3936:3948   */\n      revert\n        /* \"#utility.yul\":3960:4082   */\n    tag_39:\n        /* \"#utility.yul\":4033:4057   */\n      tag_98\n        /* \"#utility.yul\":4051:4056   */\n      dup2\n        /* \"#utility.yul\":4033:4057   */\n      tag_64\n      jump\t// in\n    tag_98:\n        /* \"#utility.yul\":4026:4031   */\n      dup2\n        /* \"#utility.yul\":4023:4058   */\n      eq\n        /* \"#utility.yul\":4013:4015   */\n      tag_99\n      jumpi\n        /* \"#utility.yul\":4072:4073   */\n      0x00\n        /* \"#utility.yul\":4069:4070   */\n      dup1\n        /* \"#utility.yul\":4062:4074   */\n      revert\n        /* \"#utility.yul\":4013:4015   */\n    tag_99:\n        /* \"#utility.yul\":4003:4082   */\n      pop\n      jump\t// out\n        /* \"#utility.yul\":4088:4204   */\n    tag_43:\n        /* \"#utility.yul\":4158:4179   */\n      tag_101\n        /* \"#utility.yul\":4173:4178   */\n      dup2\n        /* \"#utility.yul\":4158:4179   */\n      tag_89\n      jump\t// in\n    tag_101:\n        /* \"#utility.yul\":4151:4156   */\n      dup2\n        /* \"#utility.yul\":4148:4180   */\n      eq\n        /* \"#utility.yul\":4138:4140   */\n      tag_102\n      jumpi\n        /* \"#utility.yul\":4194:4195   */\n      0x00\n        /* \"#utility.yul\":4191:4192   */\n      dup1\n        /* \"#utility.yul\":4184:4196   */\n      revert\n        /* \"#utility.yul\":4138:4140   */\n    tag_102:\n        /* \"#utility.yul\":4128:4204   */\n      pop\n      jump\t// out\n        /* \"#utility.yul\":4210:4332   */\n    tag_47:\n        /* \"#utility.yul\":4283:4307   */\n      tag_104\n        /* \"#utility.yul\":4301:4306   */\n      dup2\n        /* \"#utility.yul\":4283:4307   */\n      tag_68\n      jump\t// in\n    tag_104:\n        /* \"#utility.yul\":4276:4281   */\n      dup2\n        /* \"#utility.yul\":4273:4308   */\n      eq\n        /* \"#utility.yul\":4263:4265   */\n      tag_105\n      jumpi\n        /* \"#utility.yul\":4322:4323   */\n      0x00\n        /* \"#utility.yul\":4319:4320   */\n      dup1\n        /* \"#utility.yul\":4312:4324   */\n      revert\n        /* \"#utility.yul\":4263:4265   */\n    tag_105:\n        /* \"#utility.yul\":4253:4332   */\n      pop\n      jump\t// out\n\n    auxdata: 0xa26469706673582212206c43c39f6774467b97a25033eeac90a14af58e68fcd68cd01c565a96d4c9c8fc64736f6c63430008050033\n}\n",
				"bytecode": {
					"linkReferences": {},
					"object": "608060405234801561001057600080fd5b506040516106b63803806106b68339818101604052810190610032919061008e565b80600160006101000a81548173ffffffffffffffffffffffffffffffffffffffff021916908373ffffffffffffffffffffffffffffffffffffffff16021790555050610109565b600081519050610088816100f2565b92915050565b6000602082840312156100a4576100a36100ed565b5b60006100b284828501610079565b91505092915050565b60006100c6826100cd565b9050919050565b600073ffffffffffffffffffffffffffffffffffffffff82169050919050565b600080fd5b6100fb816100bb565b811461010657600080fd5b50565b61059e806101186000396000f3fe608060405234801561001057600080fd5b50600436106100415760003560e01c806327e235e314610046578063600d700314610076578063b6b55f2514610080575b600080fd5b610060600480360381019061005b9190610331565b61009c565b60405161006d9190610436565b60405180910390f35b61007e6100b4565b005b61009a6004803603810190610095919061038b565b6101e8565b005b60006020528060005260406000206000915090505481565b600160009054906101000a900473ffffffffffffffffffffffffffffffffffffffff1673ffffffffffffffffffffffffffffffffffffffff1663a9059cbb336000803373ffffffffffffffffffffffffffffffffffffffff1673ffffffffffffffffffffffffffffffffffffffff168152602001908152602001600020546040518363ffffffff1660e01b815260040161014f92919061040d565b602060405180830381600087803b15801561016957600080fd5b505af115801561017d573d6000803e3d6000fd5b505050506040513d601f19601f820116820180604052508101906101a1919061035e565b5060008060003373ffffffffffffffffffffffffffffffffffffffff1673ffffffffffffffffffffffffffffffffffffffff16815260200190815260200160002081905550565b600160009054906101000a900473ffffffffffffffffffffffffffffffffffffffff1673ffffffffffffffffffffffffffffffffffffffff166323b872dd3330846040518463ffffffff1660e01b8152600401610247939291906103d6565b602060405180830381600087803b15801561026157600080fd5b505af1158015610275573d6000803e3d6000fd5b505050506040513d601f19601f82011682018060405250810190610299919061035e565b50806000803373ffffffffffffffffffffffffffffffffffffffff1673ffffffffffffffffffffffffffffffffffffffff16815260200190815260200160002060008282546102e89190610451565b9250508190555050565b60008135905061030181610523565b92915050565b6000815190506103168161053a565b92915050565b60008135905061032b81610551565b92915050565b6000602082840312156103475761034661051e565b5b6000610355848285016102f2565b91505092915050565b6000602082840312156103745761037361051e565b5b600061038284828501610307565b91505092915050565b6000602082840312156103a1576103a061051e565b5b60006103af8482850161031c565b91505092915050565b6103c1816104a7565b82525050565b6103d0816104e5565b82525050565b60006060820190506103eb60008301866103b8565b6103f860208301856103b8565b61040560408301846103c7565b949350505050565b600060408201905061042260008301856103b8565b61042f60208301846103c7565b9392505050565b600060208201905061044b60008301846103c7565b92915050565b600061045c826104e5565b9150610467836104e5565b9250827fffffffffffffffffffffffffffffffffffffffffffffffffffffffffffffffff0382111561049c5761049b6104ef565b5b828201905092915050565b60006104b2826104c5565b9050919050565b60008115159050919050565b600073ffffffffffffffffffffffffffffffffffffffff82169050919050565b6000819050919050565b7f4e487b7100000000000000000000000000000000000000000000000000000000600052601160045260246000fd5b600080fd5b61052c816104a7565b811461053757600080fd5b50565b610543816104b9565b811461054e57600080fd5b50565b61055a816104e5565b811461056557600080fd5b5056fea26469706673582212206c43c39f6774467b97a25033eeac90a14af58e68fcd68cd01c565a96d4c9c8fc64736f6c63430008050033",
					"opcodes": "PUSH1 0x80 PUSH1 0x40 MSTORE CALLVALUE DUP1 ISZERO PUSH2 0x10 JUMPI PUSH1 0x0 DUP1 REVERT JUMPDEST POP PUSH1 0x40 MLOAD PUSH2 0x6B6 CODESIZE SUB DUP1 PUSH2 0x6B6 DUP4 CODECOPY DUP2 DUP2 ADD PUSH1 0x40 MSTORE DUP2 ADD SWAP1 PUSH2 0x32 SWAP2 SWAP1 PUSH2 0x8E JUMP JUMPDEST DUP1 PUSH1 0x1 PUSH1 0x0 PUSH2 0x100 EXP DUP2 SLOAD DUP2 PUSH20 0xFFFFFFFFFFFFFFFFFFFFFFFFFFFFFFFFFFFFFFFF MUL NOT AND SWAP1 DUP4 PUSH20 0xFFFFFFFFFFFFFFFFFFFFFFFFFFFFFFFFFFFFFFFF AND MUL OR SWAP1 SSTORE POP POP PUSH2 0x109 JUMP JUMPDEST PUSH1 0x0 DUP2 MLOAD SWAP1 POP PUSH2 0x88 DUP2 PUSH2 0xF2 JUMP JUMPDEST SWAP3 SWAP2 POP POP JUMP JUMPDEST PUSH1 0x0 PUSH1 0x20 DUP3 DUP5 SUB SLT ISZERO PUSH2 0xA4 JUMPI PUSH2 0xA3 PUSH2 0xED JUMP JUMPDEST JUMPDEST PUSH1 0x0 PUSH2 0xB2 DUP5 DUP3 DUP6 ADD PUSH2 0x79 JUMP JUMPDEST SWAP2 POP POP SWAP3 SWAP2 POP POP JUMP JUMPDEST PUSH1 0x0 PUSH2 0xC6 DUP3 PUSH2 0xCD JUMP JUMPDEST SWAP1 POP SWAP2 SWAP1 POP JUMP JUMPDEST PUSH1 0x0 PUSH20 0xFFFFFFFFFFFFFFFFFFFFFFFFFFFFFFFFFFFFFFFF DUP3 AND SWAP1 POP SWAP2 SWAP1 POP JUMP JUMPDEST PUSH1 0x0 DUP1 REVERT JUMPDEST PUSH2 0xFB DUP2 PUSH2 0xBB JUMP JUMPDEST DUP2 EQ PUSH2 0x106 JUMPI PUSH1 0x0 DUP1 REVERT JUMPDEST POP JUMP JUMPDEST PUSH2 0x59E DUP1 PUSH2 0x118 PUSH1 0x0 CODECOPY PUSH1 0x0 RETURN INVALID PUSH1 0x80 PUSH1 0x40 MSTORE CALLVALUE DUP1 ISZERO PUSH2 0x10 JUMPI PUSH1 0x0 DUP1 REVERT JUMPDEST POP PUSH1 0x4 CALLDATASIZE LT PUSH2 0x41 JUMPI PUSH1 0x0 CALLDATALOAD PUSH1 0xE0 SHR DUP1 PUSH4 0x27E235E3 EQ PUSH2 0x46 JUMPI DUP1 PUSH4 0x600D7003 EQ PUSH2 0x76 JUMPI DUP1 PUSH4 0xB6B55F25 EQ PUSH2 0x80 JUMPI JUMPDEST PUSH1 0x0 DUP1 REVERT JUMPDEST PUSH2 0x60 PUSH1 0x4 DUP1 CALLDATASIZE SUB DUP2 ADD SWAP1 PUSH2 0x5B SWAP2 SWAP1 PUSH2 0x331 JUMP JUMPDEST PUSH2 0x9C JUMP JUMPDEST PUSH1 0x40 MLOAD PUSH2 0x6D SWAP2 SWAP1 PUSH2 0x436 JUMP JUMPDEST PUSH1 0x40 MLOAD DUP1 SWAP2 SUB SWAP1 RETURN JUMPDEST PUSH2 0x7E PUSH2 0xB4 JUMP JUMPDEST STOP JUMPDEST PUSH2 0x9A PUSH1 0x4 DUP1 CALLDATASIZE SUB DUP2 ADD SWAP1 PUSH2 0x95 SWAP2 SWAP1 PUSH2 0x38B JUMP JUMPDEST PUSH2 0x1E8 JUMP JUMPDEST STOP JUMPDEST PUSH1 0x0 PUSH1 0x20 MSTORE DUP1 PUSH1 0x0 MSTORE PUSH1 0x40 PUSH1 0x0 KECCAK256 PUSH1 0x0 SWAP2 POP SWAP1 POP SLOAD DUP2 JUMP JUMPDEST PUSH1 0x1 PUSH1 0x0 SWAP1 SLOAD SWAP1 PUSH2 0x100 EXP SWAP1 DIV PUSH20 0xFFFFFFFFFFFFFFFFFFFFFFFFFFFFFFFFFFFFFFFF AND PUSH20 0xFFFFFFFFFFFFFFFFFFFFFFFFFFFFFFFFFFFFFFFF AND PUSH4 0xA9059CBB CALLER PUSH1 0x0 DUP1 CALLER PUSH20 0xFFFFFFFFFFFFFFFFFFFFFFFFFFFFFFFFFFFFFFFF AND PUSH20 0xFFFFFFFFFFFFFFFFFFFFFFFFFFFFFFFFFFFFFFFF AND DUP2 MSTORE PUSH1 0x20 ADD SWAP1 DUP2 MSTORE PUSH1 0x20 ADD PUSH1 0x0 KECCAK256 SLOAD PUSH1 0x40 MLOAD DUP4 PUSH4 0xFFFFFFFF AND PUSH1 0xE0 SHL DUP2 MSTORE PUSH1 0x4 ADD PUSH2 0x14F SWAP3 SWAP2 SWAP1 PUSH2 0x40D JUMP JUMPDEST PUSH1 0x20 PUSH1 0x40 MLOAD DUP1 DUP4 SUB DUP2 PUSH1 0x0 DUP8 DUP1 EXTCODESIZE ISZERO DUP1 ISZERO PUSH2 0x169 JUMPI PUSH1 0x0 DUP1 REVERT JUMPDEST POP GAS CALL ISZERO DUP1 ISZERO PUSH2 0x17D JUMPI RETURNDATASIZE PUSH1 0x0 DUP1 RETURNDATACOPY RETURNDATASIZE PUSH1 0x0 REVERT JUMPDEST POP POP POP POP PUSH1 0x40 MLOAD RETURNDATASIZE PUSH1 0x1F NOT PUSH1 0x1F DUP3 ADD AND DUP3 ADD DUP1 PUSH1 0x40 MSTORE POP DUP2 ADD SWAP1 PUSH2 0x1A1 SWAP2 SWAP1 PUSH2 0x35E JUMP JUMPDEST POP PUSH1 0x0 DUP1 PUSH1 0x0 CALLER PUSH20 0xFFFFFFFFFFFFFFFFFFFFFFFFFFFFFFFFFFFFFFFF AND PUSH20 0xFFFFFFFFFFFFFFFFFFFFFFFFFFFFFFFFFFFFFFFF AND DUP2 MSTORE PUSH1 0x20 ADD SWAP1 DUP2 MSTORE PUSH1 0x20 ADD PUSH1 0x0 KECCAK256 DUP2 SWAP1 SSTORE POP JUMP JUMPDEST PUSH1 0x1 PUSH1 0x0 SWAP1 SLOAD SWAP1 PUSH2 0x100 EXP SWAP1 DIV PUSH20 0xFFFFFFFFFFFFFFFFFFFFFFFFFFFFFFFFFFFFFFFF AND PUSH20 0xFFFFFFFFFFFFFFFFFFFFFFFFFFFFFFFFFFFFFFFF AND PUSH4 0x23B872DD CALLER ADDRESS DUP5 PUSH1 0x40 MLOAD DUP5 PUSH4 0xFFFFFFFF AND PUSH1 0xE0 SHL DUP2 MSTORE PUSH1 0x4 ADD PUSH2 0x247 SWAP4 SWAP3 SWAP2 SWAP1 PUSH2 0x3D6 JUMP JUMPDEST PUSH1 0x20 PUSH1 0x40 MLOAD DUP1 DUP4 SUB DUP2 PUSH1 0x0 DUP8 DUP1 EXTCODESIZE ISZERO DUP1 ISZERO PUSH2 0x261 JUMPI PUSH1 0x0 DUP1 REVERT JUMPDEST POP GAS CALL ISZERO DUP1 ISZERO PUSH2 0x275 JUMPI RETURNDATASIZE PUSH1 0x0 DUP1 RETURNDATACOPY RETURNDATASIZE PUSH1 0x0 REVERT JUMPDEST POP POP POP POP PUSH1 0x40 MLOAD RETURNDATASIZE PUSH1 0x1F NOT PUSH1 0x1F DUP3 ADD AND DUP3 ADD DUP1 PUSH1 0x40 MSTORE POP DUP2 ADD SWAP1 PUSH2 0x299 SWAP2 SWAP1 PUSH2 0x35E JUMP JUMPDEST POP DUP1 PUSH1 0x0 DUP1 CALLER PUSH20 0xFFFFFFFFFFFFFFFFFFFFFFFFFFFFFFFFFFFFFFFF AND PUSH20 0xFFFFFFFFFFFFFFFFFFFFFFFFFFFFFFFFFFFFFFFF AND DUP2 MSTORE PUSH1 0x20 ADD SWAP1 DUP2 MSTORE PUSH1 0x20 ADD PUSH1 0x0 KECCAK256 PUSH1 0x0 DUP3 DUP3 SLOAD PUSH2 0x2E8 SWAP2 SWAP1 PUSH2 0x451 JUMP JUMPDEST SWAP3 POP POP DUP2 SWAP1 SSTORE POP POP JUMP JUMPDEST PUSH1 0x0 DUP2 CALLDATALOAD SWAP1 POP PUSH2 0x301 DUP2 PUSH2 0x523 JUMP JUMPDEST SWAP3 SWAP2 POP POP JUMP JUMPDEST PUSH1 0x0 DUP2 MLOAD SWAP1 POP PUSH2 0x316 DUP2 PUSH2 0x53A JUMP JUMPDEST SWAP3 SWAP2 POP POP JUMP JUMPDEST PUSH1 0x0 DUP2 CALLDATALOAD SWAP1 POP PUSH2 0x32B DUP2 PUSH2 0x551 JUMP JUMPDEST SWAP3 SWAP2 POP POP JUMP JUMPDEST PUSH1 0x0 PUSH1 0x20 DUP3 DUP5 SUB SLT ISZERO PUSH2 0x347 JUMPI PUSH2 0x346 PUSH2 0x51E JUMP JUMPDEST JUMPDEST PUSH1 0x0 PUSH2 0x355 DUP5 DUP3 DUP6 ADD PUSH2 0x2F2 JUMP JUMPDEST SWAP2 POP POP SWAP3 SWAP2 POP POP JUMP JUMPDEST PUSH1 0x0 PUSH1 0x20 DUP3 DUP5 SUB SLT ISZERO PUSH2 0x374 JUMPI PUSH2 0x373 PUSH2 0x51E JUMP JUMPDEST JUMPDEST PUSH1 0x0 PUSH2 0x382 DUP5 DUP3 DUP6 ADD PUSH2 0x307 JUMP JUMPDEST SWAP2 POP POP SWAP3 SWAP2 POP POP JUMP JUMPDEST PUSH1 0x0 PUSH1 0x20 DUP3 DUP5 SUB SLT ISZERO PUSH2 0x3A1 JUMPI PUSH2 0x3A0 PUSH2 0x51E JUMP JUMPDEST JUMPDEST PUSH1 0x0 PUSH2 0x3AF DUP5 DUP3 DUP6 ADD PUSH2 0x31C JUMP JUMPDEST SWAP2 POP POP SWAP3 SWAP2 POP POP JUMP JUMPDEST PUSH2 0x3C1 DUP2 PUSH2 0x4A7 JUMP JUMPDEST DUP3 MSTORE POP POP JUMP JUMPDEST PUSH2 0x3D0 DUP2 PUSH2 0x4E5 JUMP JUMPDEST DUP3 MSTORE POP POP JUMP JUMPDEST PUSH1 0x0 PUSH1 0x60 DUP3 ADD SWAP1 POP PUSH2 0x3EB PUSH1 0x0 DUP4 ADD DUP7 PUSH2 0x3B8 JUMP JUMPDEST PUSH2 0x3F8 PUSH1 0x20 DUP4 ADD DUP6 PUSH2 0x3B8 JUMP JUMPDEST PUSH2 0x405 PUSH1 0x40 DUP4 ADD DUP5 PUSH2 0x3C7 JUMP JUMPDEST SWAP5 SWAP4 POP POP POP POP JUMP JUMPDEST PUSH1 0x0 PUSH1 0x40 DUP3 ADD SWAP1 POP PUSH2 0x422 PUSH1 0x0 DUP4 ADD DUP6 PUSH2 0x3B8 JUMP JUMPDEST PUSH2 0x42F PUSH1 0x20 DUP4 ADD DUP5 PUSH2 0x3C7 JUMP JUMPDEST SWAP4 SWAP3 POP POP POP JUMP JUMPDEST PUSH1 0x0 PUSH1 0x20 DUP3 ADD SWAP1 POP PUSH2 0x44B PUSH1 0x0 DUP4 ADD DUP5 PUSH2 0x3C7 JUMP JUMPDEST SWAP3 SWAP2 POP POP JUMP JUMPDEST PUSH1 0x0 PUSH2 0x45C DUP3 PUSH2 0x4E5 JUMP JUMPDEST SWAP2 POP PUSH2 0x467 DUP4 PUSH2 0x4E5 JUMP JUMPDEST SWAP3 POP DUP3 PUSH32 0xFFFFFFFFFFFFFFFFFFFFFFFFFFFFFFFFFFFFFFFFFFFFFFFFFFFFFFFFFFFFFFFF SUB DUP3 GT ISZERO PUSH2 0x49C JUMPI PUSH2 0x49B PUSH2 0x4EF JUMP JUMPDEST JUMPDEST DUP3 DUP3 ADD SWAP1 POP SWAP3 SWAP2 POP POP JUMP JUMPDEST PUSH1 0x0 PUSH2 0x4B2 DUP3 PUSH2 0x4C5 JUMP JUMPDEST SWAP1 POP SWAP2 SWAP1 POP JUMP JUMPDEST PUSH1 0x0 DUP2 ISZERO ISZERO SWAP1 POP SWAP2 SWAP1 POP JUMP JUMPDEST PUSH1 0x0 PUSH20 0xFFFFFFFFFFFFFFFFFFFFFFFFFFFFFFFFFFFFFFFF DUP3 AND SWAP1 POP SWAP2 SWAP1 POP JUMP JUMPDEST PUSH1 0x0 DUP2 SWAP1 POP SWAP2 SWAP1 POP JUMP JUMPDEST PUSH32 0x4E487B7100000000000000000000000000000000000000000000000000000000 PUSH1 0x0 MSTORE PUSH1 0x11 PUSH1 0x4 MSTORE PUSH1 0x24 PUSH1 0x0 REVERT JUMPDEST PUSH1 0x0 DUP1 REVERT JUMPDEST PUSH2 0x52C DUP2 PUSH2 0x4A7 JUMP JUMPDEST DUP2 EQ PUSH2 0x537 JUMPI PUSH1 0x0 DUP1 REVERT JUMPDEST POP JUMP JUMPDEST PUSH2 0x543 DUP2 PUSH2 0x4B9 JUMP JUMPDEST DUP2 EQ PUSH2 0x54E JUMPI PUSH1 0x0 DUP1 REVERT JUMPDEST POP JUMP JUMPDEST PUSH2 0x55A DUP2 PUSH2 0x4E5 JUMP JUMPDEST DUP2 EQ PUSH2 0x565 JUMPI PUSH1 0x0 DUP1 REVERT JUMPDEST POP JUMP INVALID LOG2 PUSH5 0x6970667358 0x22 SLT KECCAK256 PUSH13 0x43C39F6774467B97A25033EEAC SWAP1 LOG1 0x4A CREATE2 DUP15 PUSH9 0xFCD68CD01C565A96D4 0xC9 0xC8 0xFC PUSH5 0x736F6C6343 STOP ADDMOD SDIV STOP CALLER "
				},
				"gasEstimates": {
					"creation": {
						"codeDepositCost": "287600",
						"executionCost": "infinite",
						"totalCost": "infinite"
					},
					"external": {
						"balances(address)": "2792",
						"deposit(uint256)": "infinite",
						"retrieveTokens()": "infinite"
					}
				},
				"methodIdentifiers": {
					"balances(address)": "27e235e3",
					"deposit(uint256)": "b6b55f25",
					"retrieveTokens()": "600d7003"
				}
			},
			"storageLayout": {
				"storage": [
					{
						"astId": 6,
						"contract": "contracts/MyOperator.sol:MyERC20Operator",
						"label": "balances",
						"offset": 0,
						"slot": "0",
						"type": "t_mapping(t_address,t_uint256)"
					},
					{
						"astId": 9,
						"contract": "contracts/MyOperator.sol:MyERC20Operator",
						"label": "my_erc20",
						"offset": 0,
						"slot": "1",
						"type": "t_contract(ERC20)582"
					}
				],
				"types": {
					"t_address": {
						"encoding": "inplace",
						"label": "address",
						"numberOfBytes": "20"
					},
					"t_contract(ERC20)582": {
						"encoding": "inplace",
						"label": "contract ERC20",
						"numberOfBytes": "20"
					},
					"t_mapping(t_address,t_uint256)": {
						"encoding": "mapping",
						"key": "t_address",
						"label": "mapping(address => uint256)",
						"numberOfBytes": "32",
						"value": "t_uint256"
					},
					"t_uint256": {
						"encoding": "inplace",
						"label": "uint256",
						"numberOfBytes": "32"
					}
				}
			},
			"userdoc": {
				"kind": "user",
				"methods": {},
				"version": 1
			}
		}
	}
}