{
	"contracts/MyToken.sol": {
		"MyERC20": {
			"abi": [
				{
					"inputs": [],
					"stateMutability": "nonpayable",
					"type": "constructor"
				},
				{
					"anonymous": false,
					"inputs": [
						{
							"indexed": true,
							"internalType": "address",
							"name": "owner",
							"type": "address"
						},
						{
							"indexed": true,
							"internalType": "address",
							"name": "spender",
							"type": "address"
						},
						{
							"indexed": false,
							"internalType": "uint256",
							"name": "value",
							"type": "uint256"
						}
					],
					"name": "Approval",
					"type": "event"
				},
				{
					"anonymous": false,
					"inputs": [
						{
							"indexed": true,
							"internalType": "address",
							"name": "from",
							"type": "address"
						},
						{
							"indexed": true,
							"internalType": "address",
							"name": "to",
							"type": "address"
						},
						{
							"indexed": false,
							"internalType": "uint256",
							"name": "value",
							"type": "uint256"
						}
					],
					"name": "Transfer",
					"type": "event"
				},
				{
					"inputs": [
						{
							"internalType": "address",
							"name": "owner",
							"type": "address"
						},
						{
							"internalType": "address",
							"name": "spender",
							"type": "address"
						}
					],
					"name": "allowance",
					"outputs": [
						{
							"internalType": "uint256",
							"name": "",
							"type": "uint256"
						}
					],
					"stateMutability": "view",
					"type": "function"
				},
				{
					"inputs": [
						{
							"internalType": "address",
							"name": "spender",
							"type": "address"
						},
						{
							"internalType": "uint256",
							"name": "amount",
							"type": "uint256"
						}
					],
					"name": "approve",
					"outputs": [
						{
							"internalType": "bool",
							"name": "",
							"type": "bool"
						}
					],
					"stateMutability": "nonpayable",
					"type": "function"
				},
				{
					"inputs": [
						{
							"internalType": "address",
							"name": "account",
							"type": "address"
						}
					],
					"name": "balanceOf",
					"outputs": [
						{
							"internalType": "uint256",
							"name": "",
							"type": "uint256"
						}
					],
					"stateMutability": "view",
					"type": "function"
				},
				{
					"inputs": [
						{
							"internalType": "address",
							"name": "account",
							"type": "address"
						},
						{
							"internalType": "uint256",
							"name": "amount",
							"type": "uint256"
						}
					],
					"name": "burn",
					"outputs": [],
					"stateMutability": "nonpayable",
					"type": "function"
				},
				{
					"inputs": [],
					"name": "decimals",
					"outputs": [
						{
							"internalType": "uint8",
							"name": "",
							"type": "uint8"
						}
					],
					"stateMutability": "view",
					"type": "function"
				},
				{
					"inputs": [
						{
							"internalType": "address",
							"name": "spender",
							"type": "address"
						},
						{
							"internalType": "uint256",
							"name": "subtractedValue",
							"type": "uint256"
						}
					],
					"name": "decreaseAllowance",
					"outputs": [
						{
							"internalType": "bool",
							"name": "",
							"type": "bool"
						}
					],
					"stateMutability": "nonpayable",
					"type": "function"
				},
				{
					"inputs": [
						{
							"internalType": "address",
							"name": "spender",
							"type": "address"
						},
						{
							"internalType": "uint256",
							"name": "addedValue",
							"type": "uint256"
						}
					],
					"name": "increaseAllowance",
					"outputs": [
						{
							"internalType": "bool",
							"name": "",
							"type": "bool"
						}
					],
					"stateMutability": "nonpayable",
					"type": "function"
				},
				{
					"inputs": [
						{
							"internalType": "address",
							"name": "account",
							"type": "address"
						},
						{
							"internalType": "uint256",
							"name": "amount",
							"type": "uint256"
						}
					],
					"name": "mint",
					"outputs": [],
					"stateMutability": "nonpayable",
					"type": "function"
				},
				{
					"inputs": [],
					"name": "name",
					"outputs": [
						{
							"internalType": "string",
							"name": "",
							"type": "string"
						}
					],
					"stateMutability": "view",
					"type": "function"
				},
				{
					"inputs": [],
					"name": "symbol",
					"outputs": [
						{
							"internalType": "string",
							"name": "",
							"type": "string"
						}
					],
					"stateMutability": "view",
					"type": "function"
				},
				{
					"inputs": [],
					"name": "token_transfer_count",
					"outputs": [
						{
							"internalType": "uint256",
							"name": "",
							"type": "uint256"
						}
					],
					"stateMutability": "view",
					"type": "function"
				},
				{
					"inputs": [],
					"name": "totalSupply",
					"outputs": [
						{
							"internalType": "uint256",
							"name": "",
							"type": "uint256"
						}
					],
					"stateMutability": "view",
					"type": "function"
				},
				{
					"inputs": [
						{
							"internalType": "address",
							"name": "recipient",
							"type": "address"
						},
						{
							"internalType": "uint256",
							"name": "amount",
							"type": "uint256"
						}
					],
					"name": "transfer",
					"outputs": [
						{
							"internalType": "bool",
							"name": "",
							"type": "bool"
						}
					],
					"stateMutability": "nonpayable",
					"type": "function"
				},
				{
					"inputs": [
						{
							"internalType": "address",
							"name": "sender",
							"type": "address"
						},
						{
							"internalType": "address",
							"name": "recipient",
							"type": "address"
						},
						{
							"internalType": "uint256",
							"name": "amount",
							"type": "uint256"
						}
					],
					"name": "transferFrom",
					"outputs": [
						{
							"internalType": "bool",
							"name": "",
							"type": "bool"
						}
					],
					"stateMutability": "nonpayable",
					"type": "function"
				}
			],
			"devdoc": {
				"kind": "dev",
				"methods": {
					"allowance(address,address)": {
						"details": "See {IERC20-allowance}."
					},
					"approve(address,uint256)": {
						"details": "See {IERC20-approve}. Requirements: - `spender` cannot be the zero address."
					},
					"balanceOf(address)": {
						"details": "See {IERC20-balanceOf}."
					},
					"decimals()": {
						"details": "Returns the number of decimals used to get its user representation. For example, if `decimals` equals `2`, a balance of `505` tokens should be displayed to a user as `5,05` (`505 / 10 ** 2`). Tokens usually opt for a value of 18, imitating the relationship between Ether and Wei. This is the value {ERC20} uses, unless this function is overridden; NOTE: This information is only used for _display_ purposes: it in no way affects any of the arithmetic of the contract, including {IERC20-balanceOf} and {IERC20-transfer}."
					},
					"decreaseAllowance(address,uint256)": {
						"details": "Atomically decreases the allowance granted to `spender` by the caller. This is an alternative to {approve} that can be used as a mitigation for problems described in {IERC20-approve}. Emits an {Approval} event indicating the updated allowance. Requirements: - `spender` cannot be the zero address. - `spender` must have allowance for the caller of at least `subtractedValue`."
					},
					"increaseAllowance(address,uint256)": {
						"details": "Atomically increases the allowance granted to `spender` by the caller. This is an alternative to {approve} that can be used as a mitigation for problems described in {IERC20-approve}. Emits an {Approval} event indicating the updated allowance. Requirements: - `spender` cannot be the zero address."
					},
					"name()": {
						"details": "Returns the name of the token."
					},
					"symbol()": {
						"details": "Returns the symbol of the token, usually a shorter version of the name."
					},
					"totalSupply()": {
						"details": "See {IERC20-totalSupply}."
					},
					"transfer(address,uint256)": {
						"details": "See {IERC20-transfer}. Requirements: - `recipient` cannot be the zero address. - the caller must have a balance of at least `amount`."
					},
					"transferFrom(address,address,uint256)": {
						"details": "See {IERC20-transferFrom}. Emits an {Approval} event indicating the updated allowance. This is not required by the EIP. See the note at the beginning of {ERC20}. Requirements: - `sender` and `recipient` cannot be the zero address. - `sender` must have a balance of at least `amount`. - the caller must have allowance for ``sender``'s tokens of at least `amount`."
					}
				},
				"version": 1
			},
			"evm": {
				"assembly": "    /* \"contracts/MyToken.sol\":171:666  contract MyERC20 is ERC20 {\r... */\n  mstore(0x40, 0x80)\n    /* \"contracts/MyToken.sol\":240:241  0 */\n  0x00\n    /* \"contracts/MyToken.sol\":202:241  uint256 public token_transfer_count = 0 */\n  0x05\n  sstore\n    /* \"contracts/MyToken.sol\":248:336  constructor () ERC20(\"EliasAiluJuana\", \"EAJ\") {\r... */\n  callvalue\n  dup1\n  iszero\n  tag_1\n  jumpi\n  0x00\n  dup1\n  revert\ntag_1:\n  pop\n    /* \"https://github.com/OpenZeppelin/openzeppelin-contracts/blob/v4.1.0/contracts/token/ERC20/ERC20.sol\":1898:2012  constructor (string memory name_, string memory symbol_) {... */\n  mload(0x40)\n  dup1\n  0x40\n  add\n  0x40\n  mstore\n  dup1\n  0x0e\n  dup2\n  mstore\n  0x20\n  add\n  0x456c69617341696c754a75616e61000000000000000000000000000000000000\n  dup2\n  mstore\n  pop\n  mload(0x40)\n  dup1\n  0x40\n  add\n  0x40\n  mstore\n  dup1\n  0x03\n  dup2\n  mstore\n  0x20\n  add\n  0x45414a0000000000000000000000000000000000000000000000000000000000\n  dup2\n  mstore\n  pop\n    /* \"https://github.com/OpenZeppelin/openzeppelin-contracts/blob/v4.1.0/contracts/token/ERC20/ERC20.sol\":1973:1978  name_ */\n  dup2\n    /* \"https://github.com/OpenZeppelin/openzeppelin-contracts/blob/v4.1.0/contracts/token/ERC20/ERC20.sol\":1965:1970  _name */\n  0x03\n    /* \"https://github.com/OpenZeppelin/openzeppelin-contracts/blob/v4.1.0/contracts/token/ERC20/ERC20.sol\":1965:1978  _name = name_ */\n  swap1\n  dup1\n  mload\n  swap1\n  0x20\n  add\n  swap1\n  tag_5\n  swap3\n  swap2\n  swap1\n  tag_6\n  jump\t// in\ntag_5:\n  pop\n    /* \"https://github.com/OpenZeppelin/openzeppelin-contracts/blob/v4.1.0/contracts/token/ERC20/ERC20.sol\":1998:2005  symbol_ */\n  dup1\n    /* \"https://github.com/OpenZeppelin/openzeppelin-contracts/blob/v4.1.0/contracts/token/ERC20/ERC20.sol\":1988:1995  _symbol */\n  0x04\n    /* \"https://github.com/OpenZeppelin/openzeppelin-contracts/blob/v4.1.0/contracts/token/ERC20/ERC20.sol\":1988:2005  _symbol = symbol_ */\n  swap1\n  dup1\n  mload\n  swap1\n  0x20\n  add\n  swap1\n  tag_7\n  swap3\n  swap2\n  swap1\n  tag_6\n  jump\t// in\ntag_7:\n  pop\n    /* \"https://github.com/OpenZeppelin/openzeppelin-contracts/blob/v4.1.0/contracts/token/ERC20/ERC20.sol\":1898:2012  constructor (string memory name_, string memory symbol_) {... */\n  pop\n  pop\n    /* \"contracts/MyToken.sol\":301:330  _mint(msg.sender, 1000 ether) */\n  tag_9\n    /* \"contracts/MyToken.sol\":307:317  msg.sender */\n  caller\n    /* \"contracts/MyToken.sol\":319:329  1000 ether */\n  0x3635c9adc5dea00000\n    /* \"contracts/MyToken.sol\":301:306  _mint */\n  shl(0x20, tag_10)\n    /* \"contracts/MyToken.sol\":301:330  _mint(msg.sender, 1000 ether) */\n  0x20\n  shr\n  jump\t// in\ntag_9:\n    /* \"contracts/MyToken.sol\":171:666  contract MyERC20 is ERC20 {\r... */\n  jump(tag_11)\n    /* \"https://github.com/OpenZeppelin/openzeppelin-contracts/blob/v4.1.0/contracts/token/ERC20/ERC20.sol\":8023:8353  function _mint(address account, uint256 amount) internal virtual {... */\ntag_10:\n    /* \"https://github.com/OpenZeppelin/openzeppelin-contracts/blob/v4.1.0/contracts/token/ERC20/ERC20.sol\":8125:8126  0 */\n  0x00\n    /* \"https://github.com/OpenZeppelin/openzeppelin-contracts/blob/v4.1.0/contracts/token/ERC20/ERC20.sol\":8106:8127  account != address(0) */\n  0xffffffffffffffffffffffffffffffffffffffff\n  and\n    /* \"https://github.com/OpenZeppelin/openzeppelin-contracts/blob/v4.1.0/contracts/token/ERC20/ERC20.sol\":8106:8113  account */\n  dup3\n    /* \"https://github.com/OpenZeppelin/openzeppelin-contracts/blob/v4.1.0/contracts/token/ERC20/ERC20.sol\":8106:8127  account != address(0) */\n  0xffffffffffffffffffffffffffffffffffffffff\n  and\n  eq\n  iszero\n    /* \"https://github.com/OpenZeppelin/openzeppelin-contracts/blob/v4.1.0/contracts/token/ERC20/ERC20.sol\":8098:8163  require(account != address(0), \"ERC20: mint to the zero address\") */\n  tag_13\n  jumpi\n  mload(0x40)\n  0x08c379a000000000000000000000000000000000000000000000000000000000\n  dup2\n  mstore\n  0x04\n  add\n  tag_14\n  swap1\n  tag_15\n  jump\t// in\ntag_14:\n  mload(0x40)\n  dup1\n  swap2\n  sub\n  swap1\n  revert\ntag_13:\n    /* \"https://github.com/OpenZeppelin/openzeppelin-contracts/blob/v4.1.0/contracts/token/ERC20/ERC20.sol\":8174:8223  _beforeTokenTransfer(address(0), account, amount) */\n  tag_16\n    /* \"https://github.com/OpenZeppelin/openzeppelin-contracts/blob/v4.1.0/contracts/token/ERC20/ERC20.sol\":8203:8204  0 */\n  0x00\n    /* \"https://github.com/OpenZeppelin/openzeppelin-contracts/blob/v4.1.0/contracts/token/ERC20/ERC20.sol\":8207:8214  account */\n  dup4\n    /* \"https://github.com/OpenZeppelin/openzeppelin-contracts/blob/v4.1.0/contracts/token/ERC20/ERC20.sol\":8216:8222  amount */\n  dup4\n    /* \"https://github.com/OpenZeppelin/openzeppelin-contracts/blob/v4.1.0/contracts/token/ERC20/ERC20.sol\":8174:8194  _beforeTokenTransfer */\n  shl(0x20, tag_17)\n    /* \"https://github.com/OpenZeppelin/openzeppelin-contracts/blob/v4.1.0/contracts/token/ERC20/ERC20.sol\":8174:8223  _beforeTokenTransfer(address(0), account, amount) */\n  0x20\n  shr\n  jump\t// in\ntag_16:\n    /* \"https://github.com/OpenZeppelin/openzeppelin-contracts/blob/v4.1.0/contracts/token/ERC20/ERC20.sol\":8250:8256  amount */\n  dup1\n    /* \"https://github.com/OpenZeppelin/openzeppelin-contracts/blob/v4.1.0/contracts/token/ERC20/ERC20.sol\":8234:8246  _totalSupply */\n  0x02\n  0x00\n    /* \"https://github.com/OpenZeppelin/openzeppelin-contracts/blob/v4.1.0/contracts/token/ERC20/ERC20.sol\":8234:8256  _totalSupply += amount */\n  dup3\n  dup3\n  sload\n  tag_18\n  swap2\n  swap1\n  tag_19\n  jump\t// in\ntag_18:\n  swap3\n  pop\n  pop\n  dup2\n  swap1\n  sstore\n  pop\n    /* \"https://github.com/OpenZeppelin/openzeppelin-contracts/blob/v4.1.0/contracts/token/ERC20/ERC20.sol\":8288:8294  amount */\n  dup1\n    /* \"https://github.com/OpenZeppelin/openzeppelin-contracts/blob/v4.1.0/contracts/token/ERC20/ERC20.sol\":8266:8275  _balances */\n  0x00\n    /* \"https://github.com/OpenZeppelin/openzeppelin-contracts/blob/v4.1.0/contracts/token/ERC20/ERC20.sol\":8266:8284  _balances[account] */\n  dup1\n    /* \"https://github.com/OpenZeppelin/openzeppelin-contracts/blob/v4.1.0/contracts/token/ERC20/ERC20.sol\":8276:8283  account */\n  dup5\n    /* \"https://github.com/OpenZeppelin/openzeppelin-contracts/blob/v4.1.0/contracts/token/ERC20/ERC20.sol\":8266:8284  _balances[account] */\n  0xffffffffffffffffffffffffffffffffffffffff\n  and\n  0xffffffffffffffffffffffffffffffffffffffff\n  and\n  dup2\n  mstore\n  0x20\n  add\n  swap1\n  dup2\n  mstore\n  0x20\n  add\n  0x00\n  keccak256\n  0x00\n    /* \"https://github.com/OpenZeppelin/openzeppelin-contracts/blob/v4.1.0/contracts/token/ERC20/ERC20.sol\":8266:8294  _balances[account] += amount */\n  dup3\n  dup3\n  sload\n  tag_20\n  swap2\n  swap1\n  tag_19\n  jump\t// in\ntag_20:\n  swap3\n  pop\n  pop\n  dup2\n  swap1\n  sstore\n  pop\n    /* \"https://github.com/OpenZeppelin/openzeppelin-contracts/blob/v4.1.0/contracts/token/ERC20/ERC20.sol\":8330:8337  account */\n  dup2\n    /* \"https://github.com/OpenZeppelin/openzeppelin-contracts/blob/v4.1.0/contracts/token/ERC20/ERC20.sol\":8309:8346  Transfer(address(0), account, amount) */\n  0xffffffffffffffffffffffffffffffffffffffff\n  and\n    /* \"https://github.com/OpenZeppelin/openzeppelin-contracts/blob/v4.1.0/contracts/token/ERC20/ERC20.sol\":8326:8327  0 */\n  0x00\n    /* \"https://github.com/OpenZeppelin/openzeppelin-contracts/blob/v4.1.0/contracts/token/ERC20/ERC20.sol\":8309:8346  Transfer(address(0), account, amount) */\n  0xffffffffffffffffffffffffffffffffffffffff\n  and\n  0xddf252ad1be2c89b69c2b068fc378daa952ba7f163c4a11628f55a4df523b3ef\n    /* \"https://github.com/OpenZeppelin/openzeppelin-contracts/blob/v4.1.0/contracts/token/ERC20/ERC20.sol\":8339:8345  amount */\n  dup4\n    /* \"https://github.com/OpenZeppelin/openzeppelin-contracts/blob/v4.1.0/contracts/token/ERC20/ERC20.sol\":8309:8346  Transfer(address(0), account, amount) */\n  mload(0x40)\n  tag_21\n  swap2\n  swap1\n  tag_22\n  jump\t// in\ntag_21:\n  mload(0x40)\n  dup1\n  swap2\n  sub\n  swap1\n  log3\n    /* \"https://github.com/OpenZeppelin/openzeppelin-contracts/blob/v4.1.0/contracts/token/ERC20/ERC20.sol\":8023:8353  function _mint(address account, uint256 amount) internal virtual {... */\n  pop\n  pop\n  jump\t// out\n    /* \"contracts/MyToken.sol\":532:663  function _beforeTokenTransfer(address from, address to, uint256 amount) internal override\r... */\ntag_17:\n    /* \"contracts/MyToken.sol\":656:657  1 */\n  0x01\n    /* \"contracts/MyToken.sol\":632:652  token_transfer_count */\n  0x05\n  0x00\n    /* \"contracts/MyToken.sol\":632:657  token_transfer_count += 1 */\n  dup3\n  dup3\n  sload\n  tag_24\n  swap2\n  swap1\n  tag_19\n  jump\t// in\ntag_24:\n  swap3\n  pop\n  pop\n  dup2\n  swap1\n  sstore\n  pop\n    /* \"contracts/MyToken.sol\":532:663  function _beforeTokenTransfer(address from, address to, uint256 amount) internal override\r... */\n  pop\n  pop\n  pop\n  jump\t// out\n    /* \"contracts/MyToken.sol\":171:666  contract MyERC20 is ERC20 {\r... */\ntag_6:\n  dup3\n  dup1\n  sload\n  tag_25\n  swap1\n  tag_26\n  jump\t// in\ntag_25:\n  swap1\n  0x00\n  mstore\n  keccak256(0x00, 0x20)\n  swap1\n  0x1f\n  add\n  0x20\n  swap1\n  div\n  dup2\n  add\n  swap3\n  dup3\n  tag_28\n  jumpi\n  0x00\n  dup6\n  sstore\n  jump(tag_27)\ntag_28:\n  dup3\n  0x1f\n  lt\n  tag_29\n  jumpi\n  dup1\n  mload\n  not(0xff)\n  and\n  dup4\n  dup1\n  add\n  or\n  dup6\n  sstore\n  jump(tag_27)\ntag_29:\n  dup3\n  dup1\n  add\n  0x01\n  add\n  dup6\n  sstore\n  dup3\n  iszero\n  tag_27\n  jumpi\n  swap2\n  dup3\n  add\ntag_30:\n  dup3\n  dup2\n  gt\n  iszero\n  tag_31\n  jumpi\n  dup3\n  mload\n  dup3\n  sstore\n  swap2\n  0x20\n  add\n  swap2\n  swap1\n  0x01\n  add\n  swap1\n  jump(tag_30)\ntag_31:\ntag_27:\n  pop\n  swap1\n  pop\n  tag_32\n  swap2\n  swap1\n  tag_33\n  jump\t// in\ntag_32:\n  pop\n  swap1\n  jump\t// out\ntag_33:\ntag_34:\n  dup1\n  dup3\n  gt\n  iszero\n  tag_35\n  jumpi\n  0x00\n  dup2\n  0x00\n  swap1\n  sstore\n  pop\n  0x01\n  add\n  jump(tag_34)\ntag_35:\n  pop\n  swap1\n  jump\t// out\n    /* \"#utility.yul\":7:373   */\ntag_37:\n    /* \"#utility.yul\":149:152   */\n  0x00\n    /* \"#utility.yul\":170:237   */\n  tag_39\n    /* \"#utility.yul\":234:236   */\n  0x1f\n    /* \"#utility.yul\":229:232   */\n  dup4\n    /* \"#utility.yul\":170:237   */\n  tag_40\n  jump\t// in\ntag_39:\n    /* \"#utility.yul\":163:237   */\n  swap2\n  pop\n    /* \"#utility.yul\":246:339   */\n  tag_41\n    /* \"#utility.yul\":335:338   */\n  dup3\n    /* \"#utility.yul\":246:339   */\n  tag_42\n  jump\t// in\ntag_41:\n    /* \"#utility.yul\":364:366   */\n  0x20\n    /* \"#utility.yul\":359:362   */\n  dup3\n    /* \"#utility.yul\":355:367   */\n  add\n    /* \"#utility.yul\":348:367   */\n  swap1\n  pop\n    /* \"#utility.yul\":153:373   */\n  swap2\n  swap1\n  pop\n  jump\t// out\n    /* \"#utility.yul\":379:497   */\ntag_43:\n    /* \"#utility.yul\":466:490   */\n  tag_45\n    /* \"#utility.yul\":484:489   */\n  dup2\n    /* \"#utility.yul\":466:490   */\n  tag_46\n  jump\t// in\ntag_45:\n    /* \"#utility.yul\":461:464   */\n  dup3\n    /* \"#utility.yul\":454:491   */\n  mstore\n    /* \"#utility.yul\":444:497   */\n  pop\n  pop\n  jump\t// out\n    /* \"#utility.yul\":503:922   */\ntag_15:\n    /* \"#utility.yul\":669:673   */\n  0x00\n    /* \"#utility.yul\":707:709   */\n  0x20\n    /* \"#utility.yul\":696:705   */\n  dup3\n    /* \"#utility.yul\":692:710   */\n  add\n    /* \"#utility.yul\":684:710   */\n  swap1\n  pop\n    /* \"#utility.yul\":756:765   */\n  dup2\n    /* \"#utility.yul\":750:754   */\n  dup2\n    /* \"#utility.yul\":746:766   */\n  sub\n    /* \"#utility.yul\":742:743   */\n  0x00\n    /* \"#utility.yul\":731:740   */\n  dup4\n    /* \"#utility.yul\":727:744   */\n  add\n    /* \"#utility.yul\":720:767   */\n  mstore\n    /* \"#utility.yul\":784:915   */\n  tag_48\n    /* \"#utility.yul\":910:914   */\n  dup2\n    /* \"#utility.yul\":784:915   */\n  tag_37\n  jump\t// in\ntag_48:\n    /* \"#utility.yul\":776:915   */\n  swap1\n  pop\n    /* \"#utility.yul\":674:922   */\n  swap2\n  swap1\n  pop\n  jump\t// out\n    /* \"#utility.yul\":928:1150   */\ntag_22:\n    /* \"#utility.yul\":1021:1025   */\n  0x00\n    /* \"#utility.yul\":1059:1061   */\n  0x20\n    /* \"#utility.yul\":1048:1057   */\n  dup3\n    /* \"#utility.yul\":1044:1062   */\n  add\n    /* \"#utility.yul\":1036:1062   */\n  swap1\n  pop\n    /* \"#utility.yul\":1072:1143   */\n  tag_50\n    /* \"#utility.yul\":1140:1141   */\n  0x00\n    /* \"#utility.yul\":1129:1138   */\n  dup4\n    /* \"#utility.yul\":1125:1142   */\n  add\n    /* \"#utility.yul\":1116:1122   */\n  dup5\n    /* \"#utility.yul\":1072:1143   */\n  tag_43\n  jump\t// in\ntag_50:\n    /* \"#utility.yul\":1026:1150   */\n  swap3\n  swap2\n  pop\n  pop\n  jump\t// out\n    /* \"#utility.yul\":1156:1325   */\ntag_40:\n    /* \"#utility.yul\":1240:1251   */\n  0x00\n    /* \"#utility.yul\":1274:1280   */\n  dup3\n    /* \"#utility.yul\":1269:1272   */\n  dup3\n    /* \"#utility.yul\":1262:1281   */\n  mstore\n    /* \"#utility.yul\":1314:1318   */\n  0x20\n    /* \"#utility.yul\":1309:1312   */\n  dup3\n    /* \"#utility.yul\":1305:1319   */\n  add\n    /* \"#utility.yul\":1290:1319   */\n  swap1\n  pop\n    /* \"#utility.yul\":1252:1325   */\n  swap3\n  swap2\n  pop\n  pop\n  jump\t// out\n    /* \"#utility.yul\":1331:1636   */\ntag_19:\n    /* \"#utility.yul\":1371:1374   */\n  0x00\n    /* \"#utility.yul\":1390:1410   */\n  tag_53\n    /* \"#utility.yul\":1408:1409   */\n  dup3\n    /* \"#utility.yul\":1390:1410   */\n  tag_46\n  jump\t// in\ntag_53:\n    /* \"#utility.yul\":1385:1410   */\n  swap2\n  pop\n    /* \"#utility.yul\":1424:1444   */\n  tag_54\n    /* \"#utility.yul\":1442:1443   */\n  dup4\n    /* \"#utility.yul\":1424:1444   */\n  tag_46\n  jump\t// in\ntag_54:\n    /* \"#utility.yul\":1419:1444   */\n  swap3\n  pop\n    /* \"#utility.yul\":1578:1579   */\n  dup3\n    /* \"#utility.yul\":1510:1576   */\n  0xffffffffffffffffffffffffffffffffffffffffffffffffffffffffffffffff\n    /* \"#utility.yul\":1506:1580   */\n  sub\n    /* \"#utility.yul\":1503:1504   */\n  dup3\n    /* \"#utility.yul\":1500:1581   */\n  gt\n    /* \"#utility.yul\":1497:1499   */\n  iszero\n  tag_55\n  jumpi\n    /* \"#utility.yul\":1584:1602   */\n  tag_56\n  tag_57\n  jump\t// in\ntag_56:\n    /* \"#utility.yul\":1497:1499   */\ntag_55:\n    /* \"#utility.yul\":1628:1629   */\n  dup3\n    /* \"#utility.yul\":1625:1626   */\n  dup3\n    /* \"#utility.yul\":1621:1630   */\n  add\n    /* \"#utility.yul\":1614:1630   */\n  swap1\n  pop\n    /* \"#utility.yul\":1375:1636   */\n  swap3\n  swap2\n  pop\n  pop\n  jump\t// out\n    /* \"#utility.yul\":1642:1719   */\ntag_46:\n    /* \"#utility.yul\":1679:1686   */\n  0x00\n    /* \"#utility.yul\":1708:1713   */\n  dup2\n    /* \"#utility.yul\":1697:1713   */\n  swap1\n  pop\n    /* \"#utility.yul\":1687:1719   */\n  swap2\n  swap1\n  pop\n  jump\t// out\n    /* \"#utility.yul\":1725:2045   */\ntag_26:\n    /* \"#utility.yul\":1769:1775   */\n  0x00\n    /* \"#utility.yul\":1806:1807   */\n  0x02\n    /* \"#utility.yul\":1800:1804   */\n  dup3\n    /* \"#utility.yul\":1796:1808   */\n  div\n    /* \"#utility.yul\":1786:1808   */\n  swap1\n  pop\n    /* \"#utility.yul\":1853:1854   */\n  0x01\n    /* \"#utility.yul\":1847:1851   */\n  dup3\n    /* \"#utility.yul\":1843:1855   */\n  and\n    /* \"#utility.yul\":1874:1892   */\n  dup1\n    /* \"#utility.yul\":1864:1866   */\n  tag_60\n  jumpi\n    /* \"#utility.yul\":1930:1934   */\n  0x7f\n    /* \"#utility.yul\":1922:1928   */\n  dup3\n    /* \"#utility.yul\":1918:1935   */\n  and\n    /* \"#utility.yul\":1908:1935   */\n  swap2\n  pop\n    /* \"#utility.yul\":1864:1866   */\ntag_60:\n    /* \"#utility.yul\":1992:1994   */\n  0x20\n    /* \"#utility.yul\":1984:1990   */\n  dup3\n    /* \"#utility.yul\":1981:1995   */\n  lt\n    /* \"#utility.yul\":1961:1979   */\n  dup2\n    /* \"#utility.yul\":1958:1996   */\n  eq\n    /* \"#utility.yul\":1955:1957   */\n  iszero\n  tag_61\n  jumpi\n    /* \"#utility.yul\":2011:2029   */\n  tag_62\n  tag_63\n  jump\t// in\ntag_62:\n    /* \"#utility.yul\":1955:1957   */\ntag_61:\n    /* \"#utility.yul\":1776:2045   */\n  pop\n  swap2\n  swap1\n  pop\n  jump\t// out\n    /* \"#utility.yul\":2051:2231   */\ntag_57:\n    /* \"#utility.yul\":2099:2176   */\n  0x4e487b7100000000000000000000000000000000000000000000000000000000\n    /* \"#utility.yul\":2096:2097   */\n  0x00\n    /* \"#utility.yul\":2089:2177   */\n  mstore\n    /* \"#utility.yul\":2196:2200   */\n  0x11\n    /* \"#utility.yul\":2193:2194   */\n  0x04\n    /* \"#utility.yul\":2186:2201   */\n  mstore\n    /* \"#utility.yul\":2220:2224   */\n  0x24\n    /* \"#utility.yul\":2217:2218   */\n  0x00\n    /* \"#utility.yul\":2210:2225   */\n  revert\n    /* \"#utility.yul\":2237:2417   */\ntag_63:\n    /* \"#utility.yul\":2285:2362   */\n  0x4e487b7100000000000000000000000000000000000000000000000000000000\n    /* \"#utility.yul\":2282:2283   */\n  0x00\n    /* \"#utility.yul\":2275:2363   */\n  mstore\n    /* \"#utility.yul\":2382:2386   */\n  0x22\n    /* \"#utility.yul\":2379:2380   */\n  0x04\n    /* \"#utility.yul\":2372:2387   */\n  mstore\n    /* \"#utility.yul\":2406:2410   */\n  0x24\n    /* \"#utility.yul\":2403:2404   */\n  0x00\n    /* \"#utility.yul\":2396:2411   */\n  revert\n    /* \"#utility.yul\":2423:2604   */\ntag_42:\n    /* \"#utility.yul\":2563:2596   */\n  0x45524332303a206d696e7420746f20746865207a65726f206164647265737300\n    /* \"#utility.yul\":2559:2560   */\n  0x00\n    /* \"#utility.yul\":2551:2557   */\n  dup3\n    /* \"#utility.yul\":2547:2561   */\n  add\n    /* \"#utility.yul\":2540:2597   */\n  mstore\n    /* \"#utility.yul\":2529:2604   */\n  pop\n  jump\t// out\n    /* \"contracts/MyToken.sol\":171:666  contract MyERC20 is ERC20 {\r... */\ntag_11:\n  dataSize(sub_0)\n  dup1\n  dataOffset(sub_0)\n  0x00\n  codecopy\n  0x00\n  return\nstop\n\nsub_0: assembly {\n        /* \"contracts/MyToken.sol\":171:666  contract MyERC20 is ERC20 {\r... */\n      mstore(0x40, 0x80)\n      callvalue\n      dup1\n      iszero\n      tag_1\n      jumpi\n      0x00\n      dup1\n      revert\n    tag_1:\n      pop\n      jumpi(tag_2, lt(calldatasize, 0x04))\n      shr(0xe0, calldataload(0x00))\n      dup1\n      0x40c10f19\n      gt\n      tag_17\n      jumpi\n      dup1\n      0x9dc29fac\n      gt\n      tag_18\n      jumpi\n      dup1\n      0x9dc29fac\n      eq\n      tag_13\n      jumpi\n      dup1\n      0xa457c2d7\n      eq\n      tag_14\n      jumpi\n      dup1\n      0xa9059cbb\n      eq\n      tag_15\n      jumpi\n      dup1\n      0xdd62ed3e\n      eq\n      tag_16\n      jumpi\n      jump(tag_2)\n    tag_18:\n      dup1\n      0x40c10f19\n      eq\n      tag_10\n      jumpi\n      dup1\n      0x70a08231\n      eq\n      tag_11\n      jumpi\n      dup1\n      0x95d89b41\n      eq\n      tag_12\n      jumpi\n      jump(tag_2)\n    tag_17:\n      dup1\n      0x18160ddd\n      gt\n      tag_19\n      jumpi\n      dup1\n      0x18160ddd\n      eq\n      tag_6\n      jumpi\n      dup1\n      0x23b872dd\n      eq\n      tag_7\n      jumpi\n      dup1\n      0x313ce567\n      eq\n      tag_8\n      jumpi\n      dup1\n      0x39509351\n      eq\n      tag_9\n      jumpi\n      jump(tag_2)\n    tag_19:\n      dup1\n      0x06fdde03\n      eq\n      tag_3\n      jumpi\n      dup1\n      0x095ea7b3\n      eq\n      tag_4\n      jumpi\n      dup1\n      0x160f00c1\n      eq\n      tag_5\n      jumpi\n    tag_2:\n      0x00\n      dup1\n      revert\n        /* \"https://github.com/OpenZeppelin/openzeppelin-contracts/blob/v4.1.0/contracts/token/ERC20/ERC20.sol\":2077:2175  function name() public view virtual override returns (string memory) {... */\n    tag_3:\n      tag_20\n      tag_21\n      jump\t// in\n    tag_20:\n      mload(0x40)\n      tag_22\n      swap2\n      swap1\n      tag_23\n      jump\t// in\n    tag_22:\n      mload(0x40)\n      dup1\n      swap2\n      sub\n      swap1\n      return\n        /* \"https://github.com/OpenZeppelin/openzeppelin-contracts/blob/v4.1.0/contracts/token/ERC20/ERC20.sol\":4174:4340  function approve(address spender, uint256 amount) public virtual override returns (bool) {... */\n    tag_4:\n      tag_24\n      0x04\n      dup1\n      calldatasize\n      sub\n      dup2\n      add\n      swap1\n      tag_25\n      swap2\n      swap1\n      tag_26\n      jump\t// in\n    tag_25:\n      tag_27\n      jump\t// in\n    tag_24:\n      mload(0x40)\n      tag_28\n      swap2\n      swap1\n      tag_29\n      jump\t// in\n    tag_28:\n      mload(0x40)\n      dup1\n      swap2\n      sub\n      swap1\n      return\n        /* \"contracts/MyToken.sol\":202:241  uint256 public token_transfer_count = 0 */\n    tag_5:\n      tag_30\n      tag_31\n      jump\t// in\n    tag_30:\n      mload(0x40)\n      tag_32\n      swap2\n      swap1\n      tag_33\n      jump\t// in\n    tag_32:\n      mload(0x40)\n      dup1\n      swap2\n      sub\n      swap1\n      return\n        /* \"https://github.com/OpenZeppelin/openzeppelin-contracts/blob/v4.1.0/contracts/token/ERC20/ERC20.sol\":3165:3271  function totalSupply() public view virtual override returns (uint256) {... */\n    tag_6:\n      tag_34\n      tag_35\n      jump\t// in\n    tag_34:\n      mload(0x40)\n      tag_36\n      swap2\n      swap1\n      tag_33\n      jump\t// in\n    tag_36:\n      mload(0x40)\n      dup1\n      swap2\n      sub\n      swap1\n      return\n        /* \"https://github.com/OpenZeppelin/openzeppelin-contracts/blob/v4.1.0/contracts/token/ERC20/ERC20.sol\":4807:5221  function transferFrom(address sender, address recipient, uint256 amount) public virtual override returns (bool) {... */\n    tag_7:\n      tag_37\n      0x04\n      dup1\n      calldatasize\n      sub\n      dup2\n      add\n      swap1\n      tag_38\n      swap2\n      swap1\n      tag_39\n      jump\t// in\n    tag_38:\n      tag_40\n      jump\t// in\n    tag_37:\n      mload(0x40)\n      tag_41\n      swap2\n      swap1\n      tag_29\n      jump\t// in\n    tag_41:\n      mload(0x40)\n      dup1\n      swap2\n      sub\n      swap1\n      return\n        /* \"https://github.com/OpenZeppelin/openzeppelin-contracts/blob/v4.1.0/contracts/token/ERC20/ERC20.sol\":3014:3105  function decimals() public view virtual override returns (uint8) {... */\n    tag_8:\n      tag_42\n      tag_43\n      jump\t// in\n    tag_42:\n      mload(0x40)\n      tag_44\n      swap2\n      swap1\n      tag_45\n      jump\t// in\n    tag_44:\n      mload(0x40)\n      dup1\n      swap2\n      sub\n      swap1\n      return\n        /* \"https://github.com/OpenZeppelin/openzeppelin-contracts/blob/v4.1.0/contracts/token/ERC20/ERC20.sol\":5616:5828  function increaseAllowance(address spender, uint256 addedValue) public virtual returns (bool) {... */\n    tag_9:\n      tag_46\n      0x04\n      dup1\n      calldatasize\n      sub\n      dup2\n      add\n      swap1\n      tag_47\n      swap2\n      swap1\n      tag_26\n      jump\t// in\n    tag_47:\n      tag_48\n      jump\t// in\n    tag_46:\n      mload(0x40)\n      tag_49\n      swap2\n      swap1\n      tag_29\n      jump\t// in\n    tag_49:\n      mload(0x40)\n      dup1\n      swap2\n      sub\n      swap1\n      return\n        /* \"contracts/MyToken.sol\":342:431  function mint(address account, uint256 amount) public {\r... */\n    tag_10:\n      tag_50\n      0x04\n      dup1\n      calldatasize\n      sub\n      dup2\n      add\n      swap1\n      tag_51\n      swap2\n      swap1\n      tag_26\n      jump\t// in\n    tag_51:\n      tag_52\n      jump\t// in\n    tag_50:\n      stop\n        /* \"https://github.com/OpenZeppelin/openzeppelin-contracts/blob/v4.1.0/contracts/token/ERC20/ERC20.sol\":3329:3454  function balanceOf(address account) public view virtual override returns (uint256) {... */\n    tag_11:\n      tag_53\n      0x04\n      dup1\n      calldatasize\n      sub\n      dup2\n      add\n      swap1\n      tag_54\n      swap2\n      swap1\n      tag_55\n      jump\t// in\n    tag_54:\n      tag_56\n      jump\t// in\n    tag_53:\n      mload(0x40)\n      tag_57\n      swap2\n      swap1\n      tag_33\n      jump\t// in\n    tag_57:\n      mload(0x40)\n      dup1\n      swap2\n      sub\n      swap1\n      return\n        /* \"https://github.com/OpenZeppelin/openzeppelin-contracts/blob/v4.1.0/contracts/token/ERC20/ERC20.sol\":2288:2390  function symbol() public view virtual override returns (string memory) {... */\n    tag_12:\n      tag_58\n      tag_59\n      jump\t// in\n    tag_58:\n      mload(0x40)\n      tag_60\n      swap2\n      swap1\n      tag_23\n      jump\t// in\n    tag_60:\n      mload(0x40)\n      dup1\n      swap2\n      sub\n      swap1\n      return\n        /* \"contracts/MyToken.sol\":437:526  function burn(address account, uint256 amount) public {\r... */\n    tag_13:\n      tag_61\n      0x04\n      dup1\n      calldatasize\n      sub\n      dup2\n      add\n      swap1\n      tag_62\n      swap2\n      swap1\n      tag_26\n      jump\t// in\n    tag_62:\n      tag_63\n      jump\t// in\n    tag_61:\n      stop\n        /* \"https://github.com/OpenZeppelin/openzeppelin-contracts/blob/v4.1.0/contracts/token/ERC20/ERC20.sol\":6315:6686  function decreaseAllowance(address spender, uint256 subtractedValue) public virtual returns (bool) {... */\n    tag_14:\n      tag_64\n      0x04\n      dup1\n      calldatasize\n      sub\n      dup2\n      add\n      swap1\n      tag_65\n      swap2\n      swap1\n      tag_26\n      jump\t// in\n    tag_65:\n      tag_66\n      jump\t// in\n    tag_64:\n      mload(0x40)\n      tag_67\n      swap2\n      swap1\n      tag_29\n      jump\t// in\n    tag_67:\n      mload(0x40)\n      dup1\n      swap2\n      sub\n      swap1\n      return\n        /* \"https://github.com/OpenZeppelin/openzeppelin-contracts/blob/v4.1.0/contracts/token/ERC20/ERC20.sol\":3657:3829  function transfer(address recipient, uint256 amount) public virtual override returns (bool) {... */\n    tag_15:\n      tag_68\n      0x04\n      dup1\n      calldatasize\n      sub\n      dup2\n      add\n      swap1\n      tag_69\n      swap2\n      swap1\n      tag_26\n      jump\t// in\n    tag_69:\n      tag_70\n      jump\t// in\n    tag_68:\n      mload(0x40)\n      tag_71\n      swap2\n      swap1\n      tag_29\n      jump\t// in\n    tag_71:\n      mload(0x40)\n      dup1\n      swap2\n      sub\n      swap1\n      return\n        /* \"https://github.com/OpenZeppelin/openzeppelin-contracts/blob/v4.1.0/contracts/token/ERC20/ERC20.sol\":3887:4036  function allowance(address owner, address spender) public view virtual override returns (uint256) {... */\n    tag_16:\n      tag_72\n      0x04\n      dup1\n      calldatasize\n      sub\n      dup2\n      add\n      swap1\n      tag_73\n      swap2\n      swap1\n      tag_74\n      jump\t// in\n    tag_73:\n      tag_75\n      jump\t// in\n    tag_72:\n      mload(0x40)\n      tag_76\n      swap2\n      swap1\n      tag_33\n      jump\t// in\n    tag_76:\n      mload(0x40)\n      dup1\n      swap2\n      sub\n      swap1\n      return\n        /* \"https://github.com/OpenZeppelin/openzeppelin-contracts/blob/v4.1.0/contracts/token/ERC20/ERC20.sol\":2077:2175  function name() public view virtual override returns (string memory) {... */\n    tag_21:\n        /* \"https://github.com/OpenZeppelin/openzeppelin-contracts/blob/v4.1.0/contracts/token/ERC20/ERC20.sol\":2131:2144  string memory */\n      0x60\n        /* \"https://github.com/OpenZeppelin/openzeppelin-contracts/blob/v4.1.0/contracts/token/ERC20/ERC20.sol\":2163:2168  _name */\n      0x03\n        /* \"https://github.com/OpenZeppelin/openzeppelin-contracts/blob/v4.1.0/contracts/token/ERC20/ERC20.sol\":2156:2168  return _name */\n      dup1\n      sload\n      tag_78\n      swap1\n      tag_79\n      jump\t// in\n    tag_78:\n      dup1\n      0x1f\n      add\n      0x20\n      dup1\n      swap2\n      div\n      mul\n      0x20\n      add\n      mload(0x40)\n      swap1\n      dup2\n      add\n      0x40\n      mstore\n      dup1\n      swap3\n      swap2\n      swap1\n      dup2\n      dup2\n      mstore\n      0x20\n      add\n      dup3\n      dup1\n      sload\n      tag_80\n      swap1\n      tag_79\n      jump\t// in\n    tag_80:\n      dup1\n      iszero\n      tag_81\n      jumpi\n      dup1\n      0x1f\n      lt\n      tag_82\n      jumpi\n      0x0100\n      dup1\n      dup4\n      sload\n      div\n      mul\n      dup4\n      mstore\n      swap2\n      0x20\n      add\n      swap2\n      jump(tag_81)\n    tag_82:\n      dup3\n      add\n      swap2\n      swap1\n      0x00\n      mstore\n      keccak256(0x00, 0x20)\n      swap1\n    tag_83:\n      dup2\n      sload\n      dup2\n      mstore\n      swap1\n      0x01\n      add\n      swap1\n      0x20\n      add\n      dup1\n      dup4\n      gt\n      tag_83\n      jumpi\n      dup3\n      swap1\n      sub\n      0x1f\n      and\n      dup3\n      add\n      swap2\n    tag_81:\n      pop\n      pop\n      pop\n      pop\n      pop\n      swap1\n      pop\n        /* \"https://github.com/OpenZeppelin/openzeppelin-contracts/blob/v4.1.0/contracts/token/ERC20/ERC20.sol\":2077:2175  function name() public view virtual override returns (string memory) {... */\n      swap1\n      jump\t// out\n        /* \"https://github.com/OpenZeppelin/openzeppelin-contracts/blob/v4.1.0/contracts/token/ERC20/ERC20.sol\":4174:4340  function approve(address spender, uint256 amount) public virtual override returns (bool) {... */\n    tag_27:\n        /* \"https://github.com/OpenZeppelin/openzeppelin-contracts/blob/v4.1.0/contracts/token/ERC20/ERC20.sol\":4257:4261  bool */\n      0x00\n        /* \"https://github.com/OpenZeppelin/openzeppelin-contracts/blob/v4.1.0/contracts/token/ERC20/ERC20.sol\":4273:4312  _approve(_msgSender(), spender, amount) */\n      tag_85\n        /* \"https://github.com/OpenZeppelin/openzeppelin-contracts/blob/v4.1.0/contracts/token/ERC20/ERC20.sol\":4282:4294  _msgSender() */\n      tag_86\n        /* \"https://github.com/OpenZeppelin/openzeppelin-contracts/blob/v4.1.0/contracts/token/ERC20/ERC20.sol\":4282:4292  _msgSender */\n      tag_87\n        /* \"https://github.com/OpenZeppelin/openzeppelin-contracts/blob/v4.1.0/contracts/token/ERC20/ERC20.sol\":4282:4294  _msgSender() */\n      jump\t// in\n    tag_86:\n        /* \"https://github.com/OpenZeppelin/openzeppelin-contracts/blob/v4.1.0/contracts/token/ERC20/ERC20.sol\":4296:4303  spender */\n      dup5\n        /* \"https://github.com/OpenZeppelin/openzeppelin-contracts/blob/v4.1.0/contracts/token/ERC20/ERC20.sol\":4305:4311  amount */\n      dup5\n        /* \"https://github.com/OpenZeppelin/openzeppelin-contracts/blob/v4.1.0/contracts/token/ERC20/ERC20.sol\":4273:4281  _approve */\n      tag_88\n        /* \"https://github.com/OpenZeppelin/openzeppelin-contracts/blob/v4.1.0/contracts/token/ERC20/ERC20.sol\":4273:4312  _approve(_msgSender(), spender, amount) */\n      jump\t// in\n    tag_85:\n        /* \"https://github.com/OpenZeppelin/openzeppelin-contracts/blob/v4.1.0/contracts/token/ERC20/ERC20.sol\":4329:4333  true */\n      0x01\n        /* \"https://github.com/OpenZeppelin/openzeppelin-contracts/blob/v4.1.0/contracts/token/ERC20/ERC20.sol\":4322:4333  return true */\n      swap1\n      pop\n        /* \"https://github.com/OpenZeppelin/openzeppelin-contracts/blob/v4.1.0/contracts/token/ERC20/ERC20.sol\":4174:4340  function approve(address spender, uint256 amount) public virtual override returns (bool) {... */\n      swap3\n      swap2\n      pop\n      pop\n      jump\t// out\n        /* \"contracts/MyToken.sol\":202:241  uint256 public token_transfer_count = 0 */\n    tag_31:\n      sload(0x05)\n      dup2\n      jump\t// out\n        /* \"https://github.com/OpenZeppelin/openzeppelin-contracts/blob/v4.1.0/contracts/token/ERC20/ERC20.sol\":3165:3271  function totalSupply() public view virtual override returns (uint256) {... */\n    tag_35:\n        /* \"https://github.com/OpenZeppelin/openzeppelin-contracts/blob/v4.1.0/contracts/token/ERC20/ERC20.sol\":3226:3233  uint256 */\n      0x00\n        /* \"https://github.com/OpenZeppelin/openzeppelin-contracts/blob/v4.1.0/contracts/token/ERC20/ERC20.sol\":3252:3264  _totalSupply */\n      sload(0x02)\n        /* \"https://github.com/OpenZeppelin/openzeppelin-contracts/blob/v4.1.0/contracts/token/ERC20/ERC20.sol\":3245:3264  return _totalSupply */\n      swap1\n      pop\n        /* \"https://github.com/OpenZeppelin/openzeppelin-contracts/blob/v4.1.0/contracts/token/ERC20/ERC20.sol\":3165:3271  function totalSupply() public view virtual override returns (uint256) {... */\n      swap1\n      jump\t// out\n        /* \"https://github.com/OpenZeppelin/openzeppelin-contracts/blob/v4.1.0/contracts/token/ERC20/ERC20.sol\":4807:5221  function transferFrom(address sender, address recipient, uint256 amount) public virtual override returns (bool) {... */\n    tag_40:\n        /* \"https://github.com/OpenZeppelin/openzeppelin-contracts/blob/v4.1.0/contracts/token/ERC20/ERC20.sol\":4913:4917  bool */\n      0x00\n        /* \"https://github.com/OpenZeppelin/openzeppelin-contracts/blob/v4.1.0/contracts/token/ERC20/ERC20.sol\":4929:4965  _transfer(sender, recipient, amount) */\n      tag_91\n        /* \"https://github.com/OpenZeppelin/openzeppelin-contracts/blob/v4.1.0/contracts/token/ERC20/ERC20.sol\":4939:4945  sender */\n      dup5\n        /* \"https://github.com/OpenZeppelin/openzeppelin-contracts/blob/v4.1.0/contracts/token/ERC20/ERC20.sol\":4947:4956  recipient */\n      dup5\n        /* \"https://github.com/OpenZeppelin/openzeppelin-contracts/blob/v4.1.0/contracts/token/ERC20/ERC20.sol\":4958:4964  amount */\n      dup5\n        /* \"https://github.com/OpenZeppelin/openzeppelin-contracts/blob/v4.1.0/contracts/token/ERC20/ERC20.sol\":4929:4938  _transfer */\n      tag_92\n        /* \"https://github.com/OpenZeppelin/openzeppelin-contracts/blob/v4.1.0/contracts/token/ERC20/ERC20.sol\":4929:4965  _transfer(sender, recipient, amount) */\n      jump\t// in\n    tag_91:\n        /* \"https://github.com/OpenZeppelin/openzeppelin-contracts/blob/v4.1.0/contracts/token/ERC20/ERC20.sol\":4976:5000  uint256 currentAllowance */\n      0x00\n        /* \"https://github.com/OpenZeppelin/openzeppelin-contracts/blob/v4.1.0/contracts/token/ERC20/ERC20.sol\":5003:5014  _allowances */\n      0x01\n        /* \"https://github.com/OpenZeppelin/openzeppelin-contracts/blob/v4.1.0/contracts/token/ERC20/ERC20.sol\":5003:5022  _allowances[sender] */\n      0x00\n        /* \"https://github.com/OpenZeppelin/openzeppelin-contracts/blob/v4.1.0/contracts/token/ERC20/ERC20.sol\":5015:5021  sender */\n      dup7\n        /* \"https://github.com/OpenZeppelin/openzeppelin-contracts/blob/v4.1.0/contracts/token/ERC20/ERC20.sol\":5003:5022  _allowances[sender] */\n      0xffffffffffffffffffffffffffffffffffffffff\n      and\n      0xffffffffffffffffffffffffffffffffffffffff\n      and\n      dup2\n      mstore\n      0x20\n      add\n      swap1\n      dup2\n      mstore\n      0x20\n      add\n      0x00\n      keccak256\n        /* \"https://github.com/OpenZeppelin/openzeppelin-contracts/blob/v4.1.0/contracts/token/ERC20/ERC20.sol\":5003:5036  _allowances[sender][_msgSender()] */\n      0x00\n        /* \"https://github.com/OpenZeppelin/openzeppelin-contracts/blob/v4.1.0/contracts/token/ERC20/ERC20.sol\":5023:5035  _msgSender() */\n      tag_93\n        /* \"https://github.com/OpenZeppelin/openzeppelin-contracts/blob/v4.1.0/contracts/token/ERC20/ERC20.sol\":5023:5033  _msgSender */\n      tag_87\n        /* \"https://github.com/OpenZeppelin/openzeppelin-contracts/blob/v4.1.0/contracts/token/ERC20/ERC20.sol\":5023:5035  _msgSender() */\n      jump\t// in\n    tag_93:\n        /* \"https://github.com/OpenZeppelin/openzeppelin-contracts/blob/v4.1.0/contracts/token/ERC20/ERC20.sol\":5003:5036  _allowances[sender][_msgSender()] */\n      0xffffffffffffffffffffffffffffffffffffffff\n      and\n      0xffffffffffffffffffffffffffffffffffffffff\n      and\n      dup2\n      mstore\n      0x20\n      add\n      swap1\n      dup2\n      mstore\n      0x20\n      add\n      0x00\n      keccak256\n      sload\n        /* \"https://github.com/OpenZeppelin/openzeppelin-contracts/blob/v4.1.0/contracts/token/ERC20/ERC20.sol\":4976:5036  uint256 currentAllowance = _allowances[sender][_msgSender()] */\n      swap1\n      pop\n        /* \"https://github.com/OpenZeppelin/openzeppelin-contracts/blob/v4.1.0/contracts/token/ERC20/ERC20.sol\":5074:5080  amount */\n      dup3\n        /* \"https://github.com/OpenZeppelin/openzeppelin-contracts/blob/v4.1.0/contracts/token/ERC20/ERC20.sol\":5054:5070  currentAllowance */\n      dup2\n        /* \"https://github.com/OpenZeppelin/openzeppelin-contracts/blob/v4.1.0/contracts/token/ERC20/ERC20.sol\":5054:5080  currentAllowance >= amount */\n      lt\n      iszero\n        /* \"https://github.com/OpenZeppelin/openzeppelin-contracts/blob/v4.1.0/contracts/token/ERC20/ERC20.sol\":5046:5125  require(currentAllowance >= amount, \"ERC20: transfer amount exceeds allowance\") */\n      tag_94\n      jumpi\n      mload(0x40)\n      0x08c379a000000000000000000000000000000000000000000000000000000000\n      dup2\n      mstore\n      0x04\n      add\n      tag_95\n      swap1\n      tag_96\n      jump\t// in\n    tag_95:\n      mload(0x40)\n      dup1\n      swap2\n      sub\n      swap1\n      revert\n    tag_94:\n        /* \"https://github.com/OpenZeppelin/openzeppelin-contracts/blob/v4.1.0/contracts/token/ERC20/ERC20.sol\":5135:5192  _approve(sender, _msgSender(), currentAllowance - amount) */\n      tag_97\n        /* \"https://github.com/OpenZeppelin/openzeppelin-contracts/blob/v4.1.0/contracts/token/ERC20/ERC20.sol\":5144:5150  sender */\n      dup6\n        /* \"https://github.com/OpenZeppelin/openzeppelin-contracts/blob/v4.1.0/contracts/token/ERC20/ERC20.sol\":5152:5164  _msgSender() */\n      tag_98\n        /* \"https://github.com/OpenZeppelin/openzeppelin-contracts/blob/v4.1.0/contracts/token/ERC20/ERC20.sol\":5152:5162  _msgSender */\n      tag_87\n        /* \"https://github.com/OpenZeppelin/openzeppelin-contracts/blob/v4.1.0/contracts/token/ERC20/ERC20.sol\":5152:5164  _msgSender() */\n      jump\t// in\n    tag_98:\n        /* \"https://github.com/OpenZeppelin/openzeppelin-contracts/blob/v4.1.0/contracts/token/ERC20/ERC20.sol\":5185:5191  amount */\n      dup6\n        /* \"https://github.com/OpenZeppelin/openzeppelin-contracts/blob/v4.1.0/contracts/token/ERC20/ERC20.sol\":5166:5182  currentAllowance */\n      dup5\n        /* \"https://github.com/OpenZeppelin/openzeppelin-contracts/blob/v4.1.0/contracts/token/ERC20/ERC20.sol\":5166:5191  currentAllowance - amount */\n      tag_99\n      swap2\n      swap1\n      tag_100\n      jump\t// in\n    tag_99:\n        /* \"https://github.com/OpenZeppelin/openzeppelin-contracts/blob/v4.1.0/contracts/token/ERC20/ERC20.sol\":5135:5143  _approve */\n      tag_88\n        /* \"https://github.com/OpenZeppelin/openzeppelin-contracts/blob/v4.1.0/contracts/token/ERC20/ERC20.sol\":5135:5192  _approve(sender, _msgSender(), currentAllowance - amount) */\n      jump\t// in\n    tag_97:\n        /* \"https://github.com/OpenZeppelin/openzeppelin-contracts/blob/v4.1.0/contracts/token/ERC20/ERC20.sol\":5210:5214  true */\n      0x01\n        /* \"https://github.com/OpenZeppelin/openzeppelin-contracts/blob/v4.1.0/contracts/token/ERC20/ERC20.sol\":5203:5214  return true */\n      swap2\n      pop\n      pop\n        /* \"https://github.com/OpenZeppelin/openzeppelin-contracts/blob/v4.1.0/contracts/token/ERC20/ERC20.sol\":4807:5221  function transferFrom(address sender, address recipient, uint256 amount) public virtual override returns (bool) {... */\n      swap4\n      swap3\n      pop\n      pop\n      pop\n      jump\t// out\n        /* \"https://github.com/OpenZeppelin/openzeppelin-contracts/blob/v4.1.0/contracts/token/ERC20/ERC20.sol\":3014:3105  function decimals() public view virtual override returns (uint8) {... */\n    tag_43:\n        /* \"https://github.com/OpenZeppelin/openzeppelin-contracts/blob/v4.1.0/contracts/token/ERC20/ERC20.sol\":3072:3077  uint8 */\n      0x00\n        /* \"https://github.com/OpenZeppelin/openzeppelin-contracts/blob/v4.1.0/contracts/token/ERC20/ERC20.sol\":3096:3098  18 */\n      0x12\n        /* \"https://github.com/OpenZeppelin/openzeppelin-contracts/blob/v4.1.0/contracts/token/ERC20/ERC20.sol\":3089:3098  return 18 */\n      swap1\n      pop\n        /* \"https://github.com/OpenZeppelin/openzeppelin-contracts/blob/v4.1.0/contracts/token/ERC20/ERC20.sol\":3014:3105  function decimals() public view virtual override returns (uint8) {... */\n      swap1\n      jump\t// out\n        /* \"https://github.com/OpenZeppelin/openzeppelin-contracts/blob/v4.1.0/contracts/token/ERC20/ERC20.sol\":5616:5828  function increaseAllowance(address spender, uint256 addedValue) public virtual returns (bool) {... */\n    tag_48:\n        /* \"https://github.com/OpenZeppelin/openzeppelin-contracts/blob/v4.1.0/contracts/token/ERC20/ERC20.sol\":5704:5708  bool */\n      0x00\n        /* \"https://github.com/OpenZeppelin/openzeppelin-contracts/blob/v4.1.0/contracts/token/ERC20/ERC20.sol\":5720:5800  _approve(_msgSender(), spender, _allowances[_msgSender()][spender] + addedValue) */\n      tag_103\n        /* \"https://github.com/OpenZeppelin/openzeppelin-contracts/blob/v4.1.0/contracts/token/ERC20/ERC20.sol\":5729:5741  _msgSender() */\n      tag_104\n        /* \"https://github.com/OpenZeppelin/openzeppelin-contracts/blob/v4.1.0/contracts/token/ERC20/ERC20.sol\":5729:5739  _msgSender */\n      tag_87\n        /* \"https://github.com/OpenZeppelin/openzeppelin-contracts/blob/v4.1.0/contracts/token/ERC20/ERC20.sol\":5729:5741  _msgSender() */\n      jump\t// in\n    tag_104:\n        /* \"https://github.com/OpenZeppelin/openzeppelin-contracts/blob/v4.1.0/contracts/token/ERC20/ERC20.sol\":5743:5750  spender */\n      dup5\n        /* \"https://github.com/OpenZeppelin/openzeppelin-contracts/blob/v4.1.0/contracts/token/ERC20/ERC20.sol\":5789:5799  addedValue */\n      dup5\n        /* \"https://github.com/OpenZeppelin/openzeppelin-contracts/blob/v4.1.0/contracts/token/ERC20/ERC20.sol\":5752:5763  _allowances */\n      0x01\n        /* \"https://github.com/OpenZeppelin/openzeppelin-contracts/blob/v4.1.0/contracts/token/ERC20/ERC20.sol\":5752:5777  _allowances[_msgSender()] */\n      0x00\n        /* \"https://github.com/OpenZeppelin/openzeppelin-contracts/blob/v4.1.0/contracts/token/ERC20/ERC20.sol\":5764:5776  _msgSender() */\n      tag_105\n        /* \"https://github.com/OpenZeppelin/openzeppelin-contracts/blob/v4.1.0/contracts/token/ERC20/ERC20.sol\":5764:5774  _msgSender */\n      tag_87\n        /* \"https://github.com/OpenZeppelin/openzeppelin-contracts/blob/v4.1.0/contracts/token/ERC20/ERC20.sol\":5764:5776  _msgSender() */\n      jump\t// in\n    tag_105:\n        /* \"https://github.com/OpenZeppelin/openzeppelin-contracts/blob/v4.1.0/contracts/token/ERC20/ERC20.sol\":5752:5777  _allowances[_msgSender()] */\n      0xffffffffffffffffffffffffffffffffffffffff\n      and\n      0xffffffffffffffffffffffffffffffffffffffff\n      and\n      dup2\n      mstore\n      0x20\n      add\n      swap1\n      dup2\n      mstore\n      0x20\n      add\n      0x00\n      keccak256\n        /* \"https://github.com/OpenZeppelin/openzeppelin-contracts/blob/v4.1.0/contracts/token/ERC20/ERC20.sol\":5752:5786  _allowances[_msgSender()][spender] */\n      0x00\n        /* \"https://github.com/OpenZeppelin/openzeppelin-contracts/blob/v4.1.0/contracts/token/ERC20/ERC20.sol\":5778:5785  spender */\n      dup9\n        /* \"https://github.com/OpenZeppelin/openzeppelin-contracts/blob/v4.1.0/contracts/token/ERC20/ERC20.sol\":5752:5786  _allowances[_msgSender()][spender] */\n      0xffffffffffffffffffffffffffffffffffffffff\n      and\n      0xffffffffffffffffffffffffffffffffffffffff\n      and\n      dup2\n      mstore\n      0x20\n      add\n      swap1\n      dup2\n      mstore\n      0x20\n      add\n      0x00\n      keccak256\n      sload\n        /* \"https://github.com/OpenZeppelin/openzeppelin-contracts/blob/v4.1.0/contracts/token/ERC20/ERC20.sol\":5752:5799  _allowances[_msgSender()][spender] + addedValue */\n      tag_106\n      swap2\n      swap1\n      tag_107\n      jump\t// in\n    tag_106:\n        /* \"https://github.com/OpenZeppelin/openzeppelin-contracts/blob/v4.1.0/contracts/token/ERC20/ERC20.sol\":5720:5728  _approve */\n      tag_88\n        /* \"https://github.com/OpenZeppelin/openzeppelin-contracts/blob/v4.1.0/contracts/token/ERC20/ERC20.sol\":5720:5800  _approve(_msgSender(), spender, _allowances[_msgSender()][spender] + addedValue) */\n      jump\t// in\n    tag_103:\n        /* \"https://github.com/OpenZeppelin/openzeppelin-contracts/blob/v4.1.0/contracts/token/ERC20/ERC20.sol\":5817:5821  true */\n      0x01\n        /* \"https://github.com/OpenZeppelin/openzeppelin-contracts/blob/v4.1.0/contracts/token/ERC20/ERC20.sol\":5810:5821  return true */\n      swap1\n      pop\n        /* \"https://github.com/OpenZeppelin/openzeppelin-contracts/blob/v4.1.0/contracts/token/ERC20/ERC20.sol\":5616:5828  function increaseAllowance(address spender, uint256 addedValue) public virtual returns (bool) {... */\n      swap3\n      swap2\n      pop\n      pop\n      jump\t// out\n        /* \"contracts/MyToken.sol\":342:431  function mint(address account, uint256 amount) public {\r... */\n    tag_52:\n        /* \"contracts/MyToken.sol\":403:425  _mint(account, amount) */\n      tag_109\n        /* \"contracts/MyToken.sol\":409:416  account */\n      dup3\n        /* \"contracts/MyToken.sol\":418:424  amount */\n      dup3\n        /* \"contracts/MyToken.sol\":403:408  _mint */\n      tag_110\n        /* \"contracts/MyToken.sol\":403:425  _mint(account, amount) */\n      jump\t// in\n    tag_109:\n        /* \"contracts/MyToken.sol\":342:431  function mint(address account, uint256 amount) public {\r... */\n      pop\n      pop\n      jump\t// out\n        /* \"https://github.com/OpenZeppelin/openzeppelin-contracts/blob/v4.1.0/contracts/token/ERC20/ERC20.sol\":3329:3454  function balanceOf(address account) public view virtual override returns (uint256) {... */\n    tag_56:\n        /* \"https://github.com/OpenZeppelin/openzeppelin-contracts/blob/v4.1.0/contracts/token/ERC20/ERC20.sol\":3403:3410  uint256 */\n      0x00\n        /* \"https://github.com/OpenZeppelin/openzeppelin-contracts/blob/v4.1.0/contracts/token/ERC20/ERC20.sol\":3429:3438  _balances */\n      dup1\n        /* \"https://github.com/OpenZeppelin/openzeppelin-contracts/blob/v4.1.0/contracts/token/ERC20/ERC20.sol\":3429:3447  _balances[account] */\n      0x00\n        /* \"https://github.com/OpenZeppelin/openzeppelin-contracts/blob/v4.1.0/contracts/token/ERC20/ERC20.sol\":3439:3446  account */\n      dup4\n        /* \"https://github.com/OpenZeppelin/openzeppelin-contracts/blob/v4.1.0/contracts/token/ERC20/ERC20.sol\":3429:3447  _balances[account] */\n      0xffffffffffffffffffffffffffffffffffffffff\n      and\n      0xffffffffffffffffffffffffffffffffffffffff\n      and\n      dup2\n      mstore\n      0x20\n      add\n      swap1\n      dup2\n      mstore\n      0x20\n      add\n      0x00\n      keccak256\n      sload\n        /* \"https://github.com/OpenZeppelin/openzeppelin-contracts/blob/v4.1.0/contracts/token/ERC20/ERC20.sol\":3422:3447  return _balances[account] */\n      swap1\n      pop\n        /* \"https://github.com/OpenZeppelin/openzeppelin-contracts/blob/v4.1.0/contracts/token/ERC20/ERC20.sol\":3329:3454  function balanceOf(address account) public view virtual override returns (uint256) {... */\n      swap2\n      swap1\n      pop\n      jump\t// out\n        /* \"https://github.com/OpenZeppelin/openzeppelin-contracts/blob/v4.1.0/contracts/token/ERC20/ERC20.sol\":2288:2390  function symbol() public view virtual override returns (string memory) {... */\n    tag_59:\n        /* \"https://github.com/OpenZeppelin/openzeppelin-contracts/blob/v4.1.0/contracts/token/ERC20/ERC20.sol\":2344:2357  string memory */\n      0x60\n        /* \"https://github.com/OpenZeppelin/openzeppelin-contracts/blob/v4.1.0/contracts/token/ERC20/ERC20.sol\":2376:2383  _symbol */\n      0x04\n        /* \"https://github.com/OpenZeppelin/openzeppelin-contracts/blob/v4.1.0/contracts/token/ERC20/ERC20.sol\":2369:2383  return _symbol */\n      dup1\n      sload\n      tag_113\n      swap1\n      tag_79\n      jump\t// in\n    tag_113:\n      dup1\n      0x1f\n      add\n      0x20\n      dup1\n      swap2\n      div\n      mul\n      0x20\n      add\n      mload(0x40)\n      swap1\n      dup2\n      add\n      0x40\n      mstore\n      dup1\n      swap3\n      swap2\n      swap1\n      dup2\n      dup2\n      mstore\n      0x20\n      add\n      dup3\n      dup1\n      sload\n      tag_114\n      swap1\n      tag_79\n      jump\t// in\n    tag_114:\n      dup1\n      iszero\n      tag_115\n      jumpi\n      dup1\n      0x1f\n      lt\n      tag_116\n      jumpi\n      0x0100\n      dup1\n      dup4\n      sload\n      div\n      mul\n      dup4\n      mstore\n      swap2\n      0x20\n      add\n      swap2\n      jump(tag_115)\n    tag_116:\n      dup3\n      add\n      swap2\n      swap1\n      0x00\n      mstore\n      keccak256(0x00, 0x20)\n      swap1\n    tag_117:\n      dup2\n      sload\n      dup2\n      mstore\n      swap1\n      0x01\n      add\n      swap1\n      0x20\n      add\n      dup1\n      dup4\n      gt\n      tag_117\n      jumpi\n      dup3\n      swap1\n      sub\n      0x1f\n      and\n      dup3\n      add\n      swap2\n    tag_115:\n      pop\n      pop\n      pop\n      pop\n      pop\n      swap1\n      pop\n        /* \"https://github.com/OpenZeppelin/openzeppelin-contracts/blob/v4.1.0/contracts/token/ERC20/ERC20.sol\":2288:2390  function symbol() public view virtual override returns (string memory) {... */\n      swap1\n      jump\t// out\n        /* \"contracts/MyToken.sol\":437:526  function burn(address account, uint256 amount) public {\r... */\n    tag_63:\n        /* \"contracts/MyToken.sol\":498:520  _burn(account, amount) */\n      tag_119\n        /* \"contracts/MyToken.sol\":504:511  account */\n      dup3\n        /* \"contracts/MyToken.sol\":513:519  amount */\n      dup3\n        /* \"contracts/MyToken.sol\":498:503  _burn */\n      tag_120\n        /* \"contracts/MyToken.sol\":498:520  _burn(account, amount) */\n      jump\t// in\n    tag_119:\n        /* \"contracts/MyToken.sol\":437:526  function burn(address account, uint256 amount) public {\r... */\n      pop\n      pop\n      jump\t// out\n        /* \"https://github.com/OpenZeppelin/openzeppelin-contracts/blob/v4.1.0/contracts/token/ERC20/ERC20.sol\":6315:6686  function decreaseAllowance(address spender, uint256 subtractedValue) public virtual returns (bool) {... */\n    tag_66:\n        /* \"https://github.com/OpenZeppelin/openzeppelin-contracts/blob/v4.1.0/contracts/token/ERC20/ERC20.sol\":6408:6412  bool */\n      0x00\n        /* \"https://github.com/OpenZeppelin/openzeppelin-contracts/blob/v4.1.0/contracts/token/ERC20/ERC20.sol\":6424:6448  uint256 currentAllowance */\n      dup1\n        /* \"https://github.com/OpenZeppelin/openzeppelin-contracts/blob/v4.1.0/contracts/token/ERC20/ERC20.sol\":6451:6462  _allowances */\n      0x01\n        /* \"https://github.com/OpenZeppelin/openzeppelin-contracts/blob/v4.1.0/contracts/token/ERC20/ERC20.sol\":6451:6476  _allowances[_msgSender()] */\n      0x00\n        /* \"https://github.com/OpenZeppelin/openzeppelin-contracts/blob/v4.1.0/contracts/token/ERC20/ERC20.sol\":6463:6475  _msgSender() */\n      tag_122\n        /* \"https://github.com/OpenZeppelin/openzeppelin-contracts/blob/v4.1.0/contracts/token/ERC20/ERC20.sol\":6463:6473  _msgSender */\n      tag_87\n        /* \"https://github.com/OpenZeppelin/openzeppelin-contracts/blob/v4.1.0/contracts/token/ERC20/ERC20.sol\":6463:6475  _msgSender() */\n      jump\t// in\n    tag_122:\n        /* \"https://github.com/OpenZeppelin/openzeppelin-contracts/blob/v4.1.0/contracts/token/ERC20/ERC20.sol\":6451:6476  _allowances[_msgSender()] */\n      0xffffffffffffffffffffffffffffffffffffffff\n      and\n      0xffffffffffffffffffffffffffffffffffffffff\n      and\n      dup2\n      mstore\n      0x20\n      add\n      swap1\n      dup2\n      mstore\n      0x20\n      add\n      0x00\n      keccak256\n        /* \"https://github.com/OpenZeppelin/openzeppelin-contracts/blob/v4.1.0/contracts/token/ERC20/ERC20.sol\":6451:6485  _allowances[_msgSender()][spender] */\n      0x00\n        /* \"https://github.com/OpenZeppelin/openzeppelin-contracts/blob/v4.1.0/contracts/token/ERC20/ERC20.sol\":6477:6484  spender */\n      dup6\n        /* \"https://github.com/OpenZeppelin/openzeppelin-contracts/blob/v4.1.0/contracts/token/ERC20/ERC20.sol\":6451:6485  _allowances[_msgSender()][spender] */\n      0xffffffffffffffffffffffffffffffffffffffff\n      and\n      0xffffffffffffffffffffffffffffffffffffffff\n      and\n      dup2\n      mstore\n      0x20\n      add\n      swap1\n      dup2\n      mstore\n      0x20\n      add\n      0x00\n      keccak256\n      sload\n        /* \"https://github.com/OpenZeppelin/openzeppelin-contracts/blob/v4.1.0/contracts/token/ERC20/ERC20.sol\":6424:6485  uint256 currentAllowance = _allowances[_msgSender()][spender] */\n      swap1\n      pop\n        /* \"https://github.com/OpenZeppelin/openzeppelin-contracts/blob/v4.1.0/contracts/token/ERC20/ERC20.sol\":6523:6538  subtractedValue */\n      dup3\n        /* \"https://github.com/OpenZeppelin/openzeppelin-contracts/blob/v4.1.0/contracts/token/ERC20/ERC20.sol\":6503:6519  currentAllowance */\n      dup2\n        /* \"https://github.com/OpenZeppelin/openzeppelin-contracts/blob/v4.1.0/contracts/token/ERC20/ERC20.sol\":6503:6538  currentAllowance >= subtractedValue */\n      lt\n      iszero\n        /* \"https://github.com/OpenZeppelin/openzeppelin-contracts/blob/v4.1.0/contracts/token/ERC20/ERC20.sol\":6495:6580  require(currentAllowance >= subtractedValue, \"ERC20: decreased allowance below zero\") */\n      tag_123\n      jumpi\n      mload(0x40)\n      0x08c379a000000000000000000000000000000000000000000000000000000000\n      dup2\n      mstore\n      0x04\n      add\n      tag_124\n      swap1\n      tag_125\n      jump\t// in\n    tag_124:\n      mload(0x40)\n      dup1\n      swap2\n      sub\n      swap1\n      revert\n    tag_123:\n        /* \"https://github.com/OpenZeppelin/openzeppelin-contracts/blob/v4.1.0/contracts/token/ERC20/ERC20.sol\":6590:6657  _approve(_msgSender(), spender, currentAllowance - subtractedValue) */\n      tag_126\n        /* \"https://github.com/OpenZeppelin/openzeppelin-contracts/blob/v4.1.0/contracts/token/ERC20/ERC20.sol\":6599:6611  _msgSender() */\n      tag_127\n        /* \"https://github.com/OpenZeppelin/openzeppelin-contracts/blob/v4.1.0/contracts/token/ERC20/ERC20.sol\":6599:6609  _msgSender */\n      tag_87\n        /* \"https://github.com/OpenZeppelin/openzeppelin-contracts/blob/v4.1.0/contracts/token/ERC20/ERC20.sol\":6599:6611  _msgSender() */\n      jump\t// in\n    tag_127:\n        /* \"https://github.com/OpenZeppelin/openzeppelin-contracts/blob/v4.1.0/contracts/token/ERC20/ERC20.sol\":6613:6620  spender */\n      dup6\n        /* \"https://github.com/OpenZeppelin/openzeppelin-contracts/blob/v4.1.0/contracts/token/ERC20/ERC20.sol\":6641:6656  subtractedValue */\n      dup6\n        /* \"https://github.com/OpenZeppelin/openzeppelin-contracts/blob/v4.1.0/contracts/token/ERC20/ERC20.sol\":6622:6638  currentAllowance */\n      dup5\n        /* \"https://github.com/OpenZeppelin/openzeppelin-contracts/blob/v4.1.0/contracts/token/ERC20/ERC20.sol\":6622:6656  currentAllowance - subtractedValue */\n      tag_128\n      swap2\n      swap1\n      tag_100\n      jump\t// in\n    tag_128:\n        /* \"https://github.com/OpenZeppelin/openzeppelin-contracts/blob/v4.1.0/contracts/token/ERC20/ERC20.sol\":6590:6598  _approve */\n      tag_88\n        /* \"https://github.com/OpenZeppelin/openzeppelin-contracts/blob/v4.1.0/contracts/token/ERC20/ERC20.sol\":6590:6657  _approve(_msgSender(), spender, currentAllowance - subtractedValue) */\n      jump\t// in\n    tag_126:\n        /* \"https://github.com/OpenZeppelin/openzeppelin-contracts/blob/v4.1.0/contracts/token/ERC20/ERC20.sol\":6675:6679  true */\n      0x01\n        /* \"https://github.com/OpenZeppelin/openzeppelin-contracts/blob/v4.1.0/contracts/token/ERC20/ERC20.sol\":6668:6679  return true */\n      swap2\n      pop\n      pop\n        /* \"https://github.com/OpenZeppelin/openzeppelin-contracts/blob/v4.1.0/contracts/token/ERC20/ERC20.sol\":6315:6686  function decreaseAllowance(address spender, uint256 subtractedValue) public virtual returns (bool) {... */\n      swap3\n      swap2\n      pop\n      pop\n      jump\t// out\n        /* \"https://github.com/OpenZeppelin/openzeppelin-contracts/blob/v4.1.0/contracts/token/ERC20/ERC20.sol\":3657:3829  function transfer(address recipient, uint256 amount) public virtual override returns (bool) {... */\n    tag_70:\n        /* \"https://github.com/OpenZeppelin/openzeppelin-contracts/blob/v4.1.0/contracts/token/ERC20/ERC20.sol\":3743:3747  bool */\n      0x00\n        /* \"https://github.com/OpenZeppelin/openzeppelin-contracts/blob/v4.1.0/contracts/token/ERC20/ERC20.sol\":3759:3801  _transfer(_msgSender(), recipient, amount) */\n      tag_130\n        /* \"https://github.com/OpenZeppelin/openzeppelin-contracts/blob/v4.1.0/contracts/token/ERC20/ERC20.sol\":3769:3781  _msgSender() */\n      tag_131\n        /* \"https://github.com/OpenZeppelin/openzeppelin-contracts/blob/v4.1.0/contracts/token/ERC20/ERC20.sol\":3769:3779  _msgSender */\n      tag_87\n        /* \"https://github.com/OpenZeppelin/openzeppelin-contracts/blob/v4.1.0/contracts/token/ERC20/ERC20.sol\":3769:3781  _msgSender() */\n      jump\t// in\n    tag_131:\n        /* \"https://github.com/OpenZeppelin/openzeppelin-contracts/blob/v4.1.0/contracts/token/ERC20/ERC20.sol\":3783:3792  recipient */\n      dup5\n        /* \"https://github.com/OpenZeppelin/openzeppelin-contracts/blob/v4.1.0/contracts/token/ERC20/ERC20.sol\":3794:3800  amount */\n      dup5\n        /* \"https://github.com/OpenZeppelin/openzeppelin-contracts/blob/v4.1.0/contracts/token/ERC20/ERC20.sol\":3759:3768  _transfer */\n      tag_92\n        /* \"https://github.com/OpenZeppelin/openzeppelin-contracts/blob/v4.1.0/contracts/token/ERC20/ERC20.sol\":3759:3801  _transfer(_msgSender(), recipient, amount) */\n      jump\t// in\n    tag_130:\n        /* \"https://github.com/OpenZeppelin/openzeppelin-contracts/blob/v4.1.0/contracts/token/ERC20/ERC20.sol\":3818:3822  true */\n      0x01\n        /* \"https://github.com/OpenZeppelin/openzeppelin-contracts/blob/v4.1.0/contracts/token/ERC20/ERC20.sol\":3811:3822  return true */\n      swap1\n      pop\n        /* \"https://github.com/OpenZeppelin/openzeppelin-contracts/blob/v4.1.0/contracts/token/ERC20/ERC20.sol\":3657:3829  function transfer(address recipient, uint256 amount) public virtual override returns (bool) {... */\n      swap3\n      swap2\n      pop\n      pop\n      jump\t// out\n        /* \"https://github.com/OpenZeppelin/openzeppelin-contracts/blob/v4.1.0/contracts/token/ERC20/ERC20.sol\":3887:4036  function allowance(address owner, address spender) public view virtual override returns (uint256) {... */\n    tag_75:\n        /* \"https://github.com/OpenZeppelin/openzeppelin-contracts/blob/v4.1.0/contracts/token/ERC20/ERC20.sol\":3976:3983  uint256 */\n      0x00\n        /* \"https://github.com/OpenZeppelin/openzeppelin-contracts/blob/v4.1.0/contracts/token/ERC20/ERC20.sol\":4002:4013  _allowances */\n      0x01\n        /* \"https://github.com/OpenZeppelin/openzeppelin-contracts/blob/v4.1.0/contracts/token/ERC20/ERC20.sol\":4002:4020  _allowances[owner] */\n      0x00\n        /* \"https://github.com/OpenZeppelin/openzeppelin-contracts/blob/v4.1.0/contracts/token/ERC20/ERC20.sol\":4014:4019  owner */\n      dup5\n        /* \"https://github.com/OpenZeppelin/openzeppelin-contracts/blob/v4.1.0/contracts/token/ERC20/ERC20.sol\":4002:4020  _allowances[owner] */\n      0xffffffffffffffffffffffffffffffffffffffff\n      and\n      0xffffffffffffffffffffffffffffffffffffffff\n      and\n      dup2\n      mstore\n      0x20\n      add\n      swap1\n      dup2\n      mstore\n      0x20\n      add\n      0x00\n      keccak256\n        /* \"https://github.com/OpenZeppelin/openzeppelin-contracts/blob/v4.1.0/contracts/token/ERC20/ERC20.sol\":4002:4029  _allowances[owner][spender] */\n      0x00\n        /* \"https://github.com/OpenZeppelin/openzeppelin-contracts/blob/v4.1.0/contracts/token/ERC20/ERC20.sol\":4021:4028  spender */\n      dup4\n        /* \"https://github.com/OpenZeppelin/openzeppelin-contracts/blob/v4.1.0/contracts/token/ERC20/ERC20.sol\":4002:4029  _allowances[owner][spender] */\n      0xffffffffffffffffffffffffffffffffffffffff\n      and\n      0xffffffffffffffffffffffffffffffffffffffff\n      and\n      dup2\n      mstore\n      0x20\n      add\n      swap1\n      dup2\n      mstore\n      0x20\n      add\n      0x00\n      keccak256\n      sload\n        /* \"https://github.com/OpenZeppelin/openzeppelin-contracts/blob/v4.1.0/contracts/token/ERC20/ERC20.sol\":3995:4029  return _allowances[owner][spender] */\n      swap1\n      pop\n        /* \"https://github.com/OpenZeppelin/openzeppelin-contracts/blob/v4.1.0/contracts/token/ERC20/ERC20.sol\":3887:4036  function allowance(address owner, address spender) public view virtual override returns (uint256) {... */\n      swap3\n      swap2\n      pop\n      pop\n      jump\t// out\n        /* \"https://github.com/OpenZeppelin/openzeppelin-contracts/blob/v4.1.0/contracts/utils/Context.sol\":586:682  function _msgSender() internal view virtual returns (address) {... */\n    tag_87:\n        /* \"https://github.com/OpenZeppelin/openzeppelin-contracts/blob/v4.1.0/contracts/utils/Context.sol\":639:646  address */\n      0x00\n        /* \"https://github.com/OpenZeppelin/openzeppelin-contracts/blob/v4.1.0/contracts/utils/Context.sol\":665:675  msg.sender */\n      caller\n        /* \"https://github.com/OpenZeppelin/openzeppelin-contracts/blob/v4.1.0/contracts/utils/Context.sol\":658:675  return msg.sender */\n      swap1\n      pop\n        /* \"https://github.com/OpenZeppelin/openzeppelin-contracts/blob/v4.1.0/contracts/utils/Context.sol\":586:682  function _msgSender() internal view virtual returns (address) {... */\n      swap1\n      jump\t// out\n        /* \"https://github.com/OpenZeppelin/openzeppelin-contracts/blob/v4.1.0/contracts/token/ERC20/ERC20.sol\":9579:9919  function _approve(address owner, address spender, uint256 amount) internal virtual {... */\n    tag_88:\n        /* \"https://github.com/OpenZeppelin/openzeppelin-contracts/blob/v4.1.0/contracts/token/ERC20/ERC20.sol\":9697:9698  0 */\n      0x00\n        /* \"https://github.com/OpenZeppelin/openzeppelin-contracts/blob/v4.1.0/contracts/token/ERC20/ERC20.sol\":9680:9699  owner != address(0) */\n      0xffffffffffffffffffffffffffffffffffffffff\n      and\n        /* \"https://github.com/OpenZeppelin/openzeppelin-contracts/blob/v4.1.0/contracts/token/ERC20/ERC20.sol\":9680:9685  owner */\n      dup4\n        /* \"https://github.com/OpenZeppelin/openzeppelin-contracts/blob/v4.1.0/contracts/token/ERC20/ERC20.sol\":9680:9699  owner != address(0) */\n      0xffffffffffffffffffffffffffffffffffffffff\n      and\n      eq\n      iszero\n        /* \"https://github.com/OpenZeppelin/openzeppelin-contracts/blob/v4.1.0/contracts/token/ERC20/ERC20.sol\":9672:9740  require(owner != address(0), \"ERC20: approve from the zero address\") */\n      tag_135\n      jumpi\n      mload(0x40)\n      0x08c379a000000000000000000000000000000000000000000000000000000000\n      dup2\n      mstore\n      0x04\n      add\n      tag_136\n      swap1\n      tag_137\n      jump\t// in\n    tag_136:\n      mload(0x40)\n      dup1\n      swap2\n      sub\n      swap1\n      revert\n    tag_135:\n        /* \"https://github.com/OpenZeppelin/openzeppelin-contracts/blob/v4.1.0/contracts/token/ERC20/ERC20.sol\":9777:9778  0 */\n      0x00\n        /* \"https://github.com/OpenZeppelin/openzeppelin-contracts/blob/v4.1.0/contracts/token/ERC20/ERC20.sol\":9758:9779  spender != address(0) */\n      0xffffffffffffffffffffffffffffffffffffffff\n      and\n        /* \"https://github.com/OpenZeppelin/openzeppelin-contracts/blob/v4.1.0/contracts/token/ERC20/ERC20.sol\":9758:9765  spender */\n      dup3\n        /* \"https://github.com/OpenZeppelin/openzeppelin-contracts/blob/v4.1.0/contracts/token/ERC20/ERC20.sol\":9758:9779  spender != address(0) */\n      0xffffffffffffffffffffffffffffffffffffffff\n      and\n      eq\n      iszero\n        /* \"https://github.com/OpenZeppelin/openzeppelin-contracts/blob/v4.1.0/contracts/token/ERC20/ERC20.sol\":9750:9818  require(spender != address(0), \"ERC20: approve to the zero address\") */\n      tag_138\n      jumpi\n      mload(0x40)\n      0x08c379a000000000000000000000000000000000000000000000000000000000\n      dup2\n      mstore\n      0x04\n      add\n      tag_139\n      swap1\n      tag_140\n      jump\t// in\n    tag_139:\n      mload(0x40)\n      dup1\n      swap2\n      sub\n      swap1\n      revert\n    tag_138:\n        /* \"https://github.com/OpenZeppelin/openzeppelin-contracts/blob/v4.1.0/contracts/token/ERC20/ERC20.sol\":9859:9865  amount */\n      dup1\n        /* \"https://github.com/OpenZeppelin/openzeppelin-contracts/blob/v4.1.0/contracts/token/ERC20/ERC20.sol\":9829:9840  _allowances */\n      0x01\n        /* \"https://github.com/OpenZeppelin/openzeppelin-contracts/blob/v4.1.0/contracts/token/ERC20/ERC20.sol\":9829:9847  _allowances[owner] */\n      0x00\n        /* \"https://github.com/OpenZeppelin/openzeppelin-contracts/blob/v4.1.0/contracts/token/ERC20/ERC20.sol\":9841:9846  owner */\n      dup6\n        /* \"https://github.com/OpenZeppelin/openzeppelin-contracts/blob/v4.1.0/contracts/token/ERC20/ERC20.sol\":9829:9847  _allowances[owner] */\n      0xffffffffffffffffffffffffffffffffffffffff\n      and\n      0xffffffffffffffffffffffffffffffffffffffff\n      and\n      dup2\n      mstore\n      0x20\n      add\n      swap1\n      dup2\n      mstore\n      0x20\n      add\n      0x00\n      keccak256\n        /* \"https://github.com/OpenZeppelin/openzeppelin-contracts/blob/v4.1.0/contracts/token/ERC20/ERC20.sol\":9829:9856  _allowances[owner][spender] */\n      0x00\n        /* \"https://github.com/OpenZeppelin/openzeppelin-contracts/blob/v4.1.0/contracts/token/ERC20/ERC20.sol\":9848:9855  spender */\n      dup5\n        /* \"https://github.com/OpenZeppelin/openzeppelin-contracts/blob/v4.1.0/contracts/token/ERC20/ERC20.sol\":9829:9856  _allowances[owner][spender] */\n      0xffffffffffffffffffffffffffffffffffffffff\n      and\n      0xffffffffffffffffffffffffffffffffffffffff\n      and\n      dup2\n      mstore\n      0x20\n      add\n      swap1\n      dup2\n      mstore\n      0x20\n      add\n      0x00\n      keccak256\n        /* \"https://github.com/OpenZeppelin/openzeppelin-contracts/blob/v4.1.0/contracts/token/ERC20/ERC20.sol\":9829:9865  _allowances[owner][spender] = amount */\n      dup2\n      swap1\n      sstore\n      pop\n        /* \"https://github.com/OpenZeppelin/openzeppelin-contracts/blob/v4.1.0/contracts/token/ERC20/ERC20.sol\":9896:9903  spender */\n      dup2\n        /* \"https://github.com/OpenZeppelin/openzeppelin-contracts/blob/v4.1.0/contracts/token/ERC20/ERC20.sol\":9880:9912  Approval(owner, spender, amount) */\n      0xffffffffffffffffffffffffffffffffffffffff\n      and\n        /* \"https://github.com/OpenZeppelin/openzeppelin-contracts/blob/v4.1.0/contracts/token/ERC20/ERC20.sol\":9889:9894  owner */\n      dup4\n        /* \"https://github.com/OpenZeppelin/openzeppelin-contracts/blob/v4.1.0/contracts/token/ERC20/ERC20.sol\":9880:9912  Approval(owner, spender, amount) */\n      0xffffffffffffffffffffffffffffffffffffffff\n      and\n      0x8c5be1e5ebec7d5bd14f71427d1e84f3dd0314c0f7b2291e5b200ac8c7c3b925\n        /* \"https://github.com/OpenZeppelin/openzeppelin-contracts/blob/v4.1.0/contracts/token/ERC20/ERC20.sol\":9905:9911  amount */\n      dup4\n        /* \"https://github.com/OpenZeppelin/openzeppelin-contracts/blob/v4.1.0/contracts/token/ERC20/ERC20.sol\":9880:9912  Approval(owner, spender, amount) */\n      mload(0x40)\n      tag_141\n      swap2\n      swap1\n      tag_33\n      jump\t// in\n    tag_141:\n      mload(0x40)\n      dup1\n      swap2\n      sub\n      swap1\n      log3\n        /* \"https://github.com/OpenZeppelin/openzeppelin-contracts/blob/v4.1.0/contracts/token/ERC20/ERC20.sol\":9579:9919  function _approve(address owner, address spender, uint256 amount) internal virtual {... */\n      pop\n      pop\n      pop\n      jump\t// out\n        /* \"https://github.com/OpenZeppelin/openzeppelin-contracts/blob/v4.1.0/contracts/token/ERC20/ERC20.sol\":7160:7752  function _transfer(address sender, address recipient, uint256 amount) internal virtual {... */\n    tag_92:\n        /* \"https://github.com/OpenZeppelin/openzeppelin-contracts/blob/v4.1.0/contracts/token/ERC20/ERC20.sol\":7283:7284  0 */\n      0x00\n        /* \"https://github.com/OpenZeppelin/openzeppelin-contracts/blob/v4.1.0/contracts/token/ERC20/ERC20.sol\":7265:7285  sender != address(0) */\n      0xffffffffffffffffffffffffffffffffffffffff\n      and\n        /* \"https://github.com/OpenZeppelin/openzeppelin-contracts/blob/v4.1.0/contracts/token/ERC20/ERC20.sol\":7265:7271  sender */\n      dup4\n        /* \"https://github.com/OpenZeppelin/openzeppelin-contracts/blob/v4.1.0/contracts/token/ERC20/ERC20.sol\":7265:7285  sender != address(0) */\n      0xffffffffffffffffffffffffffffffffffffffff\n      and\n      eq\n      iszero\n        /* \"https://github.com/OpenZeppelin/openzeppelin-contracts/blob/v4.1.0/contracts/token/ERC20/ERC20.sol\":7257:7327  require(sender != address(0), \"ERC20: transfer from the zero address\") */\n      tag_143\n      jumpi\n      mload(0x40)\n      0x08c379a000000000000000000000000000000000000000000000000000000000\n      dup2\n      mstore\n      0x04\n      add\n      tag_144\n      swap1\n      tag_145\n      jump\t// in\n    tag_144:\n      mload(0x40)\n      dup1\n      swap2\n      sub\n      swap1\n      revert\n    tag_143:\n        /* \"https://github.com/OpenZeppelin/openzeppelin-contracts/blob/v4.1.0/contracts/token/ERC20/ERC20.sol\":7366:7367  0 */\n      0x00\n        /* \"https://github.com/OpenZeppelin/openzeppelin-contracts/blob/v4.1.0/contracts/token/ERC20/ERC20.sol\":7345:7368  recipient != address(0) */\n      0xffffffffffffffffffffffffffffffffffffffff\n      and\n        /* \"https://github.com/OpenZeppelin/openzeppelin-contracts/blob/v4.1.0/contracts/token/ERC20/ERC20.sol\":7345:7354  recipient */\n      dup3\n        /* \"https://github.com/OpenZeppelin/openzeppelin-contracts/blob/v4.1.0/contracts/token/ERC20/ERC20.sol\":7345:7368  recipient != address(0) */\n      0xffffffffffffffffffffffffffffffffffffffff\n      and\n      eq\n      iszero\n        /* \"https://github.com/OpenZeppelin/openzeppelin-contracts/blob/v4.1.0/contracts/token/ERC20/ERC20.sol\":7337:7408  require(recipient != address(0), \"ERC20: transfer to the zero address\") */\n      tag_146\n      jumpi\n      mload(0x40)\n      0x08c379a000000000000000000000000000000000000000000000000000000000\n      dup2\n      mstore\n      0x04\n      add\n      tag_147\n      swap1\n      tag_148\n      jump\t// in\n    tag_147:\n      mload(0x40)\n      dup1\n      swap2\n      sub\n      swap1\n      revert\n    tag_146:\n        /* \"https://github.com/OpenZeppelin/openzeppelin-contracts/blob/v4.1.0/contracts/token/ERC20/ERC20.sol\":7419:7466  _beforeTokenTransfer(sender, recipient, amount) */\n      tag_149\n        /* \"https://github.com/OpenZeppelin/openzeppelin-contracts/blob/v4.1.0/contracts/token/ERC20/ERC20.sol\":7440:7446  sender */\n      dup4\n        /* \"https://github.com/OpenZeppelin/openzeppelin-contracts/blob/v4.1.0/contracts/token/ERC20/ERC20.sol\":7448:7457  recipient */\n      dup4\n        /* \"https://github.com/OpenZeppelin/openzeppelin-contracts/blob/v4.1.0/contracts/token/ERC20/ERC20.sol\":7459:7465  amount */\n      dup4\n        /* \"https://github.com/OpenZeppelin/openzeppelin-contracts/blob/v4.1.0/contracts/token/ERC20/ERC20.sol\":7419:7439  _beforeTokenTransfer */\n      tag_150\n        /* \"https://github.com/OpenZeppelin/openzeppelin-contracts/blob/v4.1.0/contracts/token/ERC20/ERC20.sol\":7419:7466  _beforeTokenTransfer(sender, recipient, amount) */\n      jump\t// in\n    tag_149:\n        /* \"https://github.com/OpenZeppelin/openzeppelin-contracts/blob/v4.1.0/contracts/token/ERC20/ERC20.sol\":7477:7498  uint256 senderBalance */\n      0x00\n        /* \"https://github.com/OpenZeppelin/openzeppelin-contracts/blob/v4.1.0/contracts/token/ERC20/ERC20.sol\":7501:7510  _balances */\n      dup1\n        /* \"https://github.com/OpenZeppelin/openzeppelin-contracts/blob/v4.1.0/contracts/token/ERC20/ERC20.sol\":7501:7518  _balances[sender] */\n      0x00\n        /* \"https://github.com/OpenZeppelin/openzeppelin-contracts/blob/v4.1.0/contracts/token/ERC20/ERC20.sol\":7511:7517  sender */\n      dup6\n        /* \"https://github.com/OpenZeppelin/openzeppelin-contracts/blob/v4.1.0/contracts/token/ERC20/ERC20.sol\":7501:7518  _balances[sender] */\n      0xffffffffffffffffffffffffffffffffffffffff\n      and\n      0xffffffffffffffffffffffffffffffffffffffff\n      and\n      dup2\n      mstore\n      0x20\n      add\n      swap1\n      dup2\n      mstore\n      0x20\n      add\n      0x00\n      keccak256\n      sload\n        /* \"https://github.com/OpenZeppelin/openzeppelin-contracts/blob/v4.1.0/contracts/token/ERC20/ERC20.sol\":7477:7518  uint256 senderBalance = _balances[sender] */\n      swap1\n      pop\n        /* \"https://github.com/OpenZeppelin/openzeppelin-contracts/blob/v4.1.0/contracts/token/ERC20/ERC20.sol\":7553:7559  amount */\n      dup2\n        /* \"https://github.com/OpenZeppelin/openzeppelin-contracts/blob/v4.1.0/contracts/token/ERC20/ERC20.sol\":7536:7549  senderBalance */\n      dup2\n        /* \"https://github.com/OpenZeppelin/openzeppelin-contracts/blob/v4.1.0/contracts/token/ERC20/ERC20.sol\":7536:7559  senderBalance >= amount */\n      lt\n      iszero\n        /* \"https://github.com/OpenZeppelin/openzeppelin-contracts/blob/v4.1.0/contracts/token/ERC20/ERC20.sol\":7528:7602  require(senderBalance >= amount, \"ERC20: transfer amount exceeds balance\") */\n      tag_151\n      jumpi\n      mload(0x40)\n      0x08c379a000000000000000000000000000000000000000000000000000000000\n      dup2\n      mstore\n      0x04\n      add\n      tag_152\n      swap1\n      tag_153\n      jump\t// in\n    tag_152:\n      mload(0x40)\n      dup1\n      swap2\n      sub\n      swap1\n      revert\n    tag_151:\n        /* \"https://github.com/OpenZeppelin/openzeppelin-contracts/blob/v4.1.0/contracts/token/ERC20/ERC20.sol\":7648:7654  amount */\n      dup2\n        /* \"https://github.com/OpenZeppelin/openzeppelin-contracts/blob/v4.1.0/contracts/token/ERC20/ERC20.sol\":7632:7645  senderBalance */\n      dup2\n        /* \"https://github.com/OpenZeppelin/openzeppelin-contracts/blob/v4.1.0/contracts/token/ERC20/ERC20.sol\":7632:7654  senderBalance - amount */\n      tag_154\n      swap2\n      swap1\n      tag_100\n      jump\t// in\n    tag_154:\n        /* \"https://github.com/OpenZeppelin/openzeppelin-contracts/blob/v4.1.0/contracts/token/ERC20/ERC20.sol\":7612:7621  _balances */\n      0x00\n        /* \"https://github.com/OpenZeppelin/openzeppelin-contracts/blob/v4.1.0/contracts/token/ERC20/ERC20.sol\":7612:7629  _balances[sender] */\n      dup1\n        /* \"https://github.com/OpenZeppelin/openzeppelin-contracts/blob/v4.1.0/contracts/token/ERC20/ERC20.sol\":7622:7628  sender */\n      dup7\n        /* \"https://github.com/OpenZeppelin/openzeppelin-contracts/blob/v4.1.0/contracts/token/ERC20/ERC20.sol\":7612:7629  _balances[sender] */\n      0xffffffffffffffffffffffffffffffffffffffff\n      and\n      0xffffffffffffffffffffffffffffffffffffffff\n      and\n      dup2\n      mstore\n      0x20\n      add\n      swap1\n      dup2\n      mstore\n      0x20\n      add\n      0x00\n      keccak256\n        /* \"https://github.com/OpenZeppelin/openzeppelin-contracts/blob/v4.1.0/contracts/token/ERC20/ERC20.sol\":7612:7654  _balances[sender] = senderBalance - amount */\n      dup2\n      swap1\n      sstore\n      pop\n        /* \"https://github.com/OpenZeppelin/openzeppelin-contracts/blob/v4.1.0/contracts/token/ERC20/ERC20.sol\":7688:7694  amount */\n      dup2\n        /* \"https://github.com/OpenZeppelin/openzeppelin-contracts/blob/v4.1.0/contracts/token/ERC20/ERC20.sol\":7664:7673  _balances */\n      0x00\n        /* \"https://github.com/OpenZeppelin/openzeppelin-contracts/blob/v4.1.0/contracts/token/ERC20/ERC20.sol\":7664:7684  _balances[recipient] */\n      dup1\n        /* \"https://github.com/OpenZeppelin/openzeppelin-contracts/blob/v4.1.0/contracts/token/ERC20/ERC20.sol\":7674:7683  recipient */\n      dup6\n        /* \"https://github.com/OpenZeppelin/openzeppelin-contracts/blob/v4.1.0/contracts/token/ERC20/ERC20.sol\":7664:7684  _balances[recipient] */\n      0xffffffffffffffffffffffffffffffffffffffff\n      and\n      0xffffffffffffffffffffffffffffffffffffffff\n      and\n      dup2\n      mstore\n      0x20\n      add\n      swap1\n      dup2\n      mstore\n      0x20\n      add\n      0x00\n      keccak256\n      0x00\n        /* \"https://github.com/OpenZeppelin/openzeppelin-contracts/blob/v4.1.0/contracts/token/ERC20/ERC20.sol\":7664:7694  _balances[recipient] += amount */\n      dup3\n      dup3\n      sload\n      tag_155\n      swap2\n      swap1\n      tag_107\n      jump\t// in\n    tag_155:\n      swap3\n      pop\n      pop\n      dup2\n      swap1\n      sstore\n      pop\n        /* \"https://github.com/OpenZeppelin/openzeppelin-contracts/blob/v4.1.0/contracts/token/ERC20/ERC20.sol\":7727:7736  recipient */\n      dup3\n        /* \"https://github.com/OpenZeppelin/openzeppelin-contracts/blob/v4.1.0/contracts/token/ERC20/ERC20.sol\":7710:7745  Transfer(sender, recipient, amount) */\n      0xffffffffffffffffffffffffffffffffffffffff\n      and\n        /* \"https://github.com/OpenZeppelin/openzeppelin-contracts/blob/v4.1.0/contracts/token/ERC20/ERC20.sol\":7719:7725  sender */\n      dup5\n        /* \"https://github.com/OpenZeppelin/openzeppelin-contracts/blob/v4.1.0/contracts/token/ERC20/ERC20.sol\":7710:7745  Transfer(sender, recipient, amount) */\n      0xffffffffffffffffffffffffffffffffffffffff\n      and\n      0xddf252ad1be2c89b69c2b068fc378daa952ba7f163c4a11628f55a4df523b3ef\n        /* \"https://github.com/OpenZeppelin/openzeppelin-contracts/blob/v4.1.0/contracts/token/ERC20/ERC20.sol\":7738:7744  amount */\n      dup5\n        /* \"https://github.com/OpenZeppelin/openzeppelin-contracts/blob/v4.1.0/contracts/token/ERC20/ERC20.sol\":7710:7745  Transfer(sender, recipient, amount) */\n      mload(0x40)\n      tag_156\n      swap2\n      swap1\n      tag_33\n      jump\t// in\n    tag_156:\n      mload(0x40)\n      dup1\n      swap2\n      sub\n      swap1\n      log3\n        /* \"https://github.com/OpenZeppelin/openzeppelin-contracts/blob/v4.1.0/contracts/token/ERC20/ERC20.sol\":7247:7752  {... */\n      pop\n        /* \"https://github.com/OpenZeppelin/openzeppelin-contracts/blob/v4.1.0/contracts/token/ERC20/ERC20.sol\":7160:7752  function _transfer(address sender, address recipient, uint256 amount) internal virtual {... */\n      pop\n      pop\n      pop\n      jump\t// out\n        /* \"https://github.com/OpenZeppelin/openzeppelin-contracts/blob/v4.1.0/contracts/token/ERC20/ERC20.sol\":8023:8353  function _mint(address account, uint256 amount) internal virtual {... */\n    tag_110:\n        /* \"https://github.com/OpenZeppelin/openzeppelin-contracts/blob/v4.1.0/contracts/token/ERC20/ERC20.sol\":8125:8126  0 */\n      0x00\n        /* \"https://github.com/OpenZeppelin/openzeppelin-contracts/blob/v4.1.0/contracts/token/ERC20/ERC20.sol\":8106:8127  account != address(0) */\n      0xffffffffffffffffffffffffffffffffffffffff\n      and\n        /* \"https://github.com/OpenZeppelin/openzeppelin-contracts/blob/v4.1.0/contracts/token/ERC20/ERC20.sol\":8106:8113  account */\n      dup3\n        /* \"https://github.com/OpenZeppelin/openzeppelin-contracts/blob/v4.1.0/contracts/token/ERC20/ERC20.sol\":8106:8127  account != address(0) */\n      0xffffffffffffffffffffffffffffffffffffffff\n      and\n      eq\n      iszero\n        /* \"https://github.com/OpenZeppelin/openzeppelin-contracts/blob/v4.1.0/contracts/token/ERC20/ERC20.sol\":8098:8163  require(account != address(0), \"ERC20: mint to the zero address\") */\n      tag_158\n      jumpi\n      mload(0x40)\n      0x08c379a000000000000000000000000000000000000000000000000000000000\n      dup2\n      mstore\n      0x04\n      add\n      tag_159\n      swap1\n      tag_160\n      jump\t// in\n    tag_159:\n      mload(0x40)\n      dup1\n      swap2\n      sub\n      swap1\n      revert\n    tag_158:\n        /* \"https://github.com/OpenZeppelin/openzeppelin-contracts/blob/v4.1.0/contracts/token/ERC20/ERC20.sol\":8174:8223  _beforeTokenTransfer(address(0), account, amount) */\n      tag_161\n        /* \"https://github.com/OpenZeppelin/openzeppelin-contracts/blob/v4.1.0/contracts/token/ERC20/ERC20.sol\":8203:8204  0 */\n      0x00\n        /* \"https://github.com/OpenZeppelin/openzeppelin-contracts/blob/v4.1.0/contracts/token/ERC20/ERC20.sol\":8207:8214  account */\n      dup4\n        /* \"https://github.com/OpenZeppelin/openzeppelin-contracts/blob/v4.1.0/contracts/token/ERC20/ERC20.sol\":8216:8222  amount */\n      dup4\n        /* \"https://github.com/OpenZeppelin/openzeppelin-contracts/blob/v4.1.0/contracts/token/ERC20/ERC20.sol\":8174:8194  _beforeTokenTransfer */\n      tag_150\n        /* \"https://github.com/OpenZeppelin/openzeppelin-contracts/blob/v4.1.0/contracts/token/ERC20/ERC20.sol\":8174:8223  _beforeTokenTransfer(address(0), account, amount) */\n      jump\t// in\n    tag_161:\n        /* \"https://github.com/OpenZeppelin/openzeppelin-contracts/blob/v4.1.0/contracts/token/ERC20/ERC20.sol\":8250:8256  amount */\n      dup1\n        /* \"https://github.com/OpenZeppelin/openzeppelin-contracts/blob/v4.1.0/contracts/token/ERC20/ERC20.sol\":8234:8246  _totalSupply */\n      0x02\n      0x00\n        /* \"https://github.com/OpenZeppelin/openzeppelin-contracts/blob/v4.1.0/contracts/token/ERC20/ERC20.sol\":8234:8256  _totalSupply += amount */\n      dup3\n      dup3\n      sload\n      tag_162\n      swap2\n      swap1\n      tag_107\n      jump\t// in\n    tag_162:\n      swap3\n      pop\n      pop\n      dup2\n      swap1\n      sstore\n      pop\n        /* \"https://github.com/OpenZeppelin/openzeppelin-contracts/blob/v4.1.0/contracts/token/ERC20/ERC20.sol\":8288:8294  amount */\n      dup1\n        /* \"https://github.com/OpenZeppelin/openzeppelin-contracts/blob/v4.1.0/contracts/token/ERC20/ERC20.sol\":8266:8275  _balances */\n      0x00\n        /* \"https://github.com/OpenZeppelin/openzeppelin-contracts/blob/v4.1.0/contracts/token/ERC20/ERC20.sol\":8266:8284  _balances[account] */\n      dup1\n        /* \"https://github.com/OpenZeppelin/openzeppelin-contracts/blob/v4.1.0/contracts/token/ERC20/ERC20.sol\":8276:8283  account */\n      dup5\n        /* \"https://github.com/OpenZeppelin/openzeppelin-contracts/blob/v4.1.0/contracts/token/ERC20/ERC20.sol\":8266:8284  _balances[account] */\n      0xffffffffffffffffffffffffffffffffffffffff\n      and\n      0xffffffffffffffffffffffffffffffffffffffff\n      and\n      dup2\n      mstore\n      0x20\n      add\n      swap1\n      dup2\n      mstore\n      0x20\n      add\n      0x00\n      keccak256\n      0x00\n        /* \"https://github.com/OpenZeppelin/openzeppelin-contracts/blob/v4.1.0/contracts/token/ERC20/ERC20.sol\":8266:8294  _balances[account] += amount */\n      dup3\n      dup3\n      sload\n      tag_163\n      swap2\n      swap1\n      tag_107\n      jump\t// in\n    tag_163:\n      swap3\n      pop\n      pop\n      dup2\n      swap1\n      sstore\n      pop\n        /* \"https://github.com/OpenZeppelin/openzeppelin-contracts/blob/v4.1.0/contracts/token/ERC20/ERC20.sol\":8330:8337  account */\n      dup2\n        /* \"https://github.com/OpenZeppelin/openzeppelin-contracts/blob/v4.1.0/contracts/token/ERC20/ERC20.sol\":8309:8346  Transfer(address(0), account, amount) */\n      0xffffffffffffffffffffffffffffffffffffffff\n      and\n        /* \"https://github.com/OpenZeppelin/openzeppelin-contracts/blob/v4.1.0/contracts/token/ERC20/ERC20.sol\":8326:8327  0 */\n      0x00\n        /* \"https://github.com/OpenZeppelin/openzeppelin-contracts/blob/v4.1.0/contracts/token/ERC20/ERC20.sol\":8309:8346  Transfer(address(0), account, amount) */\n      0xffffffffffffffffffffffffffffffffffffffff\n      and\n      0xddf252ad1be2c89b69c2b068fc378daa952ba7f163c4a11628f55a4df523b3ef\n        /* \"https://github.com/OpenZeppelin/openzeppelin-contracts/blob/v4.1.0/contracts/token/ERC20/ERC20.sol\":8339:8345  amount */\n      dup4\n        /* \"https://github.com/OpenZeppelin/openzeppelin-contracts/blob/v4.1.0/contracts/token/ERC20/ERC20.sol\":8309:8346  Transfer(address(0), account, amount) */\n      mload(0x40)\n      tag_164\n      swap2\n      swap1\n      tag_33\n      jump\t// in\n    tag_164:\n      mload(0x40)\n      dup1\n      swap2\n      sub\n      swap1\n      log3\n        /* \"https://github.com/OpenZeppelin/openzeppelin-contracts/blob/v4.1.0/contracts/token/ERC20/ERC20.sol\":8023:8353  function _mint(address account, uint256 amount) internal virtual {... */\n      pop\n      pop\n      jump\t// out\n        /* \"https://github.com/OpenZeppelin/openzeppelin-contracts/blob/v4.1.0/contracts/token/ERC20/ERC20.sol\":8673:9156  function _burn(address account, uint256 amount) internal virtual {... */\n    tag_120:\n        /* \"https://github.com/OpenZeppelin/openzeppelin-contracts/blob/v4.1.0/contracts/token/ERC20/ERC20.sol\":8775:8776  0 */\n      0x00\n        /* \"https://github.com/OpenZeppelin/openzeppelin-contracts/blob/v4.1.0/contracts/token/ERC20/ERC20.sol\":8756:8777  account != address(0) */\n      0xffffffffffffffffffffffffffffffffffffffff\n      and\n        /* \"https://github.com/OpenZeppelin/openzeppelin-contracts/blob/v4.1.0/contracts/token/ERC20/ERC20.sol\":8756:8763  account */\n      dup3\n        /* \"https://github.com/OpenZeppelin/openzeppelin-contracts/blob/v4.1.0/contracts/token/ERC20/ERC20.sol\":8756:8777  account != address(0) */\n      0xffffffffffffffffffffffffffffffffffffffff\n      and\n      eq\n      iszero\n        /* \"https://github.com/OpenZeppelin/openzeppelin-contracts/blob/v4.1.0/contracts/token/ERC20/ERC20.sol\":8748:8815  require(account != address(0), \"ERC20: burn from the zero address\") */\n      tag_166\n      jumpi\n      mload(0x40)\n      0x08c379a000000000000000000000000000000000000000000000000000000000\n      dup2\n      mstore\n      0x04\n      add\n      tag_167\n      swap1\n      tag_168\n      jump\t// in\n    tag_167:\n      mload(0x40)\n      dup1\n      swap2\n      sub\n      swap1\n      revert\n    tag_166:\n        /* \"https://github.com/OpenZeppelin/openzeppelin-contracts/blob/v4.1.0/contracts/token/ERC20/ERC20.sol\":8826:8875  _beforeTokenTransfer(account, address(0), amount) */\n      tag_169\n        /* \"https://github.com/OpenZeppelin/openzeppelin-contracts/blob/v4.1.0/contracts/token/ERC20/ERC20.sol\":8847:8854  account */\n      dup3\n        /* \"https://github.com/OpenZeppelin/openzeppelin-contracts/blob/v4.1.0/contracts/token/ERC20/ERC20.sol\":8864:8865  0 */\n      0x00\n        /* \"https://github.com/OpenZeppelin/openzeppelin-contracts/blob/v4.1.0/contracts/token/ERC20/ERC20.sol\":8868:8874  amount */\n      dup4\n        /* \"https://github.com/OpenZeppelin/openzeppelin-contracts/blob/v4.1.0/contracts/token/ERC20/ERC20.sol\":8826:8846  _beforeTokenTransfer */\n      tag_150\n        /* \"https://github.com/OpenZeppelin/openzeppelin-contracts/blob/v4.1.0/contracts/token/ERC20/ERC20.sol\":8826:8875  _beforeTokenTransfer(account, address(0), amount) */\n      jump\t// in\n    tag_169:\n        /* \"https://github.com/OpenZeppelin/openzeppelin-contracts/blob/v4.1.0/contracts/token/ERC20/ERC20.sol\":8886:8908  uint256 accountBalance */\n      0x00\n        /* \"https://github.com/OpenZeppelin/openzeppelin-contracts/blob/v4.1.0/contracts/token/ERC20/ERC20.sol\":8911:8920  _balances */\n      dup1\n        /* \"https://github.com/OpenZeppelin/openzeppelin-contracts/blob/v4.1.0/contracts/token/ERC20/ERC20.sol\":8911:8929  _balances[account] */\n      0x00\n        /* \"https://github.com/OpenZeppelin/openzeppelin-contracts/blob/v4.1.0/contracts/token/ERC20/ERC20.sol\":8921:8928  account */\n      dup5\n        /* \"https://github.com/OpenZeppelin/openzeppelin-contracts/blob/v4.1.0/contracts/token/ERC20/ERC20.sol\":8911:8929  _balances[account] */\n      0xffffffffffffffffffffffffffffffffffffffff\n      and\n      0xffffffffffffffffffffffffffffffffffffffff\n      and\n      dup2\n      mstore\n      0x20\n      add\n      swap1\n      dup2\n      mstore\n      0x20\n      add\n      0x00\n      keccak256\n      sload\n        /* \"https://github.com/OpenZeppelin/openzeppelin-contracts/blob/v4.1.0/contracts/token/ERC20/ERC20.sol\":8886:8929  uint256 accountBalance = _balances[account] */\n      swap1\n      pop\n        /* \"https://github.com/OpenZeppelin/openzeppelin-contracts/blob/v4.1.0/contracts/token/ERC20/ERC20.sol\":8965:8971  amount */\n      dup2\n        /* \"https://github.com/OpenZeppelin/openzeppelin-contracts/blob/v4.1.0/contracts/token/ERC20/ERC20.sol\":8947:8961  accountBalance */\n      dup2\n        /* \"https://github.com/OpenZeppelin/openzeppelin-contracts/blob/v4.1.0/contracts/token/ERC20/ERC20.sol\":8947:8971  accountBalance >= amount */\n      lt\n      iszero\n        /* \"https://github.com/OpenZeppelin/openzeppelin-contracts/blob/v4.1.0/contracts/token/ERC20/ERC20.sol\":8939:9010  require(accountBalance >= amount, \"ERC20: burn amount exceeds balance\") */\n      tag_170\n      jumpi\n      mload(0x40)\n      0x08c379a000000000000000000000000000000000000000000000000000000000\n      dup2\n      mstore\n      0x04\n      add\n      tag_171\n      swap1\n      tag_172\n      jump\t// in\n    tag_171:\n      mload(0x40)\n      dup1\n      swap2\n      sub\n      swap1\n      revert\n    tag_170:\n        /* \"https://github.com/OpenZeppelin/openzeppelin-contracts/blob/v4.1.0/contracts/token/ERC20/ERC20.sol\":9058:9064  amount */\n      dup2\n        /* \"https://github.com/OpenZeppelin/openzeppelin-contracts/blob/v4.1.0/contracts/token/ERC20/ERC20.sol\":9041:9055  accountBalance */\n      dup2\n        /* \"https://github.com/OpenZeppelin/openzeppelin-contracts/blob/v4.1.0/contracts/token/ERC20/ERC20.sol\":9041:9064  accountBalance - amount */\n      tag_173\n      swap2\n      swap1\n      tag_100\n      jump\t// in\n    tag_173:\n        /* \"https://github.com/OpenZeppelin/openzeppelin-contracts/blob/v4.1.0/contracts/token/ERC20/ERC20.sol\":9020:9029  _balances */\n      0x00\n        /* \"https://github.com/OpenZeppelin/openzeppelin-contracts/blob/v4.1.0/contracts/token/ERC20/ERC20.sol\":9020:9038  _balances[account] */\n      dup1\n        /* \"https://github.com/OpenZeppelin/openzeppelin-contracts/blob/v4.1.0/contracts/token/ERC20/ERC20.sol\":9030:9037  account */\n      dup6\n        /* \"https://github.com/OpenZeppelin/openzeppelin-contracts/blob/v4.1.0/contracts/token/ERC20/ERC20.sol\":9020:9038  _balances[account] */\n      0xffffffffffffffffffffffffffffffffffffffff\n      and\n      0xffffffffffffffffffffffffffffffffffffffff\n      and\n      dup2\n      mstore\n      0x20\n      add\n      swap1\n      dup2\n      mstore\n      0x20\n      add\n      0x00\n      keccak256\n        /* \"https://github.com/OpenZeppelin/openzeppelin-contracts/blob/v4.1.0/contracts/token/ERC20/ERC20.sol\":9020:9064  _balances[account] = accountBalance - amount */\n      dup2\n      swap1\n      sstore\n      pop\n        /* \"https://github.com/OpenZeppelin/openzeppelin-contracts/blob/v4.1.0/contracts/token/ERC20/ERC20.sol\":9090:9096  amount */\n      dup2\n        /* \"https://github.com/OpenZeppelin/openzeppelin-contracts/blob/v4.1.0/contracts/token/ERC20/ERC20.sol\":9074:9086  _totalSupply */\n      0x02\n      0x00\n        /* \"https://github.com/OpenZeppelin/openzeppelin-contracts/blob/v4.1.0/contracts/token/ERC20/ERC20.sol\":9074:9096  _totalSupply -= amount */\n      dup3\n      dup3\n      sload\n      tag_174\n      swap2\n      swap1\n      tag_100\n      jump\t// in\n    tag_174:\n      swap3\n      pop\n      pop\n      dup2\n      swap1\n      sstore\n      pop\n        /* \"https://github.com/OpenZeppelin/openzeppelin-contracts/blob/v4.1.0/contracts/token/ERC20/ERC20.sol\":9138:9139  0 */\n      0x00\n        /* \"https://github.com/OpenZeppelin/openzeppelin-contracts/blob/v4.1.0/contracts/token/ERC20/ERC20.sol\":9112:9149  Transfer(account, address(0), amount) */\n      0xffffffffffffffffffffffffffffffffffffffff\n      and\n        /* \"https://github.com/OpenZeppelin/openzeppelin-contracts/blob/v4.1.0/contracts/token/ERC20/ERC20.sol\":9121:9128  account */\n      dup4\n        /* \"https://github.com/OpenZeppelin/openzeppelin-contracts/blob/v4.1.0/contracts/token/ERC20/ERC20.sol\":9112:9149  Transfer(account, address(0), amount) */\n      0xffffffffffffffffffffffffffffffffffffffff\n      and\n      0xddf252ad1be2c89b69c2b068fc378daa952ba7f163c4a11628f55a4df523b3ef\n        /* \"https://github.com/OpenZeppelin/openzeppelin-contracts/blob/v4.1.0/contracts/token/ERC20/ERC20.sol\":9142:9148  amount */\n      dup5\n        /* \"https://github.com/OpenZeppelin/openzeppelin-contracts/blob/v4.1.0/contracts/token/ERC20/ERC20.sol\":9112:9149  Transfer(account, address(0), amount) */\n      mload(0x40)\n      tag_175\n      swap2\n      swap1\n      tag_33\n      jump\t// in\n    tag_175:\n      mload(0x40)\n      dup1\n      swap2\n      sub\n      swap1\n      log3\n        /* \"https://github.com/OpenZeppelin/openzeppelin-contracts/blob/v4.1.0/contracts/token/ERC20/ERC20.sol\":8738:9156  {... */\n      pop\n        /* \"https://github.com/OpenZeppelin/openzeppelin-contracts/blob/v4.1.0/contracts/token/ERC20/ERC20.sol\":8673:9156  function _burn(address account, uint256 amount) internal virtual {... */\n      pop\n      pop\n      jump\t// out\n        /* \"contracts/MyToken.sol\":532:663  function _beforeTokenTransfer(address from, address to, uint256 amount) internal override\r... */\n    tag_150:\n        /* \"contracts/MyToken.sol\":656:657  1 */\n      0x01\n        /* \"contracts/MyToken.sol\":632:652  token_transfer_count */\n      0x05\n      0x00\n        /* \"contracts/MyToken.sol\":632:657  token_transfer_count += 1 */\n      dup3\n      dup3\n      sload\n      tag_177\n      swap2\n      swap1\n      tag_107\n      jump\t// in\n    tag_177:\n      swap3\n      pop\n      pop\n      dup2\n      swap1\n      sstore\n      pop\n        /* \"contracts/MyToken.sol\":532:663  function _beforeTokenTransfer(address from, address to, uint256 amount) internal override\r... */\n      pop\n      pop\n      pop\n      jump\t// out\n        /* \"#utility.yul\":7:146   */\n    tag_179:\n        /* \"#utility.yul\":53:58   */\n      0x00\n        /* \"#utility.yul\":91:97   */\n      dup2\n        /* \"#utility.yul\":78:98   */\n      calldataload\n        /* \"#utility.yul\":69:98   */\n      swap1\n      pop\n        /* \"#utility.yul\":107:140   */\n      tag_181\n        /* \"#utility.yul\":134:139   */\n      dup2\n        /* \"#utility.yul\":107:140   */\n      tag_182\n      jump\t// in\n    tag_181:\n        /* \"#utility.yul\":59:146   */\n      swap3\n      swap2\n      pop\n      pop\n      jump\t// out\n        /* \"#utility.yul\":152:291   */\n    tag_183:\n        /* \"#utility.yul\":198:203   */\n      0x00\n        /* \"#utility.yul\":236:242   */\n      dup2\n        /* \"#utility.yul\":223:243   */\n      calldataload\n        /* \"#utility.yul\":214:243   */\n      swap1\n      pop\n        /* \"#utility.yul\":252:285   */\n      tag_185\n        /* \"#utility.yul\":279:284   */\n      dup2\n        /* \"#utility.yul\":252:285   */\n      tag_186\n      jump\t// in\n    tag_185:\n        /* \"#utility.yul\":204:291   */\n      swap3\n      swap2\n      pop\n      pop\n      jump\t// out\n        /* \"#utility.yul\":297:626   */\n    tag_55:\n        /* \"#utility.yul\":356:362   */\n      0x00\n        /* \"#utility.yul\":405:407   */\n      0x20\n        /* \"#utility.yul\":393:402   */\n      dup3\n        /* \"#utility.yul\":384:391   */\n      dup5\n        /* \"#utility.yul\":380:403   */\n      sub\n        /* \"#utility.yul\":376:408   */\n      slt\n        /* \"#utility.yul\":373:375   */\n      iszero\n      tag_188\n      jumpi\n        /* \"#utility.yul\":411:490   */\n      tag_189\n      tag_190\n      jump\t// in\n    tag_189:\n        /* \"#utility.yul\":373:375   */\n    tag_188:\n        /* \"#utility.yul\":531:532   */\n      0x00\n        /* \"#utility.yul\":556:609   */\n      tag_191\n        /* \"#utility.yul\":601:608   */\n      dup5\n        /* \"#utility.yul\":592:598   */\n      dup3\n        /* \"#utility.yul\":581:590   */\n      dup6\n        /* \"#utility.yul\":577:599   */\n      add\n        /* \"#utility.yul\":556:609   */\n      tag_179\n      jump\t// in\n    tag_191:\n        /* \"#utility.yul\":546:609   */\n      swap2\n      pop\n        /* \"#utility.yul\":502:619   */\n      pop\n        /* \"#utility.yul\":363:626   */\n      swap3\n      swap2\n      pop\n      pop\n      jump\t// out\n        /* \"#utility.yul\":632:1106   */\n    tag_74:\n        /* \"#utility.yul\":700:706   */\n      0x00\n        /* \"#utility.yul\":708:714   */\n      dup1\n        /* \"#utility.yul\":757:759   */\n      0x40\n        /* \"#utility.yul\":745:754   */\n      dup4\n        /* \"#utility.yul\":736:743   */\n      dup6\n        /* \"#utility.yul\":732:755   */\n      sub\n        /* \"#utility.yul\":728:760   */\n      slt\n        /* \"#utility.yul\":725:727   */\n      iszero\n      tag_193\n      jumpi\n        /* \"#utility.yul\":763:842   */\n      tag_194\n      tag_190\n      jump\t// in\n    tag_194:\n        /* \"#utility.yul\":725:727   */\n    tag_193:\n        /* \"#utility.yul\":883:884   */\n      0x00\n        /* \"#utility.yul\":908:961   */\n      tag_195\n        /* \"#utility.yul\":953:960   */\n      dup6\n        /* \"#utility.yul\":944:950   */\n      dup3\n        /* \"#utility.yul\":933:942   */\n      dup7\n        /* \"#utility.yul\":929:951   */\n      add\n        /* \"#utility.yul\":908:961   */\n      tag_179\n      jump\t// in\n    tag_195:\n        /* \"#utility.yul\":898:961   */\n      swap3\n      pop\n        /* \"#utility.yul\":854:971   */\n      pop\n        /* \"#utility.yul\":1010:1012   */\n      0x20\n        /* \"#utility.yul\":1036:1089   */\n      tag_196\n        /* \"#utility.yul\":1081:1088   */\n      dup6\n        /* \"#utility.yul\":1072:1078   */\n      dup3\n        /* \"#utility.yul\":1061:1070   */\n      dup7\n        /* \"#utility.yul\":1057:1079   */\n      add\n        /* \"#utility.yul\":1036:1089   */\n      tag_179\n      jump\t// in\n    tag_196:\n        /* \"#utility.yul\":1026:1089   */\n      swap2\n      pop\n        /* \"#utility.yul\":981:1099   */\n      pop\n        /* \"#utility.yul\":715:1106   */\n      swap3\n      pop\n      swap3\n      swap1\n      pop\n      jump\t// out\n        /* \"#utility.yul\":1112:1731   */\n    tag_39:\n        /* \"#utility.yul\":1189:1195   */\n      0x00\n        /* \"#utility.yul\":1197:1203   */\n      dup1\n        /* \"#utility.yul\":1205:1211   */\n      0x00\n        /* \"#utility.yul\":1254:1256   */\n      0x60\n        /* \"#utility.yul\":1242:1251   */\n      dup5\n        /* \"#utility.yul\":1233:1240   */\n      dup7\n        /* \"#utility.yul\":1229:1252   */\n      sub\n        /* \"#utility.yul\":1225:1257   */\n      slt\n        /* \"#utility.yul\":1222:1224   */\n      iszero\n      tag_198\n      jumpi\n        /* \"#utility.yul\":1260:1339   */\n      tag_199\n      tag_190\n      jump\t// in\n    tag_199:\n        /* \"#utility.yul\":1222:1224   */\n    tag_198:\n        /* \"#utility.yul\":1380:1381   */\n      0x00\n        /* \"#utility.yul\":1405:1458   */\n      tag_200\n        /* \"#utility.yul\":1450:1457   */\n      dup7\n        /* \"#utility.yul\":1441:1447   */\n      dup3\n        /* \"#utility.yul\":1430:1439   */\n      dup8\n        /* \"#utility.yul\":1426:1448   */\n      add\n        /* \"#utility.yul\":1405:1458   */\n      tag_179\n      jump\t// in\n    tag_200:\n        /* \"#utility.yul\":1395:1458   */\n      swap4\n      pop\n        /* \"#utility.yul\":1351:1468   */\n      pop\n        /* \"#utility.yul\":1507:1509   */\n      0x20\n        /* \"#utility.yul\":1533:1586   */\n      tag_201\n        /* \"#utility.yul\":1578:1585   */\n      dup7\n        /* \"#utility.yul\":1569:1575   */\n      dup3\n        /* \"#utility.yul\":1558:1567   */\n      dup8\n        /* \"#utility.yul\":1554:1576   */\n      add\n        /* \"#utility.yul\":1533:1586   */\n      tag_179\n      jump\t// in\n    tag_201:\n        /* \"#utility.yul\":1523:1586   */\n      swap3\n      pop\n        /* \"#utility.yul\":1478:1596   */\n      pop\n        /* \"#utility.yul\":1635:1637   */\n      0x40\n        /* \"#utility.yul\":1661:1714   */\n      tag_202\n        /* \"#utility.yul\":1706:1713   */\n      dup7\n        /* \"#utility.yul\":1697:1703   */\n      dup3\n        /* \"#utility.yul\":1686:1695   */\n      dup8\n        /* \"#utility.yul\":1682:1704   */\n      add\n        /* \"#utility.yul\":1661:1714   */\n      tag_183\n      jump\t// in\n    tag_202:\n        /* \"#utility.yul\":1651:1714   */\n      swap2\n      pop\n        /* \"#utility.yul\":1606:1724   */\n      pop\n        /* \"#utility.yul\":1212:1731   */\n      swap3\n      pop\n      swap3\n      pop\n      swap3\n      jump\t// out\n        /* \"#utility.yul\":1737:2211   */\n    tag_26:\n        /* \"#utility.yul\":1805:1811   */\n      0x00\n        /* \"#utility.yul\":1813:1819   */\n      dup1\n        /* \"#utility.yul\":1862:1864   */\n      0x40\n        /* \"#utility.yul\":1850:1859   */\n      dup4\n        /* \"#utility.yul\":1841:1848   */\n      dup6\n        /* \"#utility.yul\":1837:1860   */\n      sub\n        /* \"#utility.yul\":1833:1865   */\n      slt\n        /* \"#utility.yul\":1830:1832   */\n      iszero\n      tag_204\n      jumpi\n        /* \"#utility.yul\":1868:1947   */\n      tag_205\n      tag_190\n      jump\t// in\n    tag_205:\n        /* \"#utility.yul\":1830:1832   */\n    tag_204:\n        /* \"#utility.yul\":1988:1989   */\n      0x00\n        /* \"#utility.yul\":2013:2066   */\n      tag_206\n        /* \"#utility.yul\":2058:2065   */\n      dup6\n        /* \"#utility.yul\":2049:2055   */\n      dup3\n        /* \"#utility.yul\":2038:2047   */\n      dup7\n        /* \"#utility.yul\":2034:2056   */\n      add\n        /* \"#utility.yul\":2013:2066   */\n      tag_179\n      jump\t// in\n    tag_206:\n        /* \"#utility.yul\":2003:2066   */\n      swap3\n      pop\n        /* \"#utility.yul\":1959:2076   */\n      pop\n        /* \"#utility.yul\":2115:2117   */\n      0x20\n        /* \"#utility.yul\":2141:2194   */\n      tag_207\n        /* \"#utility.yul\":2186:2193   */\n      dup6\n        /* \"#utility.yul\":2177:2183   */\n      dup3\n        /* \"#utility.yul\":2166:2175   */\n      dup7\n        /* \"#utility.yul\":2162:2184   */\n      add\n        /* \"#utility.yul\":2141:2194   */\n      tag_183\n      jump\t// in\n    tag_207:\n        /* \"#utility.yul\":2131:2194   */\n      swap2\n      pop\n        /* \"#utility.yul\":2086:2204   */\n      pop\n        /* \"#utility.yul\":1820:2211   */\n      swap3\n      pop\n      swap3\n      swap1\n      pop\n      jump\t// out\n        /* \"#utility.yul\":2217:2326   */\n    tag_208:\n        /* \"#utility.yul\":2298:2319   */\n      tag_210\n        /* \"#utility.yul\":2313:2318   */\n      dup2\n        /* \"#utility.yul\":2298:2319   */\n      tag_211\n      jump\t// in\n    tag_210:\n        /* \"#utility.yul\":2293:2296   */\n      dup3\n        /* \"#utility.yul\":2286:2320   */\n      mstore\n        /* \"#utility.yul\":2276:2326   */\n      pop\n      pop\n      jump\t// out\n        /* \"#utility.yul\":2332:2696   */\n    tag_212:\n        /* \"#utility.yul\":2420:2423   */\n      0x00\n        /* \"#utility.yul\":2448:2487   */\n      tag_214\n        /* \"#utility.yul\":2481:2486   */\n      dup3\n        /* \"#utility.yul\":2448:2487   */\n      tag_215\n      jump\t// in\n    tag_214:\n        /* \"#utility.yul\":2503:2574   */\n      tag_216\n        /* \"#utility.yul\":2567:2573   */\n      dup2\n        /* \"#utility.yul\":2562:2565   */\n      dup6\n        /* \"#utility.yul\":2503:2574   */\n      tag_217\n      jump\t// in\n    tag_216:\n        /* \"#utility.yul\":2496:2574   */\n      swap4\n      pop\n        /* \"#utility.yul\":2583:2635   */\n      tag_218\n        /* \"#utility.yul\":2628:2634   */\n      dup2\n        /* \"#utility.yul\":2623:2626   */\n      dup6\n        /* \"#utility.yul\":2616:2620   */\n      0x20\n        /* \"#utility.yul\":2609:2614   */\n      dup7\n        /* \"#utility.yul\":2605:2621   */\n      add\n        /* \"#utility.yul\":2583:2635   */\n      tag_219\n      jump\t// in\n    tag_218:\n        /* \"#utility.yul\":2660:2689   */\n      tag_220\n        /* \"#utility.yul\":2682:2688   */\n      dup2\n        /* \"#utility.yul\":2660:2689   */\n      tag_221\n      jump\t// in\n    tag_220:\n        /* \"#utility.yul\":2655:2658   */\n      dup5\n        /* \"#utility.yul\":2651:2690   */\n      add\n        /* \"#utility.yul\":2644:2690   */\n      swap2\n      pop\n        /* \"#utility.yul\":2424:2696   */\n      pop\n      swap3\n      swap2\n      pop\n      pop\n      jump\t// out\n        /* \"#utility.yul\":2702:3068   */\n    tag_222:\n        /* \"#utility.yul\":2844:2847   */\n      0x00\n        /* \"#utility.yul\":2865:2932   */\n      tag_224\n        /* \"#utility.yul\":2929:2931   */\n      0x23\n        /* \"#utility.yul\":2924:2927   */\n      dup4\n        /* \"#utility.yul\":2865:2932   */\n      tag_217\n      jump\t// in\n    tag_224:\n        /* \"#utility.yul\":2858:2932   */\n      swap2\n      pop\n        /* \"#utility.yul\":2941:3034   */\n      tag_225\n        /* \"#utility.yul\":3030:3033   */\n      dup3\n        /* \"#utility.yul\":2941:3034   */\n      tag_226\n      jump\t// in\n    tag_225:\n        /* \"#utility.yul\":3059:3061   */\n      0x40\n        /* \"#utility.yul\":3054:3057   */\n      dup3\n        /* \"#utility.yul\":3050:3062   */\n      add\n        /* \"#utility.yul\":3043:3062   */\n      swap1\n      pop\n        /* \"#utility.yul\":2848:3068   */\n      swap2\n      swap1\n      pop\n      jump\t// out\n        /* \"#utility.yul\":3074:3440   */\n    tag_227:\n        /* \"#utility.yul\":3216:3219   */\n      0x00\n        /* \"#utility.yul\":3237:3304   */\n      tag_229\n        /* \"#utility.yul\":3301:3303   */\n      0x22\n        /* \"#utility.yul\":3296:3299   */\n      dup4\n        /* \"#utility.yul\":3237:3304   */\n      tag_217\n      jump\t// in\n    tag_229:\n        /* \"#utility.yul\":3230:3304   */\n      swap2\n      pop\n        /* \"#utility.yul\":3313:3406   */\n      tag_230\n        /* \"#utility.yul\":3402:3405   */\n      dup3\n        /* \"#utility.yul\":3313:3406   */\n      tag_231\n      jump\t// in\n    tag_230:\n        /* \"#utility.yul\":3431:3433   */\n      0x40\n        /* \"#utility.yul\":3426:3429   */\n      dup3\n        /* \"#utility.yul\":3422:3434   */\n      add\n        /* \"#utility.yul\":3415:3434   */\n      swap1\n      pop\n        /* \"#utility.yul\":3220:3440   */\n      swap2\n      swap1\n      pop\n      jump\t// out\n        /* \"#utility.yul\":3446:3812   */\n    tag_232:\n        /* \"#utility.yul\":3588:3591   */\n      0x00\n        /* \"#utility.yul\":3609:3676   */\n      tag_234\n        /* \"#utility.yul\":3673:3675   */\n      0x22\n        /* \"#utility.yul\":3668:3671   */\n      dup4\n        /* \"#utility.yul\":3609:3676   */\n      tag_217\n      jump\t// in\n    tag_234:\n        /* \"#utility.yul\":3602:3676   */\n      swap2\n      pop\n        /* \"#utility.yul\":3685:3778   */\n      tag_235\n        /* \"#utility.yul\":3774:3777   */\n      dup3\n        /* \"#utility.yul\":3685:3778   */\n      tag_236\n      jump\t// in\n    tag_235:\n        /* \"#utility.yul\":3803:3805   */\n      0x40\n        /* \"#utility.yul\":3798:3801   */\n      dup3\n        /* \"#utility.yul\":3794:3806   */\n      add\n        /* \"#utility.yul\":3787:3806   */\n      swap1\n      pop\n        /* \"#utility.yul\":3592:3812   */\n      swap2\n      swap1\n      pop\n      jump\t// out\n        /* \"#utility.yul\":3818:4184   */\n    tag_237:\n        /* \"#utility.yul\":3960:3963   */\n      0x00\n        /* \"#utility.yul\":3981:4048   */\n      tag_239\n        /* \"#utility.yul\":4045:4047   */\n      0x26\n        /* \"#utility.yul\":4040:4043   */\n      dup4\n        /* \"#utility.yul\":3981:4048   */\n      tag_217\n      jump\t// in\n    tag_239:\n        /* \"#utility.yul\":3974:4048   */\n      swap2\n      pop\n        /* \"#utility.yul\":4057:4150   */\n      tag_240\n        /* \"#utility.yul\":4146:4149   */\n      dup3\n        /* \"#utility.yul\":4057:4150   */\n      tag_241\n      jump\t// in\n    tag_240:\n        /* \"#utility.yul\":4175:4177   */\n      0x40\n        /* \"#utility.yul\":4170:4173   */\n      dup3\n        /* \"#utility.yul\":4166:4178   */\n      add\n        /* \"#utility.yul\":4159:4178   */\n      swap1\n      pop\n        /* \"#utility.yul\":3964:4184   */\n      swap2\n      swap1\n      pop\n      jump\t// out\n        /* \"#utility.yul\":4190:4556   */\n    tag_242:\n        /* \"#utility.yul\":4332:4335   */\n      0x00\n        /* \"#utility.yul\":4353:4420   */\n      tag_244\n        /* \"#utility.yul\":4417:4419   */\n      0x28\n        /* \"#utility.yul\":4412:4415   */\n      dup4\n        /* \"#utility.yul\":4353:4420   */\n      tag_217\n      jump\t// in\n    tag_244:\n        /* \"#utility.yul\":4346:4420   */\n      swap2\n      pop\n        /* \"#utility.yul\":4429:4522   */\n      tag_245\n        /* \"#utility.yul\":4518:4521   */\n      dup3\n        /* \"#utility.yul\":4429:4522   */\n      tag_246\n      jump\t// in\n    tag_245:\n        /* \"#utility.yul\":4547:4549   */\n      0x40\n        /* \"#utility.yul\":4542:4545   */\n      dup3\n        /* \"#utility.yul\":4538:4550   */\n      add\n        /* \"#utility.yul\":4531:4550   */\n      swap1\n      pop\n        /* \"#utility.yul\":4336:4556   */\n      swap2\n      swap1\n      pop\n      jump\t// out\n        /* \"#utility.yul\":4562:4928   */\n    tag_247:\n        /* \"#utility.yul\":4704:4707   */\n      0x00\n        /* \"#utility.yul\":4725:4792   */\n      tag_249\n        /* \"#utility.yul\":4789:4791   */\n      0x21\n        /* \"#utility.yul\":4784:4787   */\n      dup4\n        /* \"#utility.yul\":4725:4792   */\n      tag_217\n      jump\t// in\n    tag_249:\n        /* \"#utility.yul\":4718:4792   */\n      swap2\n      pop\n        /* \"#utility.yul\":4801:4894   */\n      tag_250\n        /* \"#utility.yul\":4890:4893   */\n      dup3\n        /* \"#utility.yul\":4801:4894   */\n      tag_251\n      jump\t// in\n    tag_250:\n        /* \"#utility.yul\":4919:4921   */\n      0x40\n        /* \"#utility.yul\":4914:4917   */\n      dup3\n        /* \"#utility.yul\":4910:4922   */\n      add\n        /* \"#utility.yul\":4903:4922   */\n      swap1\n      pop\n        /* \"#utility.yul\":4708:4928   */\n      swap2\n      swap1\n      pop\n      jump\t// out\n        /* \"#utility.yul\":4934:5300   */\n    tag_252:\n        /* \"#utility.yul\":5076:5079   */\n      0x00\n        /* \"#utility.yul\":5097:5164   */\n      tag_254\n        /* \"#utility.yul\":5161:5163   */\n      0x25\n        /* \"#utility.yul\":5156:5159   */\n      dup4\n        /* \"#utility.yul\":5097:5164   */\n      tag_217\n      jump\t// in\n    tag_254:\n        /* \"#utility.yul\":5090:5164   */\n      swap2\n      pop\n        /* \"#utility.yul\":5173:5266   */\n      tag_255\n        /* \"#utility.yul\":5262:5265   */\n      dup3\n        /* \"#utility.yul\":5173:5266   */\n      tag_256\n      jump\t// in\n    tag_255:\n        /* \"#utility.yul\":5291:5293   */\n      0x40\n        /* \"#utility.yul\":5286:5289   */\n      dup3\n        /* \"#utility.yul\":5282:5294   */\n      add\n        /* \"#utility.yul\":5275:5294   */\n      swap1\n      pop\n        /* \"#utility.yul\":5080:5300   */\n      swap2\n      swap1\n      pop\n      jump\t// out\n        /* \"#utility.yul\":5306:5672   */\n    tag_257:\n        /* \"#utility.yul\":5448:5451   */\n      0x00\n        /* \"#utility.yul\":5469:5536   */\n      tag_259\n        /* \"#utility.yul\":5533:5535   */\n      0x24\n        /* \"#utility.yul\":5528:5531   */\n      dup4\n        /* \"#utility.yul\":5469:5536   */\n      tag_217\n      jump\t// in\n    tag_259:\n        /* \"#utility.yul\":5462:5536   */\n      swap2\n      pop\n        /* \"#utility.yul\":5545:5638   */\n      tag_260\n        /* \"#utility.yul\":5634:5637   */\n      dup3\n        /* \"#utility.yul\":5545:5638   */\n      tag_261\n      jump\t// in\n    tag_260:\n        /* \"#utility.yul\":5663:5665   */\n      0x40\n        /* \"#utility.yul\":5658:5661   */\n      dup3\n        /* \"#utility.yul\":5654:5666   */\n      add\n        /* \"#utility.yul\":5647:5666   */\n      swap1\n      pop\n        /* \"#utility.yul\":5452:5672   */\n      swap2\n      swap1\n      pop\n      jump\t// out\n        /* \"#utility.yul\":5678:6044   */\n    tag_262:\n        /* \"#utility.yul\":5820:5823   */\n      0x00\n        /* \"#utility.yul\":5841:5908   */\n      tag_264\n        /* \"#utility.yul\":5905:5907   */\n      0x25\n        /* \"#utility.yul\":5900:5903   */\n      dup4\n        /* \"#utility.yul\":5841:5908   */\n      tag_217\n      jump\t// in\n    tag_264:\n        /* \"#utility.yul\":5834:5908   */\n      swap2\n      pop\n        /* \"#utility.yul\":5917:6010   */\n      tag_265\n        /* \"#utility.yul\":6006:6009   */\n      dup3\n        /* \"#utility.yul\":5917:6010   */\n      tag_266\n      jump\t// in\n    tag_265:\n        /* \"#utility.yul\":6035:6037   */\n      0x40\n        /* \"#utility.yul\":6030:6033   */\n      dup3\n        /* \"#utility.yul\":6026:6038   */\n      add\n        /* \"#utility.yul\":6019:6038   */\n      swap1\n      pop\n        /* \"#utility.yul\":5824:6044   */\n      swap2\n      swap1\n      pop\n      jump\t// out\n        /* \"#utility.yul\":6050:6416   */\n    tag_267:\n        /* \"#utility.yul\":6192:6195   */\n      0x00\n        /* \"#utility.yul\":6213:6280   */\n      tag_269\n        /* \"#utility.yul\":6277:6279   */\n      0x1f\n        /* \"#utility.yul\":6272:6275   */\n      dup4\n        /* \"#utility.yul\":6213:6280   */\n      tag_217\n      jump\t// in\n    tag_269:\n        /* \"#utility.yul\":6206:6280   */\n      swap2\n      pop\n        /* \"#utility.yul\":6289:6382   */\n      tag_270\n        /* \"#utility.yul\":6378:6381   */\n      dup3\n        /* \"#utility.yul\":6289:6382   */\n      tag_271\n      jump\t// in\n    tag_270:\n        /* \"#utility.yul\":6407:6409   */\n      0x20\n        /* \"#utility.yul\":6402:6405   */\n      dup3\n        /* \"#utility.yul\":6398:6410   */\n      add\n        /* \"#utility.yul\":6391:6410   */\n      swap1\n      pop\n        /* \"#utility.yul\":6196:6416   */\n      swap2\n      swap1\n      pop\n      jump\t// out\n        /* \"#utility.yul\":6422:6540   */\n    tag_272:\n        /* \"#utility.yul\":6509:6533   */\n      tag_274\n        /* \"#utility.yul\":6527:6532   */\n      dup2\n        /* \"#utility.yul\":6509:6533   */\n      tag_275\n      jump\t// in\n    tag_274:\n        /* \"#utility.yul\":6504:6507   */\n      dup3\n        /* \"#utility.yul\":6497:6534   */\n      mstore\n        /* \"#utility.yul\":6487:6540   */\n      pop\n      pop\n      jump\t// out\n        /* \"#utility.yul\":6546:6658   */\n    tag_276:\n        /* \"#utility.yul\":6629:6651   */\n      tag_278\n        /* \"#utility.yul\":6645:6650   */\n      dup2\n        /* \"#utility.yul\":6629:6651   */\n      tag_279\n      jump\t// in\n    tag_278:\n        /* \"#utility.yul\":6624:6627   */\n      dup3\n        /* \"#utility.yul\":6617:6652   */\n      mstore\n        /* \"#utility.yul\":6607:6658   */\n      pop\n      pop\n      jump\t// out\n        /* \"#utility.yul\":6664:6874   */\n    tag_29:\n        /* \"#utility.yul\":6751:6755   */\n      0x00\n        /* \"#utility.yul\":6789:6791   */\n      0x20\n        /* \"#utility.yul\":6778:6787   */\n      dup3\n        /* \"#utility.yul\":6774:6792   */\n      add\n        /* \"#utility.yul\":6766:6792   */\n      swap1\n      pop\n        /* \"#utility.yul\":6802:6867   */\n      tag_281\n        /* \"#utility.yul\":6864:6865   */\n      0x00\n        /* \"#utility.yul\":6853:6862   */\n      dup4\n        /* \"#utility.yul\":6849:6866   */\n      add\n        /* \"#utility.yul\":6840:6846   */\n      dup5\n        /* \"#utility.yul\":6802:6867   */\n      tag_208\n      jump\t// in\n    tag_281:\n        /* \"#utility.yul\":6756:6874   */\n      swap3\n      swap2\n      pop\n      pop\n      jump\t// out\n        /* \"#utility.yul\":6880:7193   */\n    tag_23:\n        /* \"#utility.yul\":6993:6997   */\n      0x00\n        /* \"#utility.yul\":7031:7033   */\n      0x20\n        /* \"#utility.yul\":7020:7029   */\n      dup3\n        /* \"#utility.yul\":7016:7034   */\n      add\n        /* \"#utility.yul\":7008:7034   */\n      swap1\n      pop\n        /* \"#utility.yul\":7080:7089   */\n      dup2\n        /* \"#utility.yul\":7074:7078   */\n      dup2\n        /* \"#utility.yul\":7070:7090   */\n      sub\n        /* \"#utility.yul\":7066:7067   */\n      0x00\n        /* \"#utility.yul\":7055:7064   */\n      dup4\n        /* \"#utility.yul\":7051:7068   */\n      add\n        /* \"#utility.yul\":7044:7091   */\n      mstore\n        /* \"#utility.yul\":7108:7186   */\n      tag_283\n        /* \"#utility.yul\":7181:7185   */\n      dup2\n        /* \"#utility.yul\":7172:7178   */\n      dup5\n        /* \"#utility.yul\":7108:7186   */\n      tag_212\n      jump\t// in\n    tag_283:\n        /* \"#utility.yul\":7100:7186   */\n      swap1\n      pop\n        /* \"#utility.yul\":6998:7193   */\n      swap3\n      swap2\n      pop\n      pop\n      jump\t// out\n        /* \"#utility.yul\":7199:7618   */\n    tag_148:\n        /* \"#utility.yul\":7365:7369   */\n      0x00\n        /* \"#utility.yul\":7403:7405   */\n      0x20\n        /* \"#utility.yul\":7392:7401   */\n      dup3\n        /* \"#utility.yul\":7388:7406   */\n      add\n        /* \"#utility.yul\":7380:7406   */\n      swap1\n      pop\n        /* \"#utility.yul\":7452:7461   */\n      dup2\n        /* \"#utility.yul\":7446:7450   */\n      dup2\n        /* \"#utility.yul\":7442:7462   */\n      sub\n        /* \"#utility.yul\":7438:7439   */\n      0x00\n        /* \"#utility.yul\":7427:7436   */\n      dup4\n        /* \"#utility.yul\":7423:7440   */\n      add\n        /* \"#utility.yul\":7416:7463   */\n      mstore\n        /* \"#utility.yul\":7480:7611   */\n      tag_285\n        /* \"#utility.yul\":7606:7610   */\n      dup2\n        /* \"#utility.yul\":7480:7611   */\n      tag_222\n      jump\t// in\n    tag_285:\n        /* \"#utility.yul\":7472:7611   */\n      swap1\n      pop\n        /* \"#utility.yul\":7370:7618   */\n      swap2\n      swap1\n      pop\n      jump\t// out\n        /* \"#utility.yul\":7624:8043   */\n    tag_172:\n        /* \"#utility.yul\":7790:7794   */\n      0x00\n        /* \"#utility.yul\":7828:7830   */\n      0x20\n        /* \"#utility.yul\":7817:7826   */\n      dup3\n        /* \"#utility.yul\":7813:7831   */\n      add\n        /* \"#utility.yul\":7805:7831   */\n      swap1\n      pop\n        /* \"#utility.yul\":7877:7886   */\n      dup2\n        /* \"#utility.yul\":7871:7875   */\n      dup2\n        /* \"#utility.yul\":7867:7887   */\n      sub\n        /* \"#utility.yul\":7863:7864   */\n      0x00\n        /* \"#utility.yul\":7852:7861   */\n      dup4\n        /* \"#utility.yul\":7848:7865   */\n      add\n        /* \"#utility.yul\":7841:7888   */\n      mstore\n        /* \"#utility.yul\":7905:8036   */\n      tag_287\n        /* \"#utility.yul\":8031:8035   */\n      dup2\n        /* \"#utility.yul\":7905:8036   */\n      tag_227\n      jump\t// in\n    tag_287:\n        /* \"#utility.yul\":7897:8036   */\n      swap1\n      pop\n        /* \"#utility.yul\":7795:8043   */\n      swap2\n      swap1\n      pop\n      jump\t// out\n        /* \"#utility.yul\":8049:8468   */\n    tag_140:\n        /* \"#utility.yul\":8215:8219   */\n      0x00\n        /* \"#utility.yul\":8253:8255   */\n      0x20\n        /* \"#utility.yul\":8242:8251   */\n      dup3\n        /* \"#utility.yul\":8238:8256   */\n      add\n        /* \"#utility.yul\":8230:8256   */\n      swap1\n      pop\n        /* \"#utility.yul\":8302:8311   */\n      dup2\n        /* \"#utility.yul\":8296:8300   */\n      dup2\n        /* \"#utility.yul\":8292:8312   */\n      sub\n        /* \"#utility.yul\":8288:8289   */\n      0x00\n        /* \"#utility.yul\":8277:8286   */\n      dup4\n        /* \"#utility.yul\":8273:8290   */\n      add\n        /* \"#utility.yul\":8266:8313   */\n      mstore\n        /* \"#utility.yul\":8330:8461   */\n      tag_289\n        /* \"#utility.yul\":8456:8460   */\n      dup2\n        /* \"#utility.yul\":8330:8461   */\n      tag_232\n      jump\t// in\n    tag_289:\n        /* \"#utility.yul\":8322:8461   */\n      swap1\n      pop\n        /* \"#utility.yul\":8220:8468   */\n      swap2\n      swap1\n      pop\n      jump\t// out\n        /* \"#utility.yul\":8474:8893   */\n    tag_153:\n        /* \"#utility.yul\":8640:8644   */\n      0x00\n        /* \"#utility.yul\":8678:8680   */\n      0x20\n        /* \"#utility.yul\":8667:8676   */\n      dup3\n        /* \"#utility.yul\":8663:8681   */\n      add\n        /* \"#utility.yul\":8655:8681   */\n      swap1\n      pop\n        /* \"#utility.yul\":8727:8736   */\n      dup2\n        /* \"#utility.yul\":8721:8725   */\n      dup2\n        /* \"#utility.yul\":8717:8737   */\n      sub\n        /* \"#utility.yul\":8713:8714   */\n      0x00\n        /* \"#utility.yul\":8702:8711   */\n      dup4\n        /* \"#utility.yul\":8698:8715   */\n      add\n        /* \"#utility.yul\":8691:8738   */\n      mstore\n        /* \"#utility.yul\":8755:8886   */\n      tag_291\n        /* \"#utility.yul\":8881:8885   */\n      dup2\n        /* \"#utility.yul\":8755:8886   */\n      tag_237\n      jump\t// in\n    tag_291:\n        /* \"#utility.yul\":8747:8886   */\n      swap1\n      pop\n        /* \"#utility.yul\":8645:8893   */\n      swap2\n      swap1\n      pop\n      jump\t// out\n        /* \"#utility.yul\":8899:9318   */\n    tag_96:\n        /* \"#utility.yul\":9065:9069   */\n      0x00\n        /* \"#utility.yul\":9103:9105   */\n      0x20\n        /* \"#utility.yul\":9092:9101   */\n      dup3\n        /* \"#utility.yul\":9088:9106   */\n      add\n        /* \"#utility.yul\":9080:9106   */\n      swap1\n      pop\n        /* \"#utility.yul\":9152:9161   */\n      dup2\n        /* \"#utility.yul\":9146:9150   */\n      dup2\n        /* \"#utility.yul\":9142:9162   */\n      sub\n        /* \"#utility.yul\":9138:9139   */\n      0x00\n        /* \"#utility.yul\":9127:9136   */\n      dup4\n        /* \"#utility.yul\":9123:9140   */\n      add\n        /* \"#utility.yul\":9116:9163   */\n      mstore\n        /* \"#utility.yul\":9180:9311   */\n      tag_293\n        /* \"#utility.yul\":9306:9310   */\n      dup2\n        /* \"#utility.yul\":9180:9311   */\n      tag_242\n      jump\t// in\n    tag_293:\n        /* \"#utility.yul\":9172:9311   */\n      swap1\n      pop\n        /* \"#utility.yul\":9070:9318   */\n      swap2\n      swap1\n      pop\n      jump\t// out\n        /* \"#utility.yul\":9324:9743   */\n    tag_168:\n        /* \"#utility.yul\":9490:9494   */\n      0x00\n        /* \"#utility.yul\":9528:9530   */\n      0x20\n        /* \"#utility.yul\":9517:9526   */\n      dup3\n        /* \"#utility.yul\":9513:9531   */\n      add\n        /* \"#utility.yul\":9505:9531   */\n      swap1\n      pop\n        /* \"#utility.yul\":9577:9586   */\n      dup2\n        /* \"#utility.yul\":9571:9575   */\n      dup2\n        /* \"#utility.yul\":9567:9587   */\n      sub\n        /* \"#utility.yul\":9563:9564   */\n      0x00\n        /* \"#utility.yul\":9552:9561   */\n      dup4\n        /* \"#utility.yul\":9548:9565   */\n      add\n        /* \"#utility.yul\":9541:9588   */\n      mstore\n        /* \"#utility.yul\":9605:9736   */\n      tag_295\n        /* \"#utility.yul\":9731:9735   */\n      dup2\n        /* \"#utility.yul\":9605:9736   */\n      tag_247\n      jump\t// in\n    tag_295:\n        /* \"#utility.yul\":9597:9736   */\n      swap1\n      pop\n        /* \"#utility.yul\":9495:9743   */\n      swap2\n      swap1\n      pop\n      jump\t// out\n        /* \"#utility.yul\":9749:10168   */\n    tag_145:\n        /* \"#utility.yul\":9915:9919   */\n      0x00\n        /* \"#utility.yul\":9953:9955   */\n      0x20\n        /* \"#utility.yul\":9942:9951   */\n      dup3\n        /* \"#utility.yul\":9938:9956   */\n      add\n        /* \"#utility.yul\":9930:9956   */\n      swap1\n      pop\n        /* \"#utility.yul\":10002:10011   */\n      dup2\n        /* \"#utility.yul\":9996:10000   */\n      dup2\n        /* \"#utility.yul\":9992:10012   */\n      sub\n        /* \"#utility.yul\":9988:9989   */\n      0x00\n        /* \"#utility.yul\":9977:9986   */\n      dup4\n        /* \"#utility.yul\":9973:9990   */\n      add\n        /* \"#utility.yul\":9966:10013   */\n      mstore\n        /* \"#utility.yul\":10030:10161   */\n      tag_297\n        /* \"#utility.yul\":10156:10160   */\n      dup2\n        /* \"#utility.yul\":10030:10161   */\n      tag_252\n      jump\t// in\n    tag_297:\n        /* \"#utility.yul\":10022:10161   */\n      swap1\n      pop\n        /* \"#utility.yul\":9920:10168   */\n      swap2\n      swap1\n      pop\n      jump\t// out\n        /* \"#utility.yul\":10174:10593   */\n    tag_137:\n        /* \"#utility.yul\":10340:10344   */\n      0x00\n        /* \"#utility.yul\":10378:10380   */\n      0x20\n        /* \"#utility.yul\":10367:10376   */\n      dup3\n        /* \"#utility.yul\":10363:10381   */\n      add\n        /* \"#utility.yul\":10355:10381   */\n      swap1\n      pop\n        /* \"#utility.yul\":10427:10436   */\n      dup2\n        /* \"#utility.yul\":10421:10425   */\n      dup2\n        /* \"#utility.yul\":10417:10437   */\n      sub\n        /* \"#utility.yul\":10413:10414   */\n      0x00\n        /* \"#utility.yul\":10402:10411   */\n      dup4\n        /* \"#utility.yul\":10398:10415   */\n      add\n        /* \"#utility.yul\":10391:10438   */\n      mstore\n        /* \"#utility.yul\":10455:10586   */\n      tag_299\n        /* \"#utility.yul\":10581:10585   */\n      dup2\n        /* \"#utility.yul\":10455:10586   */\n      tag_257\n      jump\t// in\n    tag_299:\n        /* \"#utility.yul\":10447:10586   */\n      swap1\n      pop\n        /* \"#utility.yul\":10345:10593   */\n      swap2\n      swap1\n      pop\n      jump\t// out\n        /* \"#utility.yul\":10599:11018   */\n    tag_125:\n        /* \"#utility.yul\":10765:10769   */\n      0x00\n        /* \"#utility.yul\":10803:10805   */\n      0x20\n        /* \"#utility.yul\":10792:10801   */\n      dup3\n        /* \"#utility.yul\":10788:10806   */\n      add\n        /* \"#utility.yul\":10780:10806   */\n      swap1\n      pop\n        /* \"#utility.yul\":10852:10861   */\n      dup2\n        /* \"#utility.yul\":10846:10850   */\n      dup2\n        /* \"#utility.yul\":10842:10862   */\n      sub\n        /* \"#utility.yul\":10838:10839   */\n      0x00\n        /* \"#utility.yul\":10827:10836   */\n      dup4\n        /* \"#utility.yul\":10823:10840   */\n      add\n        /* \"#utility.yul\":10816:10863   */\n      mstore\n        /* \"#utility.yul\":10880:11011   */\n      tag_301\n        /* \"#utility.yul\":11006:11010   */\n      dup2\n        /* \"#utility.yul\":10880:11011   */\n      tag_262\n      jump\t// in\n    tag_301:\n        /* \"#utility.yul\":10872:11011   */\n      swap1\n      pop\n        /* \"#utility.yul\":10770:11018   */\n      swap2\n      swap1\n      pop\n      jump\t// out\n        /* \"#utility.yul\":11024:11443   */\n    tag_160:\n        /* \"#utility.yul\":11190:11194   */\n      0x00\n        /* \"#utility.yul\":11228:11230   */\n      0x20\n        /* \"#utility.yul\":11217:11226   */\n      dup3\n        /* \"#utility.yul\":11213:11231   */\n      add\n        /* \"#utility.yul\":11205:11231   */\n      swap1\n      pop\n        /* \"#utility.yul\":11277:11286   */\n      dup2\n        /* \"#utility.yul\":11271:11275   */\n      dup2\n        /* \"#utility.yul\":11267:11287   */\n      sub\n        /* \"#utility.yul\":11263:11264   */\n      0x00\n        /* \"#utility.yul\":11252:11261   */\n      dup4\n        /* \"#utility.yul\":11248:11265   */\n      add\n        /* \"#utility.yul\":11241:11288   */\n      mstore\n        /* \"#utility.yul\":11305:11436   */\n      tag_303\n        /* \"#utility.yul\":11431:11435   */\n      dup2\n        /* \"#utility.yul\":11305:11436   */\n      tag_267\n      jump\t// in\n    tag_303:\n        /* \"#utility.yul\":11297:11436   */\n      swap1\n      pop\n        /* \"#utility.yul\":11195:11443   */\n      swap2\n      swap1\n      pop\n      jump\t// out\n        /* \"#utility.yul\":11449:11671   */\n    tag_33:\n        /* \"#utility.yul\":11542:11546   */\n      0x00\n        /* \"#utility.yul\":11580:11582   */\n      0x20\n        /* \"#utility.yul\":11569:11578   */\n      dup3\n        /* \"#utility.yul\":11565:11583   */\n      add\n        /* \"#utility.yul\":11557:11583   */\n      swap1\n      pop\n        /* \"#utility.yul\":11593:11664   */\n      tag_305\n        /* \"#utility.yul\":11661:11662   */\n      0x00\n        /* \"#utility.yul\":11650:11659   */\n      dup4\n        /* \"#utility.yul\":11646:11663   */\n      add\n        /* \"#utility.yul\":11637:11643   */\n      dup5\n        /* \"#utility.yul\":11593:11664   */\n      tag_272\n      jump\t// in\n    tag_305:\n        /* \"#utility.yul\":11547:11671   */\n      swap3\n      swap2\n      pop\n      pop\n      jump\t// out\n        /* \"#utility.yul\":11677:11891   */\n    tag_45:\n        /* \"#utility.yul\":11766:11770   */\n      0x00\n        /* \"#utility.yul\":11804:11806   */\n      0x20\n        /* \"#utility.yul\":11793:11802   */\n      dup3\n        /* \"#utility.yul\":11789:11807   */\n      add\n        /* \"#utility.yul\":11781:11807   */\n      swap1\n      pop\n        /* \"#utility.yul\":11817:11884   */\n      tag_307\n        /* \"#utility.yul\":11881:11882   */\n      0x00\n        /* \"#utility.yul\":11870:11879   */\n      dup4\n        /* \"#utility.yul\":11866:11883   */\n      add\n        /* \"#utility.yul\":11857:11863   */\n      dup5\n        /* \"#utility.yul\":11817:11884   */\n      tag_276\n      jump\t// in\n    tag_307:\n        /* \"#utility.yul\":11771:11891   */\n      swap3\n      swap2\n      pop\n      pop\n      jump\t// out\n        /* \"#utility.yul\":11978:12077   */\n    tag_215:\n        /* \"#utility.yul\":12030:12036   */\n      0x00\n        /* \"#utility.yul\":12064:12069   */\n      dup2\n        /* \"#utility.yul\":12058:12070   */\n      mload\n        /* \"#utility.yul\":12048:12070   */\n      swap1\n      pop\n        /* \"#utility.yul\":12037:12077   */\n      swap2\n      swap1\n      pop\n      jump\t// out\n        /* \"#utility.yul\":12083:12252   */\n    tag_217:\n        /* \"#utility.yul\":12167:12178   */\n      0x00\n        /* \"#utility.yul\":12201:12207   */\n      dup3\n        /* \"#utility.yul\":12196:12199   */\n      dup3\n        /* \"#utility.yul\":12189:12208   */\n      mstore\n        /* \"#utility.yul\":12241:12245   */\n      0x20\n        /* \"#utility.yul\":12236:12239   */\n      dup3\n        /* \"#utility.yul\":12232:12246   */\n      add\n        /* \"#utility.yul\":12217:12246   */\n      swap1\n      pop\n        /* \"#utility.yul\":12179:12252   */\n      swap3\n      swap2\n      pop\n      pop\n      jump\t// out\n        /* \"#utility.yul\":12258:12563   */\n    tag_107:\n        /* \"#utility.yul\":12298:12301   */\n      0x00\n        /* \"#utility.yul\":12317:12337   */\n      tag_313\n        /* \"#utility.yul\":12335:12336   */\n      dup3\n        /* \"#utility.yul\":12317:12337   */\n      tag_275\n      jump\t// in\n    tag_313:\n        /* \"#utility.yul\":12312:12337   */\n      swap2\n      pop\n        /* \"#utility.yul\":12351:12371   */\n      tag_314\n        /* \"#utility.yul\":12369:12370   */\n      dup4\n        /* \"#utility.yul\":12351:12371   */\n      tag_275\n      jump\t// in\n    tag_314:\n        /* \"#utility.yul\":12346:12371   */\n      swap3\n      pop\n        /* \"#utility.yul\":12505:12506   */\n      dup3\n        /* \"#utility.yul\":12437:12503   */\n      0xffffffffffffffffffffffffffffffffffffffffffffffffffffffffffffffff\n        /* \"#utility.yul\":12433:12507   */\n      sub\n        /* \"#utility.yul\":12430:12431   */\n      dup3\n        /* \"#utility.yul\":12427:12508   */\n      gt\n        /* \"#utility.yul\":12424:12426   */\n      iszero\n      tag_315\n      jumpi\n        /* \"#utility.yul\":12511:12529   */\n      tag_316\n      tag_317\n      jump\t// in\n    tag_316:\n        /* \"#utility.yul\":12424:12426   */\n    tag_315:\n        /* \"#utility.yul\":12555:12556   */\n      dup3\n        /* \"#utility.yul\":12552:12553   */\n      dup3\n        /* \"#utility.yul\":12548:12557   */\n      add\n        /* \"#utility.yul\":12541:12557   */\n      swap1\n      pop\n        /* \"#utility.yul\":12302:12563   */\n      swap3\n      swap2\n      pop\n      pop\n      jump\t// out\n        /* \"#utility.yul\":12569:12760   */\n    tag_100:\n        /* \"#utility.yul\":12609:12613   */\n      0x00\n        /* \"#utility.yul\":12629:12649   */\n      tag_319\n        /* \"#utility.yul\":12647:12648   */\n      dup3\n        /* \"#utility.yul\":12629:12649   */\n      tag_275\n      jump\t// in\n    tag_319:\n        /* \"#utility.yul\":12624:12649   */\n      swap2\n      pop\n        /* \"#utility.yul\":12663:12683   */\n      tag_320\n        /* \"#utility.yul\":12681:12682   */\n      dup4\n        /* \"#utility.yul\":12663:12683   */\n      tag_275\n      jump\t// in\n    tag_320:\n        /* \"#utility.yul\":12658:12683   */\n      swap3\n      pop\n        /* \"#utility.yul\":12702:12703   */\n      dup3\n        /* \"#utility.yul\":12699:12700   */\n      dup3\n        /* \"#utility.yul\":12696:12704   */\n      lt\n        /* \"#utility.yul\":12693:12695   */\n      iszero\n      tag_321\n      jumpi\n        /* \"#utility.yul\":12707:12725   */\n      tag_322\n      tag_317\n      jump\t// in\n    tag_322:\n        /* \"#utility.yul\":12693:12695   */\n    tag_321:\n        /* \"#utility.yul\":12752:12753   */\n      dup3\n        /* \"#utility.yul\":12749:12750   */\n      dup3\n        /* \"#utility.yul\":12745:12754   */\n      sub\n        /* \"#utility.yul\":12737:12754   */\n      swap1\n      pop\n        /* \"#utility.yul\":12614:12760   */\n      swap3\n      swap2\n      pop\n      pop\n      jump\t// out\n        /* \"#utility.yul\":12766:12862   */\n    tag_323:\n        /* \"#utility.yul\":12803:12810   */\n      0x00\n        /* \"#utility.yul\":12832:12856   */\n      tag_325\n        /* \"#utility.yul\":12850:12855   */\n      dup3\n        /* \"#utility.yul\":12832:12856   */\n      tag_326\n      jump\t// in\n    tag_325:\n        /* \"#utility.yul\":12821:12856   */\n      swap1\n      pop\n        /* \"#utility.yul\":12811:12862   */\n      swap2\n      swap1\n      pop\n      jump\t// out\n        /* \"#utility.yul\":12868:12958   */\n    tag_211:\n        /* \"#utility.yul\":12902:12909   */\n      0x00\n        /* \"#utility.yul\":12945:12950   */\n      dup2\n        /* \"#utility.yul\":12938:12951   */\n      iszero\n        /* \"#utility.yul\":12931:12952   */\n      iszero\n        /* \"#utility.yul\":12920:12952   */\n      swap1\n      pop\n        /* \"#utility.yul\":12910:12958   */\n      swap2\n      swap1\n      pop\n      jump\t// out\n        /* \"#utility.yul\":12964:13090   */\n    tag_326:\n        /* \"#utility.yul\":13001:13008   */\n      0x00\n        /* \"#utility.yul\":13041:13083   */\n      0xffffffffffffffffffffffffffffffffffffffff\n        /* \"#utility.yul\":13034:13039   */\n      dup3\n        /* \"#utility.yul\":13030:13084   */\n      and\n        /* \"#utility.yul\":13019:13084   */\n      swap1\n      pop\n        /* \"#utility.yul\":13009:13090   */\n      swap2\n      swap1\n      pop\n      jump\t// out\n        /* \"#utility.yul\":13096:13173   */\n    tag_275:\n        /* \"#utility.yul\":13133:13140   */\n      0x00\n        /* \"#utility.yul\":13162:13167   */\n      dup2\n        /* \"#utility.yul\":13151:13167   */\n      swap1\n      pop\n        /* \"#utility.yul\":13141:13173   */\n      swap2\n      swap1\n      pop\n      jump\t// out\n        /* \"#utility.yul\":13179:13265   */\n    tag_279:\n        /* \"#utility.yul\":13214:13221   */\n      0x00\n        /* \"#utility.yul\":13254:13258   */\n      0xff\n        /* \"#utility.yul\":13247:13252   */\n      dup3\n        /* \"#utility.yul\":13243:13259   */\n      and\n        /* \"#utility.yul\":13232:13259   */\n      swap1\n      pop\n        /* \"#utility.yul\":13222:13265   */\n      swap2\n      swap1\n      pop\n      jump\t// out\n        /* \"#utility.yul\":13271:13578   */\n    tag_219:\n        /* \"#utility.yul\":13339:13340   */\n      0x00\n        /* \"#utility.yul\":13349:13462   */\n    tag_332:\n        /* \"#utility.yul\":13363:13369   */\n      dup4\n        /* \"#utility.yul\":13360:13361   */\n      dup2\n        /* \"#utility.yul\":13357:13370   */\n      lt\n        /* \"#utility.yul\":13349:13462   */\n      iszero\n      tag_334\n      jumpi\n        /* \"#utility.yul\":13448:13449   */\n      dup1\n        /* \"#utility.yul\":13443:13446   */\n      dup3\n        /* \"#utility.yul\":13439:13450   */\n      add\n        /* \"#utility.yul\":13433:13451   */\n      mload\n        /* \"#utility.yul\":13429:13430   */\n      dup2\n        /* \"#utility.yul\":13424:13427   */\n      dup5\n        /* \"#utility.yul\":13420:13431   */\n      add\n        /* \"#utility.yul\":13413:13452   */\n      mstore\n        /* \"#utility.yul\":13385:13387   */\n      0x20\n        /* \"#utility.yul\":13382:13383   */\n      dup2\n        /* \"#utility.yul\":13378:13388   */\n      add\n        /* \"#utility.yul\":13373:13388   */\n      swap1\n      pop\n        /* \"#utility.yul\":13349:13462   */\n      jump(tag_332)\n    tag_334:\n        /* \"#utility.yul\":13480:13486   */\n      dup4\n        /* \"#utility.yul\":13477:13478   */\n      dup2\n        /* \"#utility.yul\":13474:13487   */\n      gt\n        /* \"#utility.yul\":13471:13473   */\n      iszero\n      tag_335\n      jumpi\n        /* \"#utility.yul\":13560:13561   */\n      0x00\n        /* \"#utility.yul\":13551:13557   */\n      dup5\n        /* \"#utility.yul\":13546:13549   */\n      dup5\n        /* \"#utility.yul\":13542:13558   */\n      add\n        /* \"#utility.yul\":13535:13562   */\n      mstore\n        /* \"#utility.yul\":13471:13473   */\n    tag_335:\n        /* \"#utility.yul\":13320:13578   */\n      pop\n      pop\n      pop\n      pop\n      jump\t// out\n        /* \"#utility.yul\":13584:13904   */\n    tag_79:\n        /* \"#utility.yul\":13628:13634   */\n      0x00\n        /* \"#utility.yul\":13665:13666   */\n      0x02\n        /* \"#utility.yul\":13659:13663   */\n      dup3\n        /* \"#utility.yul\":13655:13667   */\n      div\n        /* \"#utility.yul\":13645:13667   */\n      swap1\n      pop\n        /* \"#utility.yul\":13712:13713   */\n      0x01\n        /* \"#utility.yul\":13706:13710   */\n      dup3\n        /* \"#utility.yul\":13702:13714   */\n      and\n        /* \"#utility.yul\":13733:13751   */\n      dup1\n        /* \"#utility.yul\":13723:13725   */\n      tag_337\n      jumpi\n        /* \"#utility.yul\":13789:13793   */\n      0x7f\n        /* \"#utility.yul\":13781:13787   */\n      dup3\n        /* \"#utility.yul\":13777:13794   */\n      and\n        /* \"#utility.yul\":13767:13794   */\n      swap2\n      pop\n        /* \"#utility.yul\":13723:13725   */\n    tag_337:\n        /* \"#utility.yul\":13851:13853   */\n      0x20\n        /* \"#utility.yul\":13843:13849   */\n      dup3\n        /* \"#utility.yul\":13840:13854   */\n      lt\n        /* \"#utility.yul\":13820:13838   */\n      dup2\n        /* \"#utility.yul\":13817:13855   */\n      eq\n        /* \"#utility.yul\":13814:13816   */\n      iszero\n      tag_338\n      jumpi\n        /* \"#utility.yul\":13870:13888   */\n      tag_339\n      tag_340\n      jump\t// in\n    tag_339:\n        /* \"#utility.yul\":13814:13816   */\n    tag_338:\n        /* \"#utility.yul\":13635:13904   */\n      pop\n      swap2\n      swap1\n      pop\n      jump\t// out\n        /* \"#utility.yul\":13910:14090   */\n    tag_317:\n        /* \"#utility.yul\":13958:14035   */\n      0x4e487b7100000000000000000000000000000000000000000000000000000000\n        /* \"#utility.yul\":13955:13956   */\n      0x00\n        /* \"#utility.yul\":13948:14036   */\n      mstore\n        /* \"#utility.yul\":14055:14059   */\n      0x11\n        /* \"#utility.yul\":14052:14053   */\n      0x04\n        /* \"#utility.yul\":14045:14060   */\n      mstore\n        /* \"#utility.yul\":14079:14083   */\n      0x24\n        /* \"#utility.yul\":14076:14077   */\n      0x00\n        /* \"#utility.yul\":14069:14084   */\n      revert\n        /* \"#utility.yul\":14096:14276   */\n    tag_340:\n        /* \"#utility.yul\":14144:14221   */\n      0x4e487b7100000000000000000000000000000000000000000000000000000000\n        /* \"#utility.yul\":14141:14142   */\n      0x00\n        /* \"#utility.yul\":14134:14222   */\n      mstore\n        /* \"#utility.yul\":14241:14245   */\n      0x22\n        /* \"#utility.yul\":14238:14239   */\n      0x04\n        /* \"#utility.yul\":14231:14246   */\n      mstore\n        /* \"#utility.yul\":14265:14269   */\n      0x24\n        /* \"#utility.yul\":14262:14263   */\n      0x00\n        /* \"#utility.yul\":14255:14270   */\n      revert\n        /* \"#utility.yul\":14405:14522   */\n    tag_190:\n        /* \"#utility.yul\":14514:14515   */\n      0x00\n        /* \"#utility.yul\":14511:14512   */\n      dup1\n        /* \"#utility.yul\":14504:14516   */\n      revert\n        /* \"#utility.yul\":14528:14630   */\n    tag_221:\n        /* \"#utility.yul\":14569:14575   */\n      0x00\n        /* \"#utility.yul\":14620:14622   */\n      0x1f\n        /* \"#utility.yul\":14616:14623   */\n      not\n        /* \"#utility.yul\":14611:14613   */\n      0x1f\n        /* \"#utility.yul\":14604:14609   */\n      dup4\n        /* \"#utility.yul\":14600:14614   */\n      add\n        /* \"#utility.yul\":14596:14624   */\n      and\n        /* \"#utility.yul\":14586:14624   */\n      swap1\n      pop\n        /* \"#utility.yul\":14576:14630   */\n      swap2\n      swap1\n      pop\n      jump\t// out\n        /* \"#utility.yul\":14636:14858   */\n    tag_226:\n        /* \"#utility.yul\":14776:14810   */\n      0x45524332303a207472616e7366657220746f20746865207a65726f2061646472\n        /* \"#utility.yul\":14772:14773   */\n      0x00\n        /* \"#utility.yul\":14764:14770   */\n      dup3\n        /* \"#utility.yul\":14760:14774   */\n      add\n        /* \"#utility.yul\":14753:14811   */\n      mstore\n        /* \"#utility.yul\":14845:14850   */\n      0x6573730000000000000000000000000000000000000000000000000000000000\n        /* \"#utility.yul\":14840:14842   */\n      0x20\n        /* \"#utility.yul\":14832:14838   */\n      dup3\n        /* \"#utility.yul\":14828:14843   */\n      add\n        /* \"#utility.yul\":14821:14851   */\n      mstore\n        /* \"#utility.yul\":14742:14858   */\n      pop\n      jump\t// out\n        /* \"#utility.yul\":14864:15085   */\n    tag_231:\n        /* \"#utility.yul\":15004:15038   */\n      0x45524332303a206275726e20616d6f756e7420657863656564732062616c616e\n        /* \"#utility.yul\":15000:15001   */\n      0x00\n        /* \"#utility.yul\":14992:14998   */\n      dup3\n        /* \"#utility.yul\":14988:15002   */\n      add\n        /* \"#utility.yul\":14981:15039   */\n      mstore\n        /* \"#utility.yul\":15073:15077   */\n      0x6365000000000000000000000000000000000000000000000000000000000000\n        /* \"#utility.yul\":15068:15070   */\n      0x20\n        /* \"#utility.yul\":15060:15066   */\n      dup3\n        /* \"#utility.yul\":15056:15071   */\n      add\n        /* \"#utility.yul\":15049:15078   */\n      mstore\n        /* \"#utility.yul\":14970:15085   */\n      pop\n      jump\t// out\n        /* \"#utility.yul\":15091:15312   */\n    tag_236:\n        /* \"#utility.yul\":15231:15265   */\n      0x45524332303a20617070726f766520746f20746865207a65726f206164647265\n        /* \"#utility.yul\":15227:15228   */\n      0x00\n        /* \"#utility.yul\":15219:15225   */\n      dup3\n        /* \"#utility.yul\":15215:15229   */\n      add\n        /* \"#utility.yul\":15208:15266   */\n      mstore\n        /* \"#utility.yul\":15300:15304   */\n      0x7373000000000000000000000000000000000000000000000000000000000000\n        /* \"#utility.yul\":15295:15297   */\n      0x20\n        /* \"#utility.yul\":15287:15293   */\n      dup3\n        /* \"#utility.yul\":15283:15298   */\n      add\n        /* \"#utility.yul\":15276:15305   */\n      mstore\n        /* \"#utility.yul\":15197:15312   */\n      pop\n      jump\t// out\n        /* \"#utility.yul\":15318:15543   */\n    tag_241:\n        /* \"#utility.yul\":15458:15492   */\n      0x45524332303a207472616e7366657220616d6f756e7420657863656564732062\n        /* \"#utility.yul\":15454:15455   */\n      0x00\n        /* \"#utility.yul\":15446:15452   */\n      dup3\n        /* \"#utility.yul\":15442:15456   */\n      add\n        /* \"#utility.yul\":15435:15493   */\n      mstore\n        /* \"#utility.yul\":15527:15535   */\n      0x616c616e63650000000000000000000000000000000000000000000000000000\n        /* \"#utility.yul\":15522:15524   */\n      0x20\n        /* \"#utility.yul\":15514:15520   */\n      dup3\n        /* \"#utility.yul\":15510:15525   */\n      add\n        /* \"#utility.yul\":15503:15536   */\n      mstore\n        /* \"#utility.yul\":15424:15543   */\n      pop\n      jump\t// out\n        /* \"#utility.yul\":15549:15776   */\n    tag_246:\n        /* \"#utility.yul\":15689:15723   */\n      0x45524332303a207472616e7366657220616d6f756e7420657863656564732061\n        /* \"#utility.yul\":15685:15686   */\n      0x00\n        /* \"#utility.yul\":15677:15683   */\n      dup3\n        /* \"#utility.yul\":15673:15687   */\n      add\n        /* \"#utility.yul\":15666:15724   */\n      mstore\n        /* \"#utility.yul\":15758:15768   */\n      0x6c6c6f77616e6365000000000000000000000000000000000000000000000000\n        /* \"#utility.yul\":15753:15755   */\n      0x20\n        /* \"#utility.yul\":15745:15751   */\n      dup3\n        /* \"#utility.yul\":15741:15756   */\n      add\n        /* \"#utility.yul\":15734:15769   */\n      mstore\n        /* \"#utility.yul\":15655:15776   */\n      pop\n      jump\t// out\n        /* \"#utility.yul\":15782:16002   */\n    tag_251:\n        /* \"#utility.yul\":15922:15956   */\n      0x45524332303a206275726e2066726f6d20746865207a65726f20616464726573\n        /* \"#utility.yul\":15918:15919   */\n      0x00\n        /* \"#utility.yul\":15910:15916   */\n      dup3\n        /* \"#utility.yul\":15906:15920   */\n      add\n        /* \"#utility.yul\":15899:15957   */\n      mstore\n        /* \"#utility.yul\":15991:15994   */\n      0x7300000000000000000000000000000000000000000000000000000000000000\n        /* \"#utility.yul\":15986:15988   */\n      0x20\n        /* \"#utility.yul\":15978:15984   */\n      dup3\n        /* \"#utility.yul\":15974:15989   */\n      add\n        /* \"#utility.yul\":15967:15995   */\n      mstore\n        /* \"#utility.yul\":15888:16002   */\n      pop\n      jump\t// out\n        /* \"#utility.yul\":16008:16232   */\n    tag_256:\n        /* \"#utility.yul\":16148:16182   */\n      0x45524332303a207472616e736665722066726f6d20746865207a65726f206164\n        /* \"#utility.yul\":16144:16145   */\n      0x00\n        /* \"#utility.yul\":16136:16142   */\n      dup3\n        /* \"#utility.yul\":16132:16146   */\n      add\n        /* \"#utility.yul\":16125:16183   */\n      mstore\n        /* \"#utility.yul\":16217:16224   */\n      0x6472657373000000000000000000000000000000000000000000000000000000\n        /* \"#utility.yul\":16212:16214   */\n      0x20\n        /* \"#utility.yul\":16204:16210   */\n      dup3\n        /* \"#utility.yul\":16200:16215   */\n      add\n        /* \"#utility.yul\":16193:16225   */\n      mstore\n        /* \"#utility.yul\":16114:16232   */\n      pop\n      jump\t// out\n        /* \"#utility.yul\":16238:16461   */\n    tag_261:\n        /* \"#utility.yul\":16378:16412   */\n      0x45524332303a20617070726f76652066726f6d20746865207a65726f20616464\n        /* \"#utility.yul\":16374:16375   */\n      0x00\n        /* \"#utility.yul\":16366:16372   */\n      dup3\n        /* \"#utility.yul\":16362:16376   */\n      add\n        /* \"#utility.yul\":16355:16413   */\n      mstore\n        /* \"#utility.yul\":16447:16453   */\n      0x7265737300000000000000000000000000000000000000000000000000000000\n        /* \"#utility.yul\":16442:16444   */\n      0x20\n        /* \"#utility.yul\":16434:16440   */\n      dup3\n        /* \"#utility.yul\":16430:16445   */\n      add\n        /* \"#utility.yul\":16423:16454   */\n      mstore\n        /* \"#utility.yul\":16344:16461   */\n      pop\n      jump\t// out\n        /* \"#utility.yul\":16467:16691   */\n    tag_266:\n        /* \"#utility.yul\":16607:16641   */\n      0x45524332303a2064656372656173656420616c6c6f77616e63652062656c6f77\n        /* \"#utility.yul\":16603:16604   */\n      0x00\n        /* \"#utility.yul\":16595:16601   */\n      dup3\n        /* \"#utility.yul\":16591:16605   */\n      add\n        /* \"#utility.yul\":16584:16642   */\n      mstore\n        /* \"#utility.yul\":16676:16683   */\n      0x207a65726f000000000000000000000000000000000000000000000000000000\n        /* \"#utility.yul\":16671:16673   */\n      0x20\n        /* \"#utility.yul\":16663:16669   */\n      dup3\n        /* \"#utility.yul\":16659:16674   */\n      add\n        /* \"#utility.yul\":16652:16684   */\n      mstore\n        /* \"#utility.yul\":16573:16691   */\n      pop\n      jump\t// out\n        /* \"#utility.yul\":16697:16878   */\n    tag_271:\n        /* \"#utility.yul\":16837:16870   */\n      0x45524332303a206d696e7420746f20746865207a65726f206164647265737300\n        /* \"#utility.yul\":16833:16834   */\n      0x00\n        /* \"#utility.yul\":16825:16831   */\n      dup3\n        /* \"#utility.yul\":16821:16835   */\n      add\n        /* \"#utility.yul\":16814:16871   */\n      mstore\n        /* \"#utility.yul\":16803:16878   */\n      pop\n      jump\t// out\n        /* \"#utility.yul\":16884:17006   */\n    tag_182:\n        /* \"#utility.yul\":16957:16981   */\n      tag_358\n        /* \"#utility.yul\":16975:16980   */\n      dup2\n        /* \"#utility.yul\":16957:16981   */\n      tag_323\n      jump\t// in\n    tag_358:\n        /* \"#utility.yul\":16950:16955   */\n      dup2\n        /* \"#utility.yul\":16947:16982   */\n      eq\n        /* \"#utility.yul\":16937:16939   */\n      tag_359\n      jumpi\n        /* \"#utility.yul\":16996:16997   */\n      0x00\n        /* \"#utility.yul\":16993:16994   */\n      dup1\n        /* \"#utility.yul\":16986:16998   */\n      revert\n        /* \"#utility.yul\":16937:16939   */\n    tag_359:\n        /* \"#utility.yul\":16927:17006   */\n      pop\n      jump\t// out\n        /* \"#utility.yul\":17012:17134   */\n    tag_186:\n        /* \"#utility.yul\":17085:17109   */\n      tag_361\n        /* \"#utility.yul\":17103:17108   */\n      dup2\n        /* \"#utility.yul\":17085:17109   */\n      tag_275\n      jump\t// in\n    tag_361:\n        /* \"#utility.yul\":17078:17083   */\n      dup2\n        /* \"#utility.yul\":17075:17110   */\n      eq\n        /* \"#utility.yul\":17065:17067   */\n      tag_362\n      jumpi\n        /* \"#utility.yul\":17124:17125   */\n      0x00\n        /* \"#utility.yul\":17121:17122   */\n      dup1\n        /* \"#utility.yul\":17114:17126   */\n      revert\n        /* \"#utility.yul\":17065:17067   */\n    tag_362:\n        /* \"#utility.yul\":17055:17134   */\n      pop\n      jump\t// out\n\n    auxdata: 0xa26469706673582212208c757548406222e08b0af5b33c5e0593f37b5d03b733d0cd291c982a4fdca53764736f6c63430008050033\n}\n",
				"bytecode": {
					"linkReferences": {},
					"object": "608060405260006005553480156200001657600080fd5b506040518060400160405280600e81526020017f456c69617341696c754a75616e610000000000000000000000000000000000008152506040518060400160405280600381526020017f45414a000000000000000000000000000000000000000000000000000000000081525081600390805190602001906200009b9291906200025e565b508060049080519060200190620000b49291906200025e565b505050620000d233683635c9adc5dea00000620000d860201b60201c565b620004ba565b600073ffffffffffffffffffffffffffffffffffffffff168273ffffffffffffffffffffffffffffffffffffffff1614156200014b576040517f08c379a0000000000000000000000000000000000000000000000000000000008152600401620001429062000346565b60405180910390fd5b6200015f600083836200023d60201b60201c565b806002600082825462000173919062000396565b92505081905550806000808473ffffffffffffffffffffffffffffffffffffffff1673ffffffffffffffffffffffffffffffffffffffff1681526020019081526020016000206000828254620001ca919062000396565b925050819055508173ffffffffffffffffffffffffffffffffffffffff16600073ffffffffffffffffffffffffffffffffffffffff167fddf252ad1be2c89b69c2b068fc378daa952ba7f163c4a11628f55a4df523b3ef8360405162000231919062000368565b60405180910390a35050565b60016005600082825462000252919062000396565b92505081905550505050565b8280546200026c90620003fd565b90600052602060002090601f016020900481019282620002905760008555620002dc565b82601f10620002ab57805160ff1916838001178555620002dc565b82800160010185558215620002dc579182015b82811115620002db578251825591602001919060010190620002be565b5b509050620002eb9190620002ef565b5090565b5b808211156200030a576000816000905550600101620002f0565b5090565b60006200031d601f8362000385565b91506200032a8262000491565b602082019050919050565b6200034081620003f3565b82525050565b6000602082019050818103600083015262000361816200030e565b9050919050565b60006020820190506200037f600083018462000335565b92915050565b600082825260208201905092915050565b6000620003a382620003f3565b9150620003b083620003f3565b9250827fffffffffffffffffffffffffffffffffffffffffffffffffffffffffffffffff03821115620003e857620003e762000433565b5b828201905092915050565b6000819050919050565b600060028204905060018216806200041657607f821691505b602082108114156200042d576200042c62000462565b5b50919050565b7f4e487b7100000000000000000000000000000000000000000000000000000000600052601160045260246000fd5b7f4e487b7100000000000000000000000000000000000000000000000000000000600052602260045260246000fd5b7f45524332303a206d696e7420746f20746865207a65726f206164647265737300600082015250565b61197480620004ca6000396000f3fe608060405234801561001057600080fd5b50600436106100ea5760003560e01c806340c10f191161008c5780639dc29fac116100665780639dc29fac14610261578063a457c2d71461027d578063a9059cbb146102ad578063dd62ed3e146102dd576100ea565b806340c10f19146101f757806370a082311461021357806395d89b4114610243576100ea565b806318160ddd116100c857806318160ddd1461015b57806323b872dd14610179578063313ce567146101a957806339509351146101c7576100ea565b806306fdde03146100ef578063095ea7b31461010d578063160f00c11461013d575b600080fd5b6100f761030d565b60405161010491906112b4565b60405180910390f35b61012760048036038101906101229190611095565b61039f565b6040516101349190611299565b60405180910390f35b6101456103bd565b6040516101529190611416565b60405180910390f35b6101636103c3565b6040516101709190611416565b60405180910390f35b610193600480360381019061018e9190611042565b6103cd565b6040516101a09190611299565b60405180910390f35b6101b16104ce565b6040516101be9190611431565b60405180910390f35b6101e160048036038101906101dc9190611095565b6104d7565b6040516101ee9190611299565b60405180910390f35b610211600480360381019061020c9190611095565b610583565b005b61022d60048036038101906102289190610fd5565b610591565b60405161023a9190611416565b60405180910390f35b61024b6105d9565b60405161025891906112b4565b60405180910390f35b61027b60048036038101906102769190611095565b61066b565b005b61029760048036038101906102929190611095565b610679565b6040516102a49190611299565b60405180910390f35b6102c760048036038101906102c29190611095565b61076d565b6040516102d49190611299565b60405180910390f35b6102f760048036038101906102f29190611002565b61078b565b6040516103049190611416565b60405180910390f35b60606003805461031c9061157a565b80601f01602080910402602001604051908101604052809291908181526020018280546103489061157a565b80156103955780601f1061036a57610100808354040283529160200191610395565b820191906000526020600020905b81548152906001019060200180831161037857829003601f168201915b5050505050905090565b60006103b36103ac610812565b848461081a565b6001905092915050565b60055481565b6000600254905090565b60006103da8484846109e5565b6000600160008673ffffffffffffffffffffffffffffffffffffffff1673ffffffffffffffffffffffffffffffffffffffff1681526020019081526020016000206000610425610812565b73ffffffffffffffffffffffffffffffffffffffff1673ffffffffffffffffffffffffffffffffffffffff168152602001908152602001600020549050828110156104a5576040517f08c379a000000000000000000000000000000000000000000000000000000000815260040161049c90611356565b60405180910390fd5b6104c2856104b1610812565b85846104bd91906114be565b61081a565b60019150509392505050565b60006012905090565b60006105796104e4610812565b8484600160006104f2610812565b73ffffffffffffffffffffffffffffffffffffffff1673ffffffffffffffffffffffffffffffffffffffff16815260200190815260200160002060008873ffffffffffffffffffffffffffffffffffffffff1673ffffffffffffffffffffffffffffffffffffffff168152602001908152602001600020546105749190611468565b61081a565b6001905092915050565b61058d8282610c64565b5050565b60008060008373ffffffffffffffffffffffffffffffffffffffff1673ffffffffffffffffffffffffffffffffffffffff168152602001908152602001600020549050919050565b6060600480546105e89061157a565b80601f01602080910402602001604051908101604052809291908181526020018280546106149061157a565b80156106615780601f1061063657610100808354040283529160200191610661565b820191906000526020600020905b81548152906001019060200180831161064457829003601f168201915b5050505050905090565b6106758282610db8565b5050565b60008060016000610688610812565b73ffffffffffffffffffffffffffffffffffffffff1673ffffffffffffffffffffffffffffffffffffffff16815260200190815260200160002060008573ffffffffffffffffffffffffffffffffffffffff1673ffffffffffffffffffffffffffffffffffffffff16815260200190815260200160002054905082811015610745576040517f08c379a000000000000000000000000000000000000000000000000000000000815260040161073c906113d6565b60405180910390fd5b610762610750610812565b85858461075d91906114be565b61081a565b600191505092915050565b600061078161077a610812565b84846109e5565b6001905092915050565b6000600160008473ffffffffffffffffffffffffffffffffffffffff1673ffffffffffffffffffffffffffffffffffffffff16815260200190815260200160002060008373ffffffffffffffffffffffffffffffffffffffff1673ffffffffffffffffffffffffffffffffffffffff16815260200190815260200160002054905092915050565b600033905090565b600073ffffffffffffffffffffffffffffffffffffffff168373ffffffffffffffffffffffffffffffffffffffff16141561088a576040517f08c379a0000000000000000000000000000000000000000000000000000000008152600401610881906113b6565b60405180910390fd5b600073ffffffffffffffffffffffffffffffffffffffff168273ffffffffffffffffffffffffffffffffffffffff1614156108fa576040517f08c379a00000000000000000000000000000000000000000000000000000000081526004016108f190611316565b60405180910390fd5b80600160008573ffffffffffffffffffffffffffffffffffffffff1673ffffffffffffffffffffffffffffffffffffffff16815260200190815260200160002060008473ffffffffffffffffffffffffffffffffffffffff1673ffffffffffffffffffffffffffffffffffffffff168152602001908152602001600020819055508173ffffffffffffffffffffffffffffffffffffffff168373ffffffffffffffffffffffffffffffffffffffff167f8c5be1e5ebec7d5bd14f71427d1e84f3dd0314c0f7b2291e5b200ac8c7c3b925836040516109d89190611416565b60405180910390a3505050565b600073ffffffffffffffffffffffffffffffffffffffff168373ffffffffffffffffffffffffffffffffffffffff161415610a55576040517f08c379a0000000000000000000000000000000000000000000000000000000008152600401610a4c90611396565b60405180910390fd5b600073ffffffffffffffffffffffffffffffffffffffff168273ffffffffffffffffffffffffffffffffffffffff161415610ac5576040517f08c379a0000000000000000000000000000000000000000000000000000000008152600401610abc906112d6565b60405180910390fd5b610ad0838383610f8c565b60008060008573ffffffffffffffffffffffffffffffffffffffff1673ffffffffffffffffffffffffffffffffffffffff16815260200190815260200160002054905081811015610b56576040517f08c379a0000000000000000000000000000000000000000000000000000000008152600401610b4d90611336565b60405180910390fd5b8181610b6291906114be565b6000808673ffffffffffffffffffffffffffffffffffffffff1673ffffffffffffffffffffffffffffffffffffffff16815260200190815260200160002081905550816000808573ffffffffffffffffffffffffffffffffffffffff1673ffffffffffffffffffffffffffffffffffffffff1681526020019081526020016000206000828254610bf29190611468565b925050819055508273ffffffffffffffffffffffffffffffffffffffff168473ffffffffffffffffffffffffffffffffffffffff167fddf252ad1be2c89b69c2b068fc378daa952ba7f163c4a11628f55a4df523b3ef84604051610c569190611416565b60405180910390a350505050565b600073ffffffffffffffffffffffffffffffffffffffff168273ffffffffffffffffffffffffffffffffffffffff161415610cd4576040517f08c379a0000000000000000000000000000000000000000000000000000000008152600401610ccb906113f6565b60405180910390fd5b610ce060008383610f8c565b8060026000828254610cf29190611468565b92505081905550806000808473ffffffffffffffffffffffffffffffffffffffff1673ffffffffffffffffffffffffffffffffffffffff1681526020019081526020016000206000828254610d479190611468565b925050819055508173ffffffffffffffffffffffffffffffffffffffff16600073ffffffffffffffffffffffffffffffffffffffff167fddf252ad1be2c89b69c2b068fc378daa952ba7f163c4a11628f55a4df523b3ef83604051610dac9190611416565b60405180910390a35050565b600073ffffffffffffffffffffffffffffffffffffffff168273ffffffffffffffffffffffffffffffffffffffff161415610e28576040517f08c379a0000000000000000000000000000000000000000000000000000000008152600401610e1f90611376565b60405180910390fd5b610e3482600083610f8c565b60008060008473ffffffffffffffffffffffffffffffffffffffff1673ffffffffffffffffffffffffffffffffffffffff16815260200190815260200160002054905081811015610eba576040517f08c379a0000000000000000000000000000000000000000000000000000000008152600401610eb1906112f6565b60405180910390fd5b8181610ec691906114be565b6000808573ffffffffffffffffffffffffffffffffffffffff1673ffffffffffffffffffffffffffffffffffffffff168152602001908152602001600020819055508160026000828254610f1a91906114be565b92505081905550600073ffffffffffffffffffffffffffffffffffffffff168373ffffffffffffffffffffffffffffffffffffffff167fddf252ad1be2c89b69c2b068fc378daa952ba7f163c4a11628f55a4df523b3ef84604051610f7f9190611416565b60405180910390a3505050565b600160056000828254610f9f9190611468565b92505081905550505050565b600081359050610fba81611910565b92915050565b600081359050610fcf81611927565b92915050565b600060208284031215610feb57610fea61160a565b5b6000610ff984828501610fab565b91505092915050565b600080604083850312156110195761101861160a565b5b600061102785828601610fab565b925050602061103885828601610fab565b9150509250929050565b60008060006060848603121561105b5761105a61160a565b5b600061106986828701610fab565b935050602061107a86828701610fab565b925050604061108b86828701610fc0565b9150509250925092565b600080604083850312156110ac576110ab61160a565b5b60006110ba85828601610fab565b92505060206110cb85828601610fc0565b9150509250929050565b6110de81611504565b82525050565b60006110ef8261144c565b6110f98185611457565b9350611109818560208601611547565b6111128161160f565b840191505092915050565b600061112a602383611457565b915061113582611620565b604082019050919050565b600061114d602283611457565b91506111588261166f565b604082019050919050565b6000611170602283611457565b915061117b826116be565b604082019050919050565b6000611193602683611457565b915061119e8261170d565b604082019050919050565b60006111b6602883611457565b91506111c18261175c565b604082019050919050565b60006111d9602183611457565b91506111e4826117ab565b604082019050919050565b60006111fc602583611457565b9150611207826117fa565b604082019050919050565b600061121f602483611457565b915061122a82611849565b604082019050919050565b6000611242602583611457565b915061124d82611898565b604082019050919050565b6000611265601f83611457565b9150611270826118e7565b602082019050919050565b61128481611530565b82525050565b6112938161153a565b82525050565b60006020820190506112ae60008301846110d5565b92915050565b600060208201905081810360008301526112ce81846110e4565b905092915050565b600060208201905081810360008301526112ef8161111d565b9050919050565b6000602082019050818103600083015261130f81611140565b9050919050565b6000602082019050818103600083015261132f81611163565b9050919050565b6000602082019050818103600083015261134f81611186565b9050919050565b6000602082019050818103600083015261136f816111a9565b9050919050565b6000602082019050818103600083015261138f816111cc565b9050919050565b600060208201905081810360008301526113af816111ef565b9050919050565b600060208201905081810360008301526113cf81611212565b9050919050565b600060208201905081810360008301526113ef81611235565b9050919050565b6000602082019050818103600083015261140f81611258565b9050919050565b600060208201905061142b600083018461127b565b92915050565b6000602082019050611446600083018461128a565b92915050565b600081519050919050565b600082825260208201905092915050565b600061147382611530565b915061147e83611530565b9250827fffffffffffffffffffffffffffffffffffffffffffffffffffffffffffffffff038211156114b3576114b26115ac565b5b828201905092915050565b60006114c982611530565b91506114d483611530565b9250828210156114e7576114e66115ac565b5b828203905092915050565b60006114fd82611510565b9050919050565b60008115159050919050565b600073ffffffffffffffffffffffffffffffffffffffff82169050919050565b6000819050919050565b600060ff82169050919050565b60005b8381101561156557808201518184015260208101905061154a565b83811115611574576000848401525b50505050565b6000600282049050600182168061159257607f821691505b602082108114156115a6576115a56115db565b5b50919050565b7f4e487b7100000000000000000000000000000000000000000000000000000000600052601160045260246000fd5b7f4e487b7100000000000000000000000000000000000000000000000000000000600052602260045260246000fd5b600080fd5b6000601f19601f8301169050919050565b7f45524332303a207472616e7366657220746f20746865207a65726f206164647260008201527f6573730000000000000000000000000000000000000000000000000000000000602082015250565b7f45524332303a206275726e20616d6f756e7420657863656564732062616c616e60008201527f6365000000000000000000000000000000000000000000000000000000000000602082015250565b7f45524332303a20617070726f766520746f20746865207a65726f20616464726560008201527f7373000000000000000000000000000000000000000000000000000000000000602082015250565b7f45524332303a207472616e7366657220616d6f756e742065786365656473206260008201527f616c616e63650000000000000000000000000000000000000000000000000000602082015250565b7f45524332303a207472616e7366657220616d6f756e742065786365656473206160008201527f6c6c6f77616e6365000000000000000000000000000000000000000000000000602082015250565b7f45524332303a206275726e2066726f6d20746865207a65726f2061646472657360008201527f7300000000000000000000000000000000000000000000000000000000000000602082015250565b7f45524332303a207472616e736665722066726f6d20746865207a65726f20616460008201527f6472657373000000000000000000000000000000000000000000000000000000602082015250565b7f45524332303a20617070726f76652066726f6d20746865207a65726f2061646460008201527f7265737300000000000000000000000000000000000000000000000000000000602082015250565b7f45524332303a2064656372656173656420616c6c6f77616e63652062656c6f7760008201527f207a65726f000000000000000000000000000000000000000000000000000000602082015250565b7f45524332303a206d696e7420746f20746865207a65726f206164647265737300600082015250565b611919816114f2565b811461192457600080fd5b50565b61193081611530565b811461193b57600080fd5b5056fea26469706673582212208c757548406222e08b0af5b33c5e0593f37b5d03b733d0cd291c982a4fdca53764736f6c63430008050033",
					"opcodes": "PUSH1 0x80 PUSH1 0x40 MSTORE PUSH1 0x0 PUSH1 0x5 SSTORE CALLVALUE DUP1 ISZERO PUSH3 0x16 JUMPI PUSH1 0x0 DUP1 REVERT JUMPDEST POP PUSH1 0x40 MLOAD DUP1 PUSH1 0x40 ADD PUSH1 0x40 MSTORE DUP1 PUSH1 0xE DUP2 MSTORE PUSH1 0x20 ADD PUSH32 0x456C69617341696C754A75616E61000000000000000000000000000000000000 DUP2 MSTORE POP PUSH1 0x40 MLOAD DUP1 PUSH1 0x40 ADD PUSH1 0x40 MSTORE DUP1 PUSH1 0x3 DUP2 MSTORE PUSH1 0x20 ADD PUSH32 0x45414A0000000000000000000000000000000000000000000000000000000000 DUP2 MSTORE POP DUP2 PUSH1 0x3 SWAP1 DUP1 MLOAD SWAP1 PUSH1 0x20 ADD SWAP1 PUSH3 0x9B SWAP3 SWAP2 SWAP1 PUSH3 0x25E JUMP JUMPDEST POP DUP1 PUSH1 0x4 SWAP1 DUP1 MLOAD SWAP1 PUSH1 0x20 ADD SWAP1 PUSH3 0xB4 SWAP3 SWAP2 SWAP1 PUSH3 0x25E JUMP JUMPDEST POP POP POP PUSH3 0xD2 CALLER PUSH9 0x3635C9ADC5DEA00000 PUSH3 0xD8 PUSH1 0x20 SHL PUSH1 0x20 SHR JUMP JUMPDEST PUSH3 0x4BA JUMP JUMPDEST PUSH1 0x0 PUSH20 0xFFFFFFFFFFFFFFFFFFFFFFFFFFFFFFFFFFFFFFFF AND DUP3 PUSH20 0xFFFFFFFFFFFFFFFFFFFFFFFFFFFFFFFFFFFFFFFF AND EQ ISZERO PUSH3 0x14B JUMPI PUSH1 0x40 MLOAD PUSH32 0x8C379A000000000000000000000000000000000000000000000000000000000 DUP2 MSTORE PUSH1 0x4 ADD PUSH3 0x142 SWAP1 PUSH3 0x346 JUMP JUMPDEST PUSH1 0x40 MLOAD DUP1 SWAP2 SUB SWAP1 REVERT JUMPDEST PUSH3 0x15F PUSH1 0x0 DUP4 DUP4 PUSH3 0x23D PUSH1 0x20 SHL PUSH1 0x20 SHR JUMP JUMPDEST DUP1 PUSH1 0x2 PUSH1 0x0 DUP3 DUP3 SLOAD PUSH3 0x173 SWAP2 SWAP1 PUSH3 0x396 JUMP JUMPDEST SWAP3 POP POP DUP2 SWAP1 SSTORE POP DUP1 PUSH1 0x0 DUP1 DUP5 PUSH20 0xFFFFFFFFFFFFFFFFFFFFFFFFFFFFFFFFFFFFFFFF AND PUSH20 0xFFFFFFFFFFFFFFFFFFFFFFFFFFFFFFFFFFFFFFFF AND DUP2 MSTORE PUSH1 0x20 ADD SWAP1 DUP2 MSTORE PUSH1 0x20 ADD PUSH1 0x0 KECCAK256 PUSH1 0x0 DUP3 DUP3 SLOAD PUSH3 0x1CA SWAP2 SWAP1 PUSH3 0x396 JUMP JUMPDEST SWAP3 POP POP DUP2 SWAP1 SSTORE POP DUP2 PUSH20 0xFFFFFFFFFFFFFFFFFFFFFFFFFFFFFFFFFFFFFFFF AND PUSH1 0x0 PUSH20 0xFFFFFFFFFFFFFFFFFFFFFFFFFFFFFFFFFFFFFFFF AND PUSH32 0xDDF252AD1BE2C89B69C2B068FC378DAA952BA7F163C4A11628F55A4DF523B3EF DUP4 PUSH1 0x40 MLOAD PUSH3 0x231 SWAP2 SWAP1 PUSH3 0x368 JUMP JUMPDEST PUSH1 0x40 MLOAD DUP1 SWAP2 SUB SWAP1 LOG3 POP POP JUMP JUMPDEST PUSH1 0x1 PUSH1 0x5 PUSH1 0x0 DUP3 DUP3 SLOAD PUSH3 0x252 SWAP2 SWAP1 PUSH3 0x396 JUMP JUMPDEST SWAP3 POP POP DUP2 SWAP1 SSTORE POP POP POP POP JUMP JUMPDEST DUP3 DUP1 SLOAD PUSH3 0x26C SWAP1 PUSH3 0x3FD JUMP JUMPDEST SWAP1 PUSH1 0x0 MSTORE PUSH1 0x20 PUSH1 0x0 KECCAK256 SWAP1 PUSH1 0x1F ADD PUSH1 0x20 SWAP1 DIV DUP2 ADD SWAP3 DUP3 PUSH3 0x290 JUMPI PUSH1 0x0 DUP6 SSTORE PUSH3 0x2DC JUMP JUMPDEST DUP3 PUSH1 0x1F LT PUSH3 0x2AB JUMPI DUP1 MLOAD PUSH1 0xFF NOT AND DUP4 DUP1 ADD OR DUP6 SSTORE PUSH3 0x2DC JUMP JUMPDEST DUP3 DUP1 ADD PUSH1 0x1 ADD DUP6 SSTORE DUP3 ISZERO PUSH3 0x2DC JUMPI SWAP2 DUP3 ADD JUMPDEST DUP3 DUP2 GT ISZERO PUSH3 0x2DB JUMPI DUP3 MLOAD DUP3 SSTORE SWAP2 PUSH1 0x20 ADD SWAP2 SWAP1 PUSH1 0x1 ADD SWAP1 PUSH3 0x2BE JUMP JUMPDEST JUMPDEST POP SWAP1 POP PUSH3 0x2EB SWAP2 SWAP1 PUSH3 0x2EF JUMP JUMPDEST POP SWAP1 JUMP JUMPDEST JUMPDEST DUP1 DUP3 GT ISZERO PUSH3 0x30A JUMPI PUSH1 0x0 DUP2 PUSH1 0x0 SWAP1 SSTORE POP PUSH1 0x1 ADD PUSH3 0x2F0 JUMP JUMPDEST POP SWAP1 JUMP JUMPDEST PUSH1 0x0 PUSH3 0x31D PUSH1 0x1F DUP4 PUSH3 0x385 JUMP JUMPDEST SWAP2 POP PUSH3 0x32A DUP3 PUSH3 0x491 JUMP JUMPDEST PUSH1 0x20 DUP3 ADD SWAP1 POP SWAP2 SWAP1 POP JUMP JUMPDEST PUSH3 0x340 DUP2 PUSH3 0x3F3 JUMP JUMPDEST DUP3 MSTORE POP POP JUMP JUMPDEST PUSH1 0x0 PUSH1 0x20 DUP3 ADD SWAP1 POP DUP2 DUP2 SUB PUSH1 0x0 DUP4 ADD MSTORE PUSH3 0x361 DUP2 PUSH3 0x30E JUMP JUMPDEST SWAP1 POP SWAP2 SWAP1 POP JUMP JUMPDEST PUSH1 0x0 PUSH1 0x20 DUP3 ADD SWAP1 POP PUSH3 0x37F PUSH1 0x0 DUP4 ADD DUP5 PUSH3 0x335 JUMP JUMPDEST SWAP3 SWAP2 POP POP JUMP JUMPDEST PUSH1 0x0 DUP3 DUP3 MSTORE PUSH1 0x20 DUP3 ADD SWAP1 POP SWAP3 SWAP2 POP POP JUMP JUMPDEST PUSH1 0x0 PUSH3 0x3A3 DUP3 PUSH3 0x3F3 JUMP JUMPDEST SWAP2 POP PUSH3 0x3B0 DUP4 PUSH3 0x3F3 JUMP JUMPDEST SWAP3 POP DUP3 PUSH32 0xFFFFFFFFFFFFFFFFFFFFFFFFFFFFFFFFFFFFFFFFFFFFFFFFFFFFFFFFFFFFFFFF SUB DUP3 GT ISZERO PUSH3 0x3E8 JUMPI PUSH3 0x3E7 PUSH3 0x433 JUMP JUMPDEST JUMPDEST DUP3 DUP3 ADD SWAP1 POP SWAP3 SWAP2 POP POP JUMP JUMPDEST PUSH1 0x0 DUP2 SWAP1 POP SWAP2 SWAP1 POP JUMP JUMPDEST PUSH1 0x0 PUSH1 0x2 DUP3 DIV SWAP1 POP PUSH1 0x1 DUP3 AND DUP1 PUSH3 0x416 JUMPI PUSH1 0x7F DUP3 AND SWAP2 POP JUMPDEST PUSH1 0x20 DUP3 LT DUP2 EQ ISZERO PUSH3 0x42D JUMPI PUSH3 0x42C PUSH3 0x462 JUMP JUMPDEST JUMPDEST POP SWAP2 SWAP1 POP JUMP JUMPDEST PUSH32 0x4E487B7100000000000000000000000000000000000000000000000000000000 PUSH1 0x0 MSTORE PUSH1 0x11 PUSH1 0x4 MSTORE PUSH1 0x24 PUSH1 0x0 REVERT JUMPDEST PUSH32 0x4E487B7100000000000000000000000000000000000000000000000000000000 PUSH1 0x0 MSTORE PUSH1 0x22 PUSH1 0x4 MSTORE PUSH1 0x24 PUSH1 0x0 REVERT JUMPDEST PUSH32 0x45524332303A206D696E7420746F20746865207A65726F206164647265737300 PUSH1 0x0 DUP3 ADD MSTORE POP JUMP JUMPDEST PUSH2 0x1974 DUP1 PUSH3 0x4CA PUSH1 0x0 CODECOPY PUSH1 0x0 RETURN INVALID PUSH1 0x80 PUSH1 0x40 MSTORE CALLVALUE DUP1 ISZERO PUSH2 0x10 JUMPI PUSH1 0x0 DUP1 REVERT JUMPDEST POP PUSH1 0x4 CALLDATASIZE LT PUSH2 0xEA JUMPI PUSH1 0x0 CALLDATALOAD PUSH1 0xE0 SHR DUP1 PUSH4 0x40C10F19 GT PUSH2 0x8C JUMPI DUP1 PUSH4 0x9DC29FAC GT PUSH2 0x66 JUMPI DUP1 PUSH4 0x9DC29FAC EQ PUSH2 0x261 JUMPI DUP1 PUSH4 0xA457C2D7 EQ PUSH2 0x27D JUMPI DUP1 PUSH4 0xA9059CBB EQ PUSH2 0x2AD JUMPI DUP1 PUSH4 0xDD62ED3E EQ PUSH2 0x2DD JUMPI PUSH2 0xEA JUMP JUMPDEST DUP1 PUSH4 0x40C10F19 EQ PUSH2 0x1F7 JUMPI DUP1 PUSH4 0x70A08231 EQ PUSH2 0x213 JUMPI DUP1 PUSH4 0x95D89B41 EQ PUSH2 0x243 JUMPI PUSH2 0xEA JUMP JUMPDEST DUP1 PUSH4 0x18160DDD GT PUSH2 0xC8 JUMPI DUP1 PUSH4 0x18160DDD EQ PUSH2 0x15B JUMPI DUP1 PUSH4 0x23B872DD EQ PUSH2 0x179 JUMPI DUP1 PUSH4 0x313CE567 EQ PUSH2 0x1A9 JUMPI DUP1 PUSH4 0x39509351 EQ PUSH2 0x1C7 JUMPI PUSH2 0xEA JUMP JUMPDEST DUP1 PUSH4 0x6FDDE03 EQ PUSH2 0xEF JUMPI DUP1 PUSH4 0x95EA7B3 EQ PUSH2 0x10D JUMPI DUP1 PUSH4 0x160F00C1 EQ PUSH2 0x13D JUMPI JUMPDEST PUSH1 0x0 DUP1 REVERT JUMPDEST PUSH2 0xF7 PUSH2 0x30D JUMP JUMPDEST PUSH1 0x40 MLOAD PUSH2 0x104 SWAP2 SWAP1 PUSH2 0x12B4 JUMP JUMPDEST PUSH1 0x40 MLOAD DUP1 SWAP2 SUB SWAP1 RETURN JUMPDEST PUSH2 0x127 PUSH1 0x4 DUP1 CALLDATASIZE SUB DUP2 ADD SWAP1 PUSH2 0x122 SWAP2 SWAP1 PUSH2 0x1095 JUMP JUMPDEST PUSH2 0x39F JUMP JUMPDEST PUSH1 0x40 MLOAD PUSH2 0x134 SWAP2 SWAP1 PUSH2 0x1299 JUMP JUMPDEST PUSH1 0x40 MLOAD DUP1 SWAP2 SUB SWAP1 RETURN JUMPDEST PUSH2 0x145 PUSH2 0x3BD JUMP JUMPDEST PUSH1 0x40 MLOAD PUSH2 0x152 SWAP2 SWAP1 PUSH2 0x1416 JUMP JUMPDEST PUSH1 0x40 MLOAD DUP1 SWAP2 SUB SWAP1 RETURN JUMPDEST PUSH2 0x163 PUSH2 0x3C3 JUMP JUMPDEST PUSH1 0x40 MLOAD PUSH2 0x170 SWAP2 SWAP1 PUSH2 0x1416 JUMP JUMPDEST PUSH1 0x40 MLOAD DUP1 SWAP2 SUB SWAP1 RETURN JUMPDEST PUSH2 0x193 PUSH1 0x4 DUP1 CALLDATASIZE SUB DUP2 ADD SWAP1 PUSH2 0x18E SWAP2 SWAP1 PUSH2 0x1042 JUMP JUMPDEST PUSH2 0x3CD JUMP JUMPDEST PUSH1 0x40 MLOAD PUSH2 0x1A0 SWAP2 SWAP1 PUSH2 0x1299 JUMP JUMPDEST PUSH1 0x40 MLOAD DUP1 SWAP2 SUB SWAP1 RETURN JUMPDEST PUSH2 0x1B1 PUSH2 0x4CE JUMP JUMPDEST PUSH1 0x40 MLOAD PUSH2 0x1BE SWAP2 SWAP1 PUSH2 0x1431 JUMP JUMPDEST PUSH1 0x40 MLOAD DUP1 SWAP2 SUB SWAP1 RETURN JUMPDEST PUSH2 0x1E1 PUSH1 0x4 DUP1 CALLDATASIZE SUB DUP2 ADD SWAP1 PUSH2 0x1DC SWAP2 SWAP1 PUSH2 0x1095 JUMP JUMPDEST PUSH2 0x4D7 JUMP JUMPDEST PUSH1 0x40 MLOAD PUSH2 0x1EE SWAP2 SWAP1 PUSH2 0x1299 JUMP JUMPDEST PUSH1 0x40 MLOAD DUP1 SWAP2 SUB SWAP1 RETURN JUMPDEST PUSH2 0x211 PUSH1 0x4 DUP1 CALLDATASIZE SUB DUP2 ADD SWAP1 PUSH2 0x20C SWAP2 SWAP1 PUSH2 0x1095 JUMP JUMPDEST PUSH2 0x583 JUMP JUMPDEST STOP JUMPDEST PUSH2 0x22D PUSH1 0x4 DUP1 CALLDATASIZE SUB DUP2 ADD SWAP1 PUSH2 0x228 SWAP2 SWAP1 PUSH2 0xFD5 JUMP JUMPDEST PUSH2 0x591 JUMP JUMPDEST PUSH1 0x40 MLOAD PUSH2 0x23A SWAP2 SWAP1 PUSH2 0x1416 JUMP JUMPDEST PUSH1 0x40 MLOAD DUP1 SWAP2 SUB SWAP1 RETURN JUMPDEST PUSH2 0x24B PUSH2 0x5D9 JUMP JUMPDEST PUSH1 0x40 MLOAD PUSH2 0x258 SWAP2 SWAP1 PUSH2 0x12B4 JUMP JUMPDEST PUSH1 0x40 MLOAD DUP1 SWAP2 SUB SWAP1 RETURN JUMPDEST PUSH2 0x27B PUSH1 0x4 DUP1 CALLDATASIZE SUB DUP2 ADD SWAP1 PUSH2 0x276 SWAP2 SWAP1 PUSH2 0x1095 JUMP JUMPDEST PUSH2 0x66B JUMP JUMPDEST STOP JUMPDEST PUSH2 0x297 PUSH1 0x4 DUP1 CALLDATASIZE SUB DUP2 ADD SWAP1 PUSH2 0x292 SWAP2 SWAP1 PUSH2 0x1095 JUMP JUMPDEST PUSH2 0x679 JUMP JUMPDEST PUSH1 0x40 MLOAD PUSH2 0x2A4 SWAP2 SWAP1 PUSH2 0x1299 JUMP JUMPDEST PUSH1 0x40 MLOAD DUP1 SWAP2 SUB SWAP1 RETURN JUMPDEST PUSH2 0x2C7 PUSH1 0x4 DUP1 CALLDATASIZE SUB DUP2 ADD SWAP1 PUSH2 0x2C2 SWAP2 SWAP1 PUSH2 0x1095 JUMP JUMPDEST PUSH2 0x76D JUMP JUMPDEST PUSH1 0x40 MLOAD PUSH2 0x2D4 SWAP2 SWAP1 PUSH2 0x1299 JUMP JUMPDEST PUSH1 0x40 MLOAD DUP1 SWAP2 SUB SWAP1 RETURN JUMPDEST PUSH2 0x2F7 PUSH1 0x4 DUP1 CALLDATASIZE SUB DUP2 ADD SWAP1 PUSH2 0x2F2 SWAP2 SWAP1 PUSH2 0x1002 JUMP JUMPDEST PUSH2 0x78B JUMP JUMPDEST PUSH1 0x40 MLOAD PUSH2 0x304 SWAP2 SWAP1 PUSH2 0x1416 JUMP JUMPDEST PUSH1 0x40 MLOAD DUP1 SWAP2 SUB SWAP1 RETURN JUMPDEST PUSH1 0x60 PUSH1 0x3 DUP1 SLOAD PUSH2 0x31C SWAP1 PUSH2 0x157A JUMP JUMPDEST DUP1 PUSH1 0x1F ADD PUSH1 0x20 DUP1 SWAP2 DIV MUL PUSH1 0x20 ADD PUSH1 0x40 MLOAD SWAP1 DUP2 ADD PUSH1 0x40 MSTORE DUP1 SWAP3 SWAP2 SWAP1 DUP2 DUP2 MSTORE PUSH1 0x20 ADD DUP3 DUP1 SLOAD PUSH2 0x348 SWAP1 PUSH2 0x157A JUMP JUMPDEST DUP1 ISZERO PUSH2 0x395 JUMPI DUP1 PUSH1 0x1F LT PUSH2 0x36A JUMPI PUSH2 0x100 DUP1 DUP4 SLOAD DIV MUL DUP4 MSTORE SWAP2 PUSH1 0x20 ADD SWAP2 PUSH2 0x395 JUMP JUMPDEST DUP3 ADD SWAP2 SWAP1 PUSH1 0x0 MSTORE PUSH1 0x20 PUSH1 0x0 KECCAK256 SWAP1 JUMPDEST DUP2 SLOAD DUP2 MSTORE SWAP1 PUSH1 0x1 ADD SWAP1 PUSH1 0x20 ADD DUP1 DUP4 GT PUSH2 0x378 JUMPI DUP3 SWAP1 SUB PUSH1 0x1F AND DUP3 ADD SWAP2 JUMPDEST POP POP POP POP POP SWAP1 POP SWAP1 JUMP JUMPDEST PUSH1 0x0 PUSH2 0x3B3 PUSH2 0x3AC PUSH2 0x812 JUMP JUMPDEST DUP5 DUP5 PUSH2 0x81A JUMP JUMPDEST PUSH1 0x1 SWAP1 POP SWAP3 SWAP2 POP POP JUMP JUMPDEST PUSH1 0x5 SLOAD DUP2 JUMP JUMPDEST PUSH1 0x0 PUSH1 0x2 SLOAD SWAP1 POP SWAP1 JUMP JUMPDEST PUSH1 0x0 PUSH2 0x3DA DUP5 DUP5 DUP5 PUSH2 0x9E5 JUMP JUMPDEST PUSH1 0x0 PUSH1 0x1 PUSH1 0x0 DUP7 PUSH20 0xFFFFFFFFFFFFFFFFFFFFFFFFFFFFFFFFFFFFFFFF AND PUSH20 0xFFFFFFFFFFFFFFFFFFFFFFFFFFFFFFFFFFFFFFFF AND DUP2 MSTORE PUSH1 0x20 ADD SWAP1 DUP2 MSTORE PUSH1 0x20 ADD PUSH1 0x0 KECCAK256 PUSH1 0x0 PUSH2 0x425 PUSH2 0x812 JUMP JUMPDEST PUSH20 0xFFFFFFFFFFFFFFFFFFFFFFFFFFFFFFFFFFFFFFFF AND PUSH20 0xFFFFFFFFFFFFFFFFFFFFFFFFFFFFFFFFFFFFFFFF AND DUP2 MSTORE PUSH1 0x20 ADD SWAP1 DUP2 MSTORE PUSH1 0x20 ADD PUSH1 0x0 KECCAK256 SLOAD SWAP1 POP DUP3 DUP2 LT ISZERO PUSH2 0x4A5 JUMPI PUSH1 0x40 MLOAD PUSH32 0x8C379A000000000000000000000000000000000000000000000000000000000 DUP2 MSTORE PUSH1 0x4 ADD PUSH2 0x49C SWAP1 PUSH2 0x1356 JUMP JUMPDEST PUSH1 0x40 MLOAD DUP1 SWAP2 SUB SWAP1 REVERT JUMPDEST PUSH2 0x4C2 DUP6 PUSH2 0x4B1 PUSH2 0x812 JUMP JUMPDEST DUP6 DUP5 PUSH2 0x4BD SWAP2 SWAP1 PUSH2 0x14BE JUMP JUMPDEST PUSH2 0x81A JUMP JUMPDEST PUSH1 0x1 SWAP2 POP POP SWAP4 SWAP3 POP POP POP JUMP JUMPDEST PUSH1 0x0 PUSH1 0x12 SWAP1 POP SWAP1 JUMP JUMPDEST PUSH1 0x0 PUSH2 0x579 PUSH2 0x4E4 PUSH2 0x812 JUMP JUMPDEST DUP5 DUP5 PUSH1 0x1 PUSH1 0x0 PUSH2 0x4F2 PUSH2 0x812 JUMP JUMPDEST PUSH20 0xFFFFFFFFFFFFFFFFFFFFFFFFFFFFFFFFFFFFFFFF AND PUSH20 0xFFFFFFFFFFFFFFFFFFFFFFFFFFFFFFFFFFFFFFFF AND DUP2 MSTORE PUSH1 0x20 ADD SWAP1 DUP2 MSTORE PUSH1 0x20 ADD PUSH1 0x0 KECCAK256 PUSH1 0x0 DUP9 PUSH20 0xFFFFFFFFFFFFFFFFFFFFFFFFFFFFFFFFFFFFFFFF AND PUSH20 0xFFFFFFFFFFFFFFFFFFFFFFFFFFFFFFFFFFFFFFFF AND DUP2 MSTORE PUSH1 0x20 ADD SWAP1 DUP2 MSTORE PUSH1 0x20 ADD PUSH1 0x0 KECCAK256 SLOAD PUSH2 0x574 SWAP2 SWAP1 PUSH2 0x1468 JUMP JUMPDEST PUSH2 0x81A JUMP JUMPDEST PUSH1 0x1 SWAP1 POP SWAP3 SWAP2 POP POP JUMP JUMPDEST PUSH2 0x58D DUP3 DUP3 PUSH2 0xC64 JUMP JUMPDEST POP POP JUMP JUMPDEST PUSH1 0x0 DUP1 PUSH1 0x0 DUP4 PUSH20 0xFFFFFFFFFFFFFFFFFFFFFFFFFFFFFFFFFFFFFFFF AND PUSH20 0xFFFFFFFFFFFFFFFFFFFFFFFFFFFFFFFFFFFFFFFF AND DUP2 MSTORE PUSH1 0x20 ADD SWAP1 DUP2 MSTORE PUSH1 0x20 ADD PUSH1 0x0 KECCAK256 SLOAD SWAP1 POP SWAP2 SWAP1 POP JUMP JUMPDEST PUSH1 0x60 PUSH1 0x4 DUP1 SLOAD PUSH2 0x5E8 SWAP1 PUSH2 0x157A JUMP JUMPDEST DUP1 PUSH1 0x1F ADD PUSH1 0x20 DUP1 SWAP2 DIV MUL PUSH1 0x20 ADD PUSH1 0x40 MLOAD SWAP1 DUP2 ADD PUSH1 0x40 MSTORE DUP1 SWAP3 SWAP2 SWAP1 DUP2 DUP2 MSTORE PUSH1 0x20 ADD DUP3 DUP1 SLOAD PUSH2 0x614 SWAP1 PUSH2 0x157A JUMP JUMPDEST DUP1 ISZERO PUSH2 0x661 JUMPI DUP1 PUSH1 0x1F LT PUSH2 0x636 JUMPI PUSH2 0x100 DUP1 DUP4 SLOAD DIV MUL DUP4 MSTORE SWAP2 PUSH1 0x20 ADD SWAP2 PUSH2 0x661 JUMP JUMPDEST DUP3 ADD SWAP2 SWAP1 PUSH1 0x0 MSTORE PUSH1 0x20 PUSH1 0x0 KECCAK256 SWAP1 JUMPDEST DUP2 SLOAD DUP2 MSTORE SWAP1 PUSH1 0x1 ADD SWAP1 PUSH1 0x20 ADD DUP1 DUP4 GT PUSH2 0x644 JUMPI DUP3 SWAP1 SUB PUSH1 0x1F AND DUP3 ADD SWAP2 JUMPDEST POP POP POP POP POP SWAP1 POP SWAP1 JUMP JUMPDEST PUSH2 0x675 DUP3 DUP3 PUSH2 0xDB8 JUMP JUMPDEST POP POP JUMP JUMPDEST PUSH1 0x0 DUP1 PUSH1 0x1 PUSH1 0x0 PUSH2 0x688 PUSH2 0x812 JUMP JUMPDEST PUSH20 0xFFFFFFFFFFFFFFFFFFFFFFFFFFFFFFFFFFFFFFFF AND PUSH20 0xFFFFFFFFFFFFFFFFFFFFFFFFFFFFFFFFFFFFFFFF AND DUP2 MSTORE PUSH1 0x20 ADD SWAP1 DUP2 MSTORE PUSH1 0x20 ADD PUSH1 0x0 KECCAK256 PUSH1 0x0 DUP6 PUSH20 0xFFFFFFFFFFFFFFFFFFFFFFFFFFFFFFFFFFFFFFFF AND PUSH20 0xFFFFFFFFFFFFFFFFFFFFFFFFFFFFFFFFFFFFFFFF AND DUP2 MSTORE PUSH1 0x20 ADD SWAP1 DUP2 MSTORE PUSH1 0x20 ADD PUSH1 0x0 KECCAK256 SLOAD SWAP1 POP DUP3 DUP2 LT ISZERO PUSH2 0x745 JUMPI PUSH1 0x40 MLOAD PUSH32 0x8C379A000000000000000000000000000000000000000000000000000000000 DUP2 MSTORE PUSH1 0x4 ADD PUSH2 0x73C SWAP1 PUSH2 0x13D6 JUMP JUMPDEST PUSH1 0x40 MLOAD DUP1 SWAP2 SUB SWAP1 REVERT JUMPDEST PUSH2 0x762 PUSH2 0x750 PUSH2 0x812 JUMP JUMPDEST DUP6 DUP6 DUP5 PUSH2 0x75D SWAP2 SWAP1 PUSH2 0x14BE JUMP JUMPDEST PUSH2 0x81A JUMP JUMPDEST PUSH1 0x1 SWAP2 POP POP SWAP3 SWAP2 POP POP JUMP JUMPDEST PUSH1 0x0 PUSH2 0x781 PUSH2 0x77A PUSH2 0x812 JUMP JUMPDEST DUP5 DUP5 PUSH2 0x9E5 JUMP JUMPDEST PUSH1 0x1 SWAP1 POP SWAP3 SWAP2 POP POP JUMP JUMPDEST PUSH1 0x0 PUSH1 0x1 PUSH1 0x0 DUP5 PUSH20 0xFFFFFFFFFFFFFFFFFFFFFFFFFFFFFFFFFFFFFFFF AND PUSH20 0xFFFFFFFFFFFFFFFFFFFFFFFFFFFFFFFFFFFFFFFF AND DUP2 MSTORE PUSH1 0x20 ADD SWAP1 DUP2 MSTORE PUSH1 0x20 ADD PUSH1 0x0 KECCAK256 PUSH1 0x0 DUP4 PUSH20 0xFFFFFFFFFFFFFFFFFFFFFFFFFFFFFFFFFFFFFFFF AND PUSH20 0xFFFFFFFFFFFFFFFFFFFFFFFFFFFFFFFFFFFFFFFF AND DUP2 MSTORE PUSH1 0x20 ADD SWAP1 DUP2 MSTORE PUSH1 0x20 ADD PUSH1 0x0 KECCAK256 SLOAD SWAP1 POP SWAP3 SWAP2 POP POP JUMP JUMPDEST PUSH1 0x0 CALLER SWAP1 POP SWAP1 JUMP JUMPDEST PUSH1 0x0 PUSH20 0xFFFFFFFFFFFFFFFFFFFFFFFFFFFFFFFFFFFFFFFF AND DUP4 PUSH20 0xFFFFFFFFFFFFFFFFFFFFFFFFFFFFFFFFFFFFFFFF AND EQ ISZERO PUSH2 0x88A JUMPI PUSH1 0x40 MLOAD PUSH32 0x8C379A000000000000000000000000000000000000000000000000000000000 DUP2 MSTORE PUSH1 0x4 ADD PUSH2 0x881 SWAP1 PUSH2 0x13B6 JUMP JUMPDEST PUSH1 0x40 MLOAD DUP1 SWAP2 SUB SWAP1 REVERT JUMPDEST PUSH1 0x0 PUSH20 0xFFFFFFFFFFFFFFFFFFFFFFFFFFFFFFFFFFFFFFFF AND DUP3 PUSH20 0xFFFFFFFFFFFFFFFFFFFFFFFFFFFFFFFFFFFFFFFF AND EQ ISZERO PUSH2 0x8FA JUMPI PUSH1 0x40 MLOAD PUSH32 0x8C379A000000000000000000000000000000000000000000000000000000000 DUP2 MSTORE PUSH1 0x4 ADD PUSH2 0x8F1 SWAP1 PUSH2 0x1316 JUMP JUMPDEST PUSH1 0x40 MLOAD DUP1 SWAP2 SUB SWAP1 REVERT JUMPDEST DUP1 PUSH1 0x1 PUSH1 0x0 DUP6 PUSH20 0xFFFFFFFFFFFFFFFFFFFFFFFFFFFFFFFFFFFFFFFF AND PUSH20 0xFFFFFFFFFFFFFFFFFFFFFFFFFFFFFFFFFFFFFFFF AND DUP2 MSTORE PUSH1 0x20 ADD SWAP1 DUP2 MSTORE PUSH1 0x20 ADD PUSH1 0x0 KECCAK256 PUSH1 0x0 DUP5 PUSH20 0xFFFFFFFFFFFFFFFFFFFFFFFFFFFFFFFFFFFFFFFF AND PUSH20 0xFFFFFFFFFFFFFFFFFFFFFFFFFFFFFFFFFFFFFFFF AND DUP2 MSTORE PUSH1 0x20 ADD SWAP1 DUP2 MSTORE PUSH1 0x20 ADD PUSH1 0x0 KECCAK256 DUP2 SWAP1 SSTORE POP DUP2 PUSH20 0xFFFFFFFFFFFFFFFFFFFFFFFFFFFFFFFFFFFFFFFF AND DUP4 PUSH20 0xFFFFFFFFFFFFFFFFFFFFFFFFFFFFFFFFFFFFFFFF AND PUSH32 0x8C5BE1E5EBEC7D5BD14F71427D1E84F3DD0314C0F7B2291E5B200AC8C7C3B925 DUP4 PUSH1 0x40 MLOAD PUSH2 0x9D8 SWAP2 SWAP1 PUSH2 0x1416 JUMP JUMPDEST PUSH1 0x40 MLOAD DUP1 SWAP2 SUB SWAP1 LOG3 POP POP POP JUMP JUMPDEST PUSH1 0x0 PUSH20 0xFFFFFFFFFFFFFFFFFFFFFFFFFFFFFFFFFFFFFFFF AND DUP4 PUSH20 0xFFFFFFFFFFFFFFFFFFFFFFFFFFFFFFFFFFFFFFFF AND EQ ISZERO PUSH2 0xA55 JUMPI PUSH1 0x40 MLOAD PUSH32 0x8C379A000000000000000000000000000000000000000000000000000000000 DUP2 MSTORE PUSH1 0x4 ADD PUSH2 0xA4C SWAP1 PUSH2 0x1396 JUMP JUMPDEST PUSH1 0x40 MLOAD DUP1 SWAP2 SUB SWAP1 REVERT JUMPDEST PUSH1 0x0 PUSH20 0xFFFFFFFFFFFFFFFFFFFFFFFFFFFFFFFFFFFFFFFF AND DUP3 PUSH20 0xFFFFFFFFFFFFFFFFFFFFFFFFFFFFFFFFFFFFFFFF AND EQ ISZERO PUSH2 0xAC5 JUMPI PUSH1 0x40 MLOAD PUSH32 0x8C379A000000000000000000000000000000000000000000000000000000000 DUP2 MSTORE PUSH1 0x4 ADD PUSH2 0xABC SWAP1 PUSH2 0x12D6 JUMP JUMPDEST PUSH1 0x40 MLOAD DUP1 SWAP2 SUB SWAP1 REVERT JUMPDEST PUSH2 0xAD0 DUP4 DUP4 DUP4 PUSH2 0xF8C JUMP JUMPDEST PUSH1 0x0 DUP1 PUSH1 0x0 DUP6 PUSH20 0xFFFFFFFFFFFFFFFFFFFFFFFFFFFFFFFFFFFFFFFF AND PUSH20 0xFFFFFFFFFFFFFFFFFFFFFFFFFFFFFFFFFFFFFFFF AND DUP2 MSTORE PUSH1 0x20 ADD SWAP1 DUP2 MSTORE PUSH1 0x20 ADD PUSH1 0x0 KECCAK256 SLOAD SWAP1 POP DUP2 DUP2 LT ISZERO PUSH2 0xB56 JUMPI PUSH1 0x40 MLOAD PUSH32 0x8C379A000000000000000000000000000000000000000000000000000000000 DUP2 MSTORE PUSH1 0x4 ADD PUSH2 0xB4D SWAP1 PUSH2 0x1336 JUMP JUMPDEST PUSH1 0x40 MLOAD DUP1 SWAP2 SUB SWAP1 REVERT JUMPDEST DUP2 DUP2 PUSH2 0xB62 SWAP2 SWAP1 PUSH2 0x14BE JUMP JUMPDEST PUSH1 0x0 DUP1 DUP7 PUSH20 0xFFFFFFFFFFFFFFFFFFFFFFFFFFFFFFFFFFFFFFFF AND PUSH20 0xFFFFFFFFFFFFFFFFFFFFFFFFFFFFFFFFFFFFFFFF AND DUP2 MSTORE PUSH1 0x20 ADD SWAP1 DUP2 MSTORE PUSH1 0x20 ADD PUSH1 0x0 KECCAK256 DUP2 SWAP1 SSTORE POP DUP2 PUSH1 0x0 DUP1 DUP6 PUSH20 0xFFFFFFFFFFFFFFFFFFFFFFFFFFFFFFFFFFFFFFFF AND PUSH20 0xFFFFFFFFFFFFFFFFFFFFFFFFFFFFFFFFFFFFFFFF AND DUP2 MSTORE PUSH1 0x20 ADD SWAP1 DUP2 MSTORE PUSH1 0x20 ADD PUSH1 0x0 KECCAK256 PUSH1 0x0 DUP3 DUP3 SLOAD PUSH2 0xBF2 SWAP2 SWAP1 PUSH2 0x1468 JUMP JUMPDEST SWAP3 POP POP DUP2 SWAP1 SSTORE POP DUP3 PUSH20 0xFFFFFFFFFFFFFFFFFFFFFFFFFFFFFFFFFFFFFFFF AND DUP5 PUSH20 0xFFFFFFFFFFFFFFFFFFFFFFFFFFFFFFFFFFFFFFFF AND PUSH32 0xDDF252AD1BE2C89B69C2B068FC378DAA952BA7F163C4A11628F55A4DF523B3EF DUP5 PUSH1 0x40 MLOAD PUSH2 0xC56 SWAP2 SWAP1 PUSH2 0x1416 JUMP JUMPDEST PUSH1 0x40 MLOAD DUP1 SWAP2 SUB SWAP1 LOG3 POP POP POP POP JUMP JUMPDEST PUSH1 0x0 PUSH20 0xFFFFFFFFFFFFFFFFFFFFFFFFFFFFFFFFFFFFFFFF AND DUP3 PUSH20 0xFFFFFFFFFFFFFFFFFFFFFFFFFFFFFFFFFFFFFFFF AND EQ ISZERO PUSH2 0xCD4 JUMPI PUSH1 0x40 MLOAD PUSH32 0x8C379A000000000000000000000000000000000000000000000000000000000 DUP2 MSTORE PUSH1 0x4 ADD PUSH2 0xCCB SWAP1 PUSH2 0x13F6 JUMP JUMPDEST PUSH1 0x40 MLOAD DUP1 SWAP2 SUB SWAP1 REVERT JUMPDEST PUSH2 0xCE0 PUSH1 0x0 DUP4 DUP4 PUSH2 0xF8C JUMP JUMPDEST DUP1 PUSH1 0x2 PUSH1 0x0 DUP3 DUP3 SLOAD PUSH2 0xCF2 SWAP2 SWAP1 PUSH2 0x1468 JUMP JUMPDEST SWAP3 POP POP DUP2 SWAP1 SSTORE POP DUP1 PUSH1 0x0 DUP1 DUP5 PUSH20 0xFFFFFFFFFFFFFFFFFFFFFFFFFFFFFFFFFFFFFFFF AND PUSH20 0xFFFFFFFFFFFFFFFFFFFFFFFFFFFFFFFFFFFFFFFF AND DUP2 MSTORE PUSH1 0x20 ADD SWAP1 DUP2 MSTORE PUSH1 0x20 ADD PUSH1 0x0 KECCAK256 PUSH1 0x0 DUP3 DUP3 SLOAD PUSH2 0xD47 SWAP2 SWAP1 PUSH2 0x1468 JUMP JUMPDEST SWAP3 POP POP DUP2 SWAP1 SSTORE POP DUP2 PUSH20 0xFFFFFFFFFFFFFFFFFFFFFFFFFFFFFFFFFFFFFFFF AND PUSH1 0x0 PUSH20 0xFFFFFFFFFFFFFFFFFFFFFFFFFFFFFFFFFFFFFFFF AND PUSH32 0xDDF252AD1BE2C89B69C2B068FC378DAA952BA7F163C4A11628F55A4DF523B3EF DUP4 PUSH1 0x40 MLOAD PUSH2 0xDAC SWAP2 SWAP1 PUSH2 0x1416 JUMP JUMPDEST PUSH1 0x40 MLOAD DUP1 SWAP2 SUB SWAP1 LOG3 POP POP JUMP JUMPDEST PUSH1 0x0 PUSH20 0xFFFFFFFFFFFFFFFFFFFFFFFFFFFFFFFFFFFFFFFF AND DUP3 PUSH20 0xFFFFFFFFFFFFFFFFFFFFFFFFFFFFFFFFFFFFFFFF AND EQ ISZERO PUSH2 0xE28 JUMPI PUSH1 0x40 MLOAD PUSH32 0x8C379A000000000000000000000000000000000000000000000000000000000 DUP2 MSTORE PUSH1 0x4 ADD PUSH2 0xE1F SWAP1 PUSH2 0x1376 JUMP JUMPDEST PUSH1 0x40 MLOAD DUP1 SWAP2 SUB SWAP1 REVERT JUMPDEST PUSH2 0xE34 DUP3 PUSH1 0x0 DUP4 PUSH2 0xF8C JUMP JUMPDEST PUSH1 0x0 DUP1 PUSH1 0x0 DUP5 PUSH20 0xFFFFFFFFFFFFFFFFFFFFFFFFFFFFFFFFFFFFFFFF AND PUSH20 0xFFFFFFFFFFFFFFFFFFFFFFFFFFFFFFFFFFFFFFFF AND DUP2 MSTORE PUSH1 0x20 ADD SWAP1 DUP2 MSTORE PUSH1 0x20 ADD PUSH1 0x0 KECCAK256 SLOAD SWAP1 POP DUP2 DUP2 LT ISZERO PUSH2 0xEBA JUMPI PUSH1 0x40 MLOAD PUSH32 0x8C379A000000000000000000000000000000000000000000000000000000000 DUP2 MSTORE PUSH1 0x4 ADD PUSH2 0xEB1 SWAP1 PUSH2 0x12F6 JUMP JUMPDEST PUSH1 0x40 MLOAD DUP1 SWAP2 SUB SWAP1 REVERT JUMPDEST DUP2 DUP2 PUSH2 0xEC6 SWAP2 SWAP1 PUSH2 0x14BE JUMP JUMPDEST PUSH1 0x0 DUP1 DUP6 PUSH20 0xFFFFFFFFFFFFFFFFFFFFFFFFFFFFFFFFFFFFFFFF AND PUSH20 0xFFFFFFFFFFFFFFFFFFFFFFFFFFFFFFFFFFFFFFFF AND DUP2 MSTORE PUSH1 0x20 ADD SWAP1 DUP2 MSTORE PUSH1 0x20 ADD PUSH1 0x0 KECCAK256 DUP2 SWAP1 SSTORE POP DUP2 PUSH1 0x2 PUSH1 0x0 DUP3 DUP3 SLOAD PUSH2 0xF1A SWAP2 SWAP1 PUSH2 0x14BE JUMP JUMPDEST SWAP3 POP POP DUP2 SWAP1 SSTORE POP PUSH1 0x0 PUSH20 0xFFFFFFFFFFFFFFFFFFFFFFFFFFFFFFFFFFFFFFFF AND DUP4 PUSH20 0xFFFFFFFFFFFFFFFFFFFFFFFFFFFFFFFFFFFFFFFF AND PUSH32 0xDDF252AD1BE2C89B69C2B068FC378DAA952BA7F163C4A11628F55A4DF523B3EF DUP5 PUSH1 0x40 MLOAD PUSH2 0xF7F SWAP2 SWAP1 PUSH2 0x1416 JUMP JUMPDEST PUSH1 0x40 MLOAD DUP1 SWAP2 SUB SWAP1 LOG3 POP POP POP JUMP JUMPDEST PUSH1 0x1 PUSH1 0x5 PUSH1 0x0 DUP3 DUP3 SLOAD PUSH2 0xF9F SWAP2 SWAP1 PUSH2 0x1468 JUMP JUMPDEST SWAP3 POP POP DUP2 SWAP1 SSTORE POP POP POP POP JUMP JUMPDEST PUSH1 0x0 DUP2 CALLDATALOAD SWAP1 POP PUSH2 0xFBA DUP2 PUSH2 0x1910 JUMP JUMPDEST SWAP3 SWAP2 POP POP JUMP JUMPDEST PUSH1 0x0 DUP2 CALLDATALOAD SWAP1 POP PUSH2 0xFCF DUP2 PUSH2 0x1927 JUMP JUMPDEST SWAP3 SWAP2 POP POP JUMP JUMPDEST PUSH1 0x0 PUSH1 0x20 DUP3 DUP5 SUB SLT ISZERO PUSH2 0xFEB JUMPI PUSH2 0xFEA PUSH2 0x160A JUMP JUMPDEST JUMPDEST PUSH1 0x0 PUSH2 0xFF9 DUP5 DUP3 DUP6 ADD PUSH2 0xFAB JUMP JUMPDEST SWAP2 POP POP SWAP3 SWAP2 POP POP JUMP JUMPDEST PUSH1 0x0 DUP1 PUSH1 0x40 DUP4 DUP6 SUB SLT ISZERO PUSH2 0x1019 JUMPI PUSH2 0x1018 PUSH2 0x160A JUMP JUMPDEST JUMPDEST PUSH1 0x0 PUSH2 0x1027 DUP6 DUP3 DUP7 ADD PUSH2 0xFAB JUMP JUMPDEST SWAP3 POP POP PUSH1 0x20 PUSH2 0x1038 DUP6 DUP3 DUP7 ADD PUSH2 0xFAB JUMP JUMPDEST SWAP2 POP POP SWAP3 POP SWAP3 SWAP1 POP JUMP JUMPDEST PUSH1 0x0 DUP1 PUSH1 0x0 PUSH1 0x60 DUP5 DUP7 SUB SLT ISZERO PUSH2 0x105B JUMPI PUSH2 0x105A PUSH2 0x160A JUMP JUMPDEST JUMPDEST PUSH1 0x0 PUSH2 0x1069 DUP7 DUP3 DUP8 ADD PUSH2 0xFAB JUMP JUMPDEST SWAP4 POP POP PUSH1 0x20 PUSH2 0x107A DUP7 DUP3 DUP8 ADD PUSH2 0xFAB JUMP JUMPDEST SWAP3 POP POP PUSH1 0x40 PUSH2 0x108B DUP7 DUP3 DUP8 ADD PUSH2 0xFC0 JUMP JUMPDEST SWAP2 POP POP SWAP3 POP SWAP3 POP SWAP3 JUMP JUMPDEST PUSH1 0x0 DUP1 PUSH1 0x40 DUP4 DUP6 SUB SLT ISZERO PUSH2 0x10AC JUMPI PUSH2 0x10AB PUSH2 0x160A JUMP JUMPDEST JUMPDEST PUSH1 0x0 PUSH2 0x10BA DUP6 DUP3 DUP7 ADD PUSH2 0xFAB JUMP JUMPDEST SWAP3 POP POP PUSH1 0x20 PUSH2 0x10CB DUP6 DUP3 DUP7 ADD PUSH2 0xFC0 JUMP JUMPDEST SWAP2 POP POP SWAP3 POP SWAP3 SWAP1 POP JUMP JUMPDEST PUSH2 0x10DE DUP2 PUSH2 0x1504 JUMP JUMPDEST DUP3 MSTORE POP POP JUMP JUMPDEST PUSH1 0x0 PUSH2 0x10EF DUP3 PUSH2 0x144C JUMP JUMPDEST PUSH2 0x10F9 DUP2 DUP6 PUSH2 0x1457 JUMP JUMPDEST SWAP4 POP PUSH2 0x1109 DUP2 DUP6 PUSH1 0x20 DUP7 ADD PUSH2 0x1547 JUMP JUMPDEST PUSH2 0x1112 DUP2 PUSH2 0x160F JUMP JUMPDEST DUP5 ADD SWAP2 POP POP SWAP3 SWAP2 POP POP JUMP JUMPDEST PUSH1 0x0 PUSH2 0x112A PUSH1 0x23 DUP4 PUSH2 0x1457 JUMP JUMPDEST SWAP2 POP PUSH2 0x1135 DUP3 PUSH2 0x1620 JUMP JUMPDEST PUSH1 0x40 DUP3 ADD SWAP1 POP SWAP2 SWAP1 POP JUMP JUMPDEST PUSH1 0x0 PUSH2 0x114D PUSH1 0x22 DUP4 PUSH2 0x1457 JUMP JUMPDEST SWAP2 POP PUSH2 0x1158 DUP3 PUSH2 0x166F JUMP JUMPDEST PUSH1 0x40 DUP3 ADD SWAP1 POP SWAP2 SWAP1 POP JUMP JUMPDEST PUSH1 0x0 PUSH2 0x1170 PUSH1 0x22 DUP4 PUSH2 0x1457 JUMP JUMPDEST SWAP2 POP PUSH2 0x117B DUP3 PUSH2 0x16BE JUMP JUMPDEST PUSH1 0x40 DUP3 ADD SWAP1 POP SWAP2 SWAP1 POP JUMP JUMPDEST PUSH1 0x0 PUSH2 0x1193 PUSH1 0x26 DUP4 PUSH2 0x1457 JUMP JUMPDEST SWAP2 POP PUSH2 0x119E DUP3 PUSH2 0x170D JUMP JUMPDEST PUSH1 0x40 DUP3 ADD SWAP1 POP SWAP2 SWAP1 POP JUMP JUMPDEST PUSH1 0x0 PUSH2 0x11B6 PUSH1 0x28 DUP4 PUSH2 0x1457 JUMP JUMPDEST SWAP2 POP PUSH2 0x11C1 DUP3 PUSH2 0x175C JUMP JUMPDEST PUSH1 0x40 DUP3 ADD SWAP1 POP SWAP2 SWAP1 POP JUMP JUMPDEST PUSH1 0x0 PUSH2 0x11D9 PUSH1 0x21 DUP4 PUSH2 0x1457 JUMP JUMPDEST SWAP2 POP PUSH2 0x11E4 DUP3 PUSH2 0x17AB JUMP JUMPDEST PUSH1 0x40 DUP3 ADD SWAP1 POP SWAP2 SWAP1 POP JUMP JUMPDEST PUSH1 0x0 PUSH2 0x11FC PUSH1 0x25 DUP4 PUSH2 0x1457 JUMP JUMPDEST SWAP2 POP PUSH2 0x1207 DUP3 PUSH2 0x17FA JUMP JUMPDEST PUSH1 0x40 DUP3 ADD SWAP1 POP SWAP2 SWAP1 POP JUMP JUMPDEST PUSH1 0x0 PUSH2 0x121F PUSH1 0x24 DUP4 PUSH2 0x1457 JUMP JUMPDEST SWAP2 POP PUSH2 0x122A DUP3 PUSH2 0x1849 JUMP JUMPDEST PUSH1 0x40 DUP3 ADD SWAP1 POP SWAP2 SWAP1 POP JUMP JUMPDEST PUSH1 0x0 PUSH2 0x1242 PUSH1 0x25 DUP4 PUSH2 0x1457 JUMP JUMPDEST SWAP2 POP PUSH2 0x124D DUP3 PUSH2 0x1898 JUMP JUMPDEST PUSH1 0x40 DUP3 ADD SWAP1 POP SWAP2 SWAP1 POP JUMP JUMPDEST PUSH1 0x0 PUSH2 0x1265 PUSH1 0x1F DUP4 PUSH2 0x1457 JUMP JUMPDEST SWAP2 POP PUSH2 0x1270 DUP3 PUSH2 0x18E7 JUMP JUMPDEST PUSH1 0x20 DUP3 ADD SWAP1 POP SWAP2 SWAP1 POP JUMP JUMPDEST PUSH2 0x1284 DUP2 PUSH2 0x1530 JUMP JUMPDEST DUP3 MSTORE POP POP JUMP JUMPDEST PUSH2 0x1293 DUP2 PUSH2 0x153A JUMP JUMPDEST DUP3 MSTORE POP POP JUMP JUMPDEST PUSH1 0x0 PUSH1 0x20 DUP3 ADD SWAP1 POP PUSH2 0x12AE PUSH1 0x0 DUP4 ADD DUP5 PUSH2 0x10D5 JUMP JUMPDEST SWAP3 SWAP2 POP POP JUMP JUMPDEST PUSH1 0x0 PUSH1 0x20 DUP3 ADD SWAP1 POP DUP2 DUP2 SUB PUSH1 0x0 DUP4 ADD MSTORE PUSH2 0x12CE DUP2 DUP5 PUSH2 0x10E4 JUMP JUMPDEST SWAP1 POP SWAP3 SWAP2 POP POP JUMP JUMPDEST PUSH1 0x0 PUSH1 0x20 DUP3 ADD SWAP1 POP DUP2 DUP2 SUB PUSH1 0x0 DUP4 ADD MSTORE PUSH2 0x12EF DUP2 PUSH2 0x111D JUMP JUMPDEST SWAP1 POP SWAP2 SWAP1 POP JUMP JUMPDEST PUSH1 0x0 PUSH1 0x20 DUP3 ADD SWAP1 POP DUP2 DUP2 SUB PUSH1 0x0 DUP4 ADD MSTORE PUSH2 0x130F DUP2 PUSH2 0x1140 JUMP JUMPDEST SWAP1 POP SWAP2 SWAP1 POP JUMP JUMPDEST PUSH1 0x0 PUSH1 0x20 DUP3 ADD SWAP1 POP DUP2 DUP2 SUB PUSH1 0x0 DUP4 ADD MSTORE PUSH2 0x132F DUP2 PUSH2 0x1163 JUMP JUMPDEST SWAP1 POP SWAP2 SWAP1 POP JUMP JUMPDEST PUSH1 0x0 PUSH1 0x20 DUP3 ADD SWAP1 POP DUP2 DUP2 SUB PUSH1 0x0 DUP4 ADD MSTORE PUSH2 0x134F DUP2 PUSH2 0x1186 JUMP JUMPDEST SWAP1 POP SWAP2 SWAP1 POP JUMP JUMPDEST PUSH1 0x0 PUSH1 0x20 DUP3 ADD SWAP1 POP DUP2 DUP2 SUB PUSH1 0x0 DUP4 ADD MSTORE PUSH2 0x136F DUP2 PUSH2 0x11A9 JUMP JUMPDEST SWAP1 POP SWAP2 SWAP1 POP JUMP JUMPDEST PUSH1 0x0 PUSH1 0x20 DUP3 ADD SWAP1 POP DUP2 DUP2 SUB PUSH1 0x0 DUP4 ADD MSTORE PUSH2 0x138F DUP2 PUSH2 0x11CC JUMP JUMPDEST SWAP1 POP SWAP2 SWAP1 POP JUMP JUMPDEST PUSH1 0x0 PUSH1 0x20 DUP3 ADD SWAP1 POP DUP2 DUP2 SUB PUSH1 0x0 DUP4 ADD MSTORE PUSH2 0x13AF DUP2 PUSH2 0x11EF JUMP JUMPDEST SWAP1 POP SWAP2 SWAP1 POP JUMP JUMPDEST PUSH1 0x0 PUSH1 0x20 DUP3 ADD SWAP1 POP DUP2 DUP2 SUB PUSH1 0x0 DUP4 ADD MSTORE PUSH2 0x13CF DUP2 PUSH2 0x1212 JUMP JUMPDEST SWAP1 POP SWAP2 SWAP1 POP JUMP JUMPDEST PUSH1 0x0 PUSH1 0x20 DUP3 ADD SWAP1 POP DUP2 DUP2 SUB PUSH1 0x0 DUP4 ADD MSTORE PUSH2 0x13EF DUP2 PUSH2 0x1235 JUMP JUMPDEST SWAP1 POP SWAP2 SWAP1 POP JUMP JUMPDEST PUSH1 0x0 PUSH1 0x20 DUP3 ADD SWAP1 POP DUP2 DUP2 SUB PUSH1 0x0 DUP4 ADD MSTORE PUSH2 0x140F DUP2 PUSH2 0x1258 JUMP JUMPDEST SWAP1 POP SWAP2 SWAP1 POP JUMP JUMPDEST PUSH1 0x0 PUSH1 0x20 DUP3 ADD SWAP1 POP PUSH2 0x142B PUSH1 0x0 DUP4 ADD DUP5 PUSH2 0x127B JUMP JUMPDEST SWAP3 SWAP2 POP POP JUMP JUMPDEST PUSH1 0x0 PUSH1 0x20 DUP3 ADD SWAP1 POP PUSH2 0x1446 PUSH1 0x0 DUP4 ADD DUP5 PUSH2 0x128A JUMP JUMPDEST SWAP3 SWAP2 POP POP JUMP JUMPDEST PUSH1 0x0 DUP2 MLOAD SWAP1 POP SWAP2 SWAP1 POP JUMP JUMPDEST PUSH1 0x0 DUP3 DUP3 MSTORE PUSH1 0x20 DUP3 ADD SWAP1 POP SWAP3 SWAP2 POP POP JUMP JUMPDEST PUSH1 0x0 PUSH2 0x1473 DUP3 PUSH2 0x1530 JUMP JUMPDEST SWAP2 POP PUSH2 0x147E DUP4 PUSH2 0x1530 JUMP JUMPDEST SWAP3 POP DUP3 PUSH32 0xFFFFFFFFFFFFFFFFFFFFFFFFFFFFFFFFFFFFFFFFFFFFFFFFFFFFFFFFFFFFFFFF SUB DUP3 GT ISZERO PUSH2 0x14B3 JUMPI PUSH2 0x14B2 PUSH2 0x15AC JUMP JUMPDEST JUMPDEST DUP3 DUP3 ADD SWAP1 POP SWAP3 SWAP2 POP POP JUMP JUMPDEST PUSH1 0x0 PUSH2 0x14C9 DUP3 PUSH2 0x1530 JUMP JUMPDEST SWAP2 POP PUSH2 0x14D4 DUP4 PUSH2 0x1530 JUMP JUMPDEST SWAP3 POP DUP3 DUP3 LT ISZERO PUSH2 0x14E7 JUMPI PUSH2 0x14E6 PUSH2 0x15AC JUMP JUMPDEST JUMPDEST DUP3 DUP3 SUB SWAP1 POP SWAP3 SWAP2 POP POP JUMP JUMPDEST PUSH1 0x0 PUSH2 0x14FD DUP3 PUSH2 0x1510 JUMP JUMPDEST SWAP1 POP SWAP2 SWAP1 POP JUMP JUMPDEST PUSH1 0x0 DUP2 ISZERO ISZERO SWAP1 POP SWAP2 SWAP1 POP JUMP JUMPDEST PUSH1 0x0 PUSH20 0xFFFFFFFFFFFFFFFFFFFFFFFFFFFFFFFFFFFFFFFF DUP3 AND SWAP1 POP SWAP2 SWAP1 POP JUMP JUMPDEST PUSH1 0x0 DUP2 SWAP1 POP SWAP2 SWAP1 POP JUMP JUMPDEST PUSH1 0x0 PUSH1 0xFF DUP3 AND SWAP1 POP SWAP2 SWAP1 POP JUMP JUMPDEST PUSH1 0x0 JUMPDEST DUP4 DUP2 LT ISZERO PUSH2 0x1565 JUMPI DUP1 DUP3 ADD MLOAD DUP2 DUP5 ADD MSTORE PUSH1 0x20 DUP2 ADD SWAP1 POP PUSH2 0x154A JUMP JUMPDEST DUP4 DUP2 GT ISZERO PUSH2 0x1574 JUMPI PUSH1 0x0 DUP5 DUP5 ADD MSTORE JUMPDEST POP POP POP POP JUMP JUMPDEST PUSH1 0x0 PUSH1 0x2 DUP3 DIV SWAP1 POP PUSH1 0x1 DUP3 AND DUP1 PUSH2 0x1592 JUMPI PUSH1 0x7F DUP3 AND SWAP2 POP JUMPDEST PUSH1 0x20 DUP3 LT DUP2 EQ ISZERO PUSH2 0x15A6 JUMPI PUSH2 0x15A5 PUSH2 0x15DB JUMP JUMPDEST JUMPDEST POP SWAP2 SWAP1 POP JUMP JUMPDEST PUSH32 0x4E487B7100000000000000000000000000000000000000000000000000000000 PUSH1 0x0 MSTORE PUSH1 0x11 PUSH1 0x4 MSTORE PUSH1 0x24 PUSH1 0x0 REVERT JUMPDEST PUSH32 0x4E487B7100000000000000000000000000000000000000000000000000000000 PUSH1 0x0 MSTORE PUSH1 0x22 PUSH1 0x4 MSTORE PUSH1 0x24 PUSH1 0x0 REVERT JUMPDEST PUSH1 0x0 DUP1 REVERT JUMPDEST PUSH1 0x0 PUSH1 0x1F NOT PUSH1 0x1F DUP4 ADD AND SWAP1 POP SWAP2 SWAP1 POP JUMP JUMPDEST PUSH32 0x45524332303A207472616E7366657220746F20746865207A65726F2061646472 PUSH1 0x0 DUP3 ADD MSTORE PUSH32 0x6573730000000000000000000000000000000000000000000000000000000000 PUSH1 0x20 DUP3 ADD MSTORE POP JUMP JUMPDEST PUSH32 0x45524332303A206275726E20616D6F756E7420657863656564732062616C616E PUSH1 0x0 DUP3 ADD MSTORE PUSH32 0x6365000000000000000000000000000000000000000000000000000000000000 PUSH1 0x20 DUP3 ADD MSTORE POP JUMP JUMPDEST PUSH32 0x45524332303A20617070726F766520746F20746865207A65726F206164647265 PUSH1 0x0 DUP3 ADD MSTORE PUSH32 0x7373000000000000000000000000000000000000000000000000000000000000 PUSH1 0x20 DUP3 ADD MSTORE POP JUMP JUMPDEST PUSH32 0x45524332303A207472616E7366657220616D6F756E7420657863656564732062 PUSH1 0x0 DUP3 ADD MSTORE PUSH32 0x616C616E63650000000000000000000000000000000000000000000000000000 PUSH1 0x20 DUP3 ADD MSTORE POP JUMP JUMPDEST PUSH32 0x45524332303A207472616E7366657220616D6F756E7420657863656564732061 PUSH1 0x0 DUP3 ADD MSTORE PUSH32 0x6C6C6F77616E6365000000000000000000000000000000000000000000000000 PUSH1 0x20 DUP3 ADD MSTORE POP JUMP JUMPDEST PUSH32 0x45524332303A206275726E2066726F6D20746865207A65726F20616464726573 PUSH1 0x0 DUP3 ADD MSTORE PUSH32 0x7300000000000000000000000000000000000000000000000000000000000000 PUSH1 0x20 DUP3 ADD MSTORE POP JUMP JUMPDEST PUSH32 0x45524332303A207472616E736665722066726F6D20746865207A65726F206164 PUSH1 0x0 DUP3 ADD MSTORE PUSH32 0x6472657373000000000000000000000000000000000000000000000000000000 PUSH1 0x20 DUP3 ADD MSTORE POP JUMP JUMPDEST PUSH32 0x45524332303A20617070726F76652066726F6D20746865207A65726F20616464 PUSH1 0x0 DUP3 ADD MSTORE PUSH32 0x7265737300000000000000000000000000000000000000000000000000000000 PUSH1 0x20 DUP3 ADD MSTORE POP JUMP JUMPDEST PUSH32 0x45524332303A2064656372656173656420616C6C6F77616E63652062656C6F77 PUSH1 0x0 DUP3 ADD MSTORE PUSH32 0x207A65726F000000000000000000000000000000000000000000000000000000 PUSH1 0x20 DUP3 ADD MSTORE POP JUMP JUMPDEST PUSH32 0x45524332303A206D696E7420746F20746865207A65726F206164647265737300 PUSH1 0x0 DUP3 ADD MSTORE POP JUMP JUMPDEST PUSH2 0x1919 DUP2 PUSH2 0x14F2 JUMP JUMPDEST DUP2 EQ PUSH2 0x1924 JUMPI PUSH1 0x0 DUP1 REVERT JUMPDEST POP JUMP JUMPDEST PUSH2 0x1930 DUP2 PUSH2 0x1530 JUMP JUMPDEST DUP2 EQ PUSH2 0x193B JUMPI PUSH1 0x0 DUP1 REVERT JUMPDEST POP JUMP INVALID LOG2 PUSH5 0x6970667358 0x22 SLT KECCAK256 DUP13 PUSH22 0x7548406222E08B0AF5B33C5E0593F37B5D03B733D0CD 0x29 SHR SWAP9 0x2A 0x4F 0xDC 0xA5 CALLDATACOPY PUSH5 0x736F6C6343 STOP ADDMOD SDIV STOP CALLER "
				},
				"gasEstimates": {
					"creation": {
						"codeDepositCost": "1303200",
						"executionCost": "infinite",
						"totalCost": "infinite"
					},
					"external": {
						"allowance(address,address)": "infinite",
						"approve(address,uint256)": "infinite",
						"balanceOf(address)": "2886",
						"burn(address,uint256)": "infinite",
						"decimals()": "410",
						"decreaseAllowance(address,uint256)": "infinite",
						"increaseAllowance(address,uint256)": "infinite",
						"mint(address,uint256)": "infinite",
						"name()": "infinite",
						"symbol()": "infinite",
						"token_transfer_count()": "2497",
						"totalSupply()": "2460",
						"transfer(address,uint256)": "infinite",
						"transferFrom(address,address,uint256)": "infinite"
					},
					"internal": {
						"_beforeTokenTransfer(address,address,uint256)": "infinite"
					}
				},
				"methodIdentifiers": {
					"allowance(address,address)": "dd62ed3e",
					"approve(address,uint256)": "095ea7b3",
					"balanceOf(address)": "70a08231",
					"burn(address,uint256)": "9dc29fac",
					"decimals()": "313ce567",
					"decreaseAllowance(address,uint256)": "a457c2d7",
					"increaseAllowance(address,uint256)": "39509351",
					"mint(address,uint256)": "40c10f19",
					"name()": "06fdde03",
					"symbol()": "95d89b41",
					"token_transfer_count()": "160f00c1",
					"totalSupply()": "18160ddd",
					"transfer(address,uint256)": "a9059cbb",
					"transferFrom(address,address,uint256)": "23b872dd"
				}
			},
			"storageLayout": {
				"storage": [
					{
						"astId": 79,
						"contract": "contracts/MyToken.sol:MyERC20",
						"label": "_balances",
						"offset": 0,
						"slot": "0",
						"type": "t_mapping(t_address,t_uint256)"
					},
					{
						"astId": 85,
						"contract": "contracts/MyToken.sol:MyERC20",
						"label": "_allowances",
						"offset": 0,
						"slot": "1",
						"type": "t_mapping(t_address,t_mapping(t_address,t_uint256))"
					},
					{
						"astId": 87,
						"contract": "contracts/MyToken.sol:MyERC20",
						"label": "_totalSupply",
						"offset": 0,
						"slot": "2",
						"type": "t_uint256"
					},
					{
						"astId": 89,
						"contract": "contracts/MyToken.sol:MyERC20",
						"label": "_name",
						"offset": 0,
						"slot": "3",
						"type": "t_string_storage"
					},
					{
						"astId": 91,
						"contract": "contracts/MyToken.sol:MyERC20",
						"label": "_symbol",
						"offset": 0,
						"slot": "4",
						"type": "t_string_storage"
					},
					{
						"astId": 7,
						"contract": "contracts/MyToken.sol:MyERC20",
						"label": "token_transfer_count",
						"offset": 0,
						"slot": "5",
						"type": "t_uint256"
					}
				],
				"types": {
					"t_address": {
						"encoding": "inplace",
						"label": "address",
						"numberOfBytes": "20"
					},
					"t_mapping(t_address,t_mapping(t_address,t_uint256))": {
						"encoding": "mapping",
						"key": "t_address",
						"label": "mapping(address => mapping(address => uint256))",
						"numberOfBytes": "32",
						"value": "t_mapping(t_address,t_uint256)"
					},
					"t_mapping(t_address,t_uint256)": {
						"encoding": "mapping",
						"key": "t_address",
						"label": "mapping(address => uint256)",
						"numberOfBytes": "32",
						"value": "t_uint256"
					},
					"t_string_storage": {
						"encoding": "bytes",
						"label": "string",
						"numberOfBytes": "32"
					},
					"t_uint256": {
						"encoding": "inplace",
						"label": "uint256",
						"numberOfBytes": "32"
					}
				}
			},
			"userdoc": {
				"kind": "user",
				"methods": {},
				"version": 1
			}
		}
	}
}