{
	".learneth/Solidity para principiantes/10.3 Transacciones - Enviar Ether/sendingEther.sol": {
		"SendEther": {
			"abi": [
				{
					"inputs": [
						{
							"internalType": "address payable",
							"name": "_to",
							"type": "address"
						}
					],
					"name": "sendViaCall",
					"outputs": [],
					"stateMutability": "payable",
					"type": "function"
				},
				{
					"inputs": [
						{
							"internalType": "address payable",
							"name": "_to",
							"type": "address"
						}
					],
					"name": "sendViaSend",
					"outputs": [],
					"stateMutability": "payable",
					"type": "function"
				},
				{
					"inputs": [
						{
							"internalType": "address payable",
							"name": "_to",
							"type": "address"
						}
					],
					"name": "sendViaTransfer",
					"outputs": [],
					"stateMutability": "payable",
					"type": "function"
				}
			],
			"devdoc": {
				"kind": "dev",
				"methods": {},
				"version": 1
			},
			"evm": {
				"assembly": "    /* \".learneth/Solidity para principiantes/10.3 Transacciones - Enviar Ether/sendingEther.sol\":675:1483  contract SendEther {... */\n  mstore(0x40, 0x80)\n  callvalue\n  dup1\n  iszero\n  tag_1\n  jumpi\n  0x00\n  dup1\n  revert\ntag_1:\n  pop\n  dataSize(sub_0)\n  dup1\n  dataOffset(sub_0)\n  0x00\n  codecopy\n  0x00\n  return\nstop\n\nsub_0: assembly {\n        /* \".learneth/Solidity para principiantes/10.3 Transacciones - Enviar Ether/sendingEther.sol\":675:1483  contract SendEther {... */\n      mstore(0x40, 0x80)\n      jumpi(tag_1, lt(calldatasize, 0x04))\n      shr(0xe0, calldataload(0x00))\n      dup1\n      0x636e082b\n      eq\n      tag_2\n      jumpi\n      dup1\n      0x74be4806\n      eq\n      tag_3\n      jumpi\n      dup1\n      0x830c29ae\n      eq\n      tag_4\n      jumpi\n    tag_1:\n      0x00\n      dup1\n      revert\n        /* \".learneth/Solidity para principiantes/10.3 Transacciones - Enviar Ether/sendingEther.sol\":700:870  function sendViaTransfer(address payable _to) public payable {... */\n    tag_2:\n      tag_5\n      0x04\n      dup1\n      calldatasize\n      sub\n      dup2\n      add\n      swap1\n      tag_6\n      swap2\n      swap1\n      tag_7\n      jump\t// in\n    tag_6:\n      tag_8\n      jump\t// in\n    tag_5:\n      stop\n        /* \".learneth/Solidity para principiantes/10.3 Transacciones - Enviar Ether/sendingEther.sol\":876:1162  function sendViaSend(address payable _to) public payable {... */\n    tag_3:\n      tag_9\n      0x04\n      dup1\n      calldatasize\n      sub\n      dup2\n      add\n      swap1\n      tag_10\n      swap2\n      swap1\n      tag_7\n      jump\t// in\n    tag_10:\n      tag_11\n      jump\t// in\n    tag_9:\n      stop\n        /* \".learneth/Solidity para principiantes/10.3 Transacciones - Enviar Ether/sendingEther.sol\":1168:1481  function sendViaCall(address payable _to) public payable {... */\n    tag_4:\n      tag_12\n      0x04\n      dup1\n      calldatasize\n      sub\n      dup2\n      add\n      swap1\n      tag_13\n      swap2\n      swap1\n      tag_7\n      jump\t// in\n    tag_13:\n      tag_14\n      jump\t// in\n    tag_12:\n      stop\n        /* \".learneth/Solidity para principiantes/10.3 Transacciones - Enviar Ether/sendingEther.sol\":700:870  function sendViaTransfer(address payable _to) public payable {... */\n    tag_8:\n        /* \".learneth/Solidity para principiantes/10.3 Transacciones - Enviar Ether/sendingEther.sol\":840:843  _to */\n      dup1\n        /* \".learneth/Solidity para principiantes/10.3 Transacciones - Enviar Ether/sendingEther.sol\":840:852  _to.transfer */\n      0xffffffffffffffffffffffffffffffffffffffff\n      and\n        /* \".learneth/Solidity para principiantes/10.3 Transacciones - Enviar Ether/sendingEther.sol\":840:863  _to.transfer(msg.value) */\n      0x08fc\n        /* \".learneth/Solidity para principiantes/10.3 Transacciones - Enviar Ether/sendingEther.sol\":853:862  msg.value */\n      callvalue\n        /* \".learneth/Solidity para principiantes/10.3 Transacciones - Enviar Ether/sendingEther.sol\":840:863  _to.transfer(msg.value) */\n      swap1\n      dup2\n      iszero\n      mul\n      swap1\n      mload(0x40)\n      0x00\n      mload(0x40)\n      dup1\n      dup4\n      sub\n      dup2\n      dup6\n      dup9\n      dup9\n      call\n      swap4\n      pop\n      pop\n      pop\n      pop\n      iszero\n      dup1\n      iszero\n      tag_17\n      jumpi\n      returndatasize\n      0x00\n      dup1\n      returndatacopy\n      revert(0x00, returndatasize)\n    tag_17:\n      pop\n        /* \".learneth/Solidity para principiantes/10.3 Transacciones - Enviar Ether/sendingEther.sol\":700:870  function sendViaTransfer(address payable _to) public payable {... */\n      pop\n      jump\t// out\n        /* \".learneth/Solidity para principiantes/10.3 Transacciones - Enviar Ether/sendingEther.sol\":876:1162  function sendViaSend(address payable _to) public payable {... */\n    tag_11:\n        /* \".learneth/Solidity para principiantes/10.3 Transacciones - Enviar Ether/sendingEther.sol\":1077:1086  bool sent */\n      0x00\n        /* \".learneth/Solidity para principiantes/10.3 Transacciones - Enviar Ether/sendingEther.sol\":1089:1092  _to */\n      dup2\n        /* \".learneth/Solidity para principiantes/10.3 Transacciones - Enviar Ether/sendingEther.sol\":1089:1097  _to.send */\n      0xffffffffffffffffffffffffffffffffffffffff\n      and\n        /* \".learneth/Solidity para principiantes/10.3 Transacciones - Enviar Ether/sendingEther.sol\":1089:1108  _to.send(msg.value) */\n      0x08fc\n        /* \".learneth/Solidity para principiantes/10.3 Transacciones - Enviar Ether/sendingEther.sol\":1098:1107  msg.value */\n      callvalue\n        /* \".learneth/Solidity para principiantes/10.3 Transacciones - Enviar Ether/sendingEther.sol\":1089:1108  _to.send(msg.value) */\n      swap1\n      dup2\n      iszero\n      mul\n      swap1\n      mload(0x40)\n      0x00\n      mload(0x40)\n      dup1\n      dup4\n      sub\n      dup2\n      dup6\n      dup9\n      dup9\n      call\n      swap4\n      pop\n      pop\n      pop\n      pop\n        /* \".learneth/Solidity para principiantes/10.3 Transacciones - Enviar Ether/sendingEther.sol\":1077:1108  bool sent = _to.send(msg.value) */\n      swap1\n      pop\n        /* \".learneth/Solidity para principiantes/10.3 Transacciones - Enviar Ether/sendingEther.sol\":1126:1130  sent */\n      dup1\n        /* \".learneth/Solidity para principiantes/10.3 Transacciones - Enviar Ether/sendingEther.sol\":1118:1155  require(sent, \"Failed to send Ether\") */\n      tag_20\n      jumpi\n      mload(0x40)\n      0x08c379a000000000000000000000000000000000000000000000000000000000\n      dup2\n      mstore\n      0x04\n      add\n      tag_21\n      swap1\n      tag_22\n      jump\t// in\n    tag_21:\n      mload(0x40)\n      dup1\n      swap2\n      sub\n      swap1\n      revert\n    tag_20:\n        /* \".learneth/Solidity para principiantes/10.3 Transacciones - Enviar Ether/sendingEther.sol\":933:1162  {... */\n      pop\n        /* \".learneth/Solidity para principiantes/10.3 Transacciones - Enviar Ether/sendingEther.sol\":876:1162  function sendViaSend(address payable _to) public payable {... */\n      pop\n      jump\t// out\n        /* \".learneth/Solidity para principiantes/10.3 Transacciones - Enviar Ether/sendingEther.sol\":1168:1481  function sendViaCall(address payable _to) public payable {... */\n    tag_14:\n        /* \".learneth/Solidity para principiantes/10.3 Transacciones - Enviar Ether/sendingEther.sol\":1365:1374  bool sent */\n      0x00\n        /* \".learneth/Solidity para principiantes/10.3 Transacciones - Enviar Ether/sendingEther.sol\":1376:1393  bytes memory data */\n      dup1\n        /* \".learneth/Solidity para principiantes/10.3 Transacciones - Enviar Ether/sendingEther.sol\":1397:1400  _to */\n      dup3\n        /* \".learneth/Solidity para principiantes/10.3 Transacciones - Enviar Ether/sendingEther.sol\":1397:1405  _to.call */\n      0xffffffffffffffffffffffffffffffffffffffff\n      and\n        /* \".learneth/Solidity para principiantes/10.3 Transacciones - Enviar Ether/sendingEther.sol\":1413:1422  msg.value */\n      callvalue\n        /* \".learneth/Solidity para principiantes/10.3 Transacciones - Enviar Ether/sendingEther.sol\":1397:1427  _to.call{value: msg.value}(\"\") */\n      mload(0x40)\n      tag_24\n      swap1\n      tag_25\n      jump\t// in\n    tag_24:\n      0x00\n      mload(0x40)\n      dup1\n      dup4\n      sub\n      dup2\n      dup6\n      dup8\n      gas\n      call\n      swap3\n      pop\n      pop\n      pop\n      returndatasize\n      dup1\n      0x00\n      dup2\n      eq\n      tag_28\n      jumpi\n      mload(0x40)\n      swap2\n      pop\n      and(add(returndatasize, 0x3f), not(0x1f))\n      dup3\n      add\n      0x40\n      mstore\n      returndatasize\n      dup3\n      mstore\n      returndatasize\n      0x00\n      0x20\n      dup5\n      add\n      returndatacopy\n      jump(tag_27)\n    tag_28:\n      0x60\n      swap2\n      pop\n    tag_27:\n      pop\n        /* \".learneth/Solidity para principiantes/10.3 Transacciones - Enviar Ether/sendingEther.sol\":1364:1427  (bool sent, bytes memory data) = _to.call{value: msg.value}(\"\") */\n      swap2\n      pop\n      swap2\n      pop\n        /* \".learneth/Solidity para principiantes/10.3 Transacciones - Enviar Ether/sendingEther.sol\":1445:1449  sent */\n      dup2\n        /* \".learneth/Solidity para principiantes/10.3 Transacciones - Enviar Ether/sendingEther.sol\":1437:1474  require(sent, \"Failed to send Ether\") */\n      tag_29\n      jumpi\n      mload(0x40)\n      0x08c379a000000000000000000000000000000000000000000000000000000000\n      dup2\n      mstore\n      0x04\n      add\n      tag_30\n      swap1\n      tag_22\n      jump\t// in\n    tag_30:\n      mload(0x40)\n      dup1\n      swap2\n      sub\n      swap1\n      revert\n    tag_29:\n        /* \".learneth/Solidity para principiantes/10.3 Transacciones - Enviar Ether/sendingEther.sol\":1225:1481  {... */\n      pop\n      pop\n        /* \".learneth/Solidity para principiantes/10.3 Transacciones - Enviar Ether/sendingEther.sol\":1168:1481  function sendViaCall(address payable _to) public payable {... */\n      pop\n      jump\t// out\n        /* \"#utility.yul\":7:162   */\n    tag_32:\n        /* \"#utility.yul\":61:66   */\n      0x00\n        /* \"#utility.yul\":99:105   */\n      dup2\n        /* \"#utility.yul\":86:106   */\n      calldataload\n        /* \"#utility.yul\":77:106   */\n      swap1\n      pop\n        /* \"#utility.yul\":115:156   */\n      tag_34\n        /* \"#utility.yul\":150:155   */\n      dup2\n        /* \"#utility.yul\":115:156   */\n      tag_35\n      jump\t// in\n    tag_34:\n        /* \"#utility.yul\":7:162   */\n      swap3\n      swap2\n      pop\n      pop\n      jump\t// out\n        /* \"#utility.yul\":168:513   */\n    tag_7:\n        /* \"#utility.yul\":235:241   */\n      0x00\n        /* \"#utility.yul\":284:286   */\n      0x20\n        /* \"#utility.yul\":272:281   */\n      dup3\n        /* \"#utility.yul\":263:270   */\n      dup5\n        /* \"#utility.yul\":259:282   */\n      sub\n        /* \"#utility.yul\":255:287   */\n      slt\n        /* \"#utility.yul\":252:371   */\n      iszero\n      tag_37\n      jumpi\n        /* \"#utility.yul\":290:369   */\n      tag_38\n      tag_39\n      jump\t// in\n    tag_38:\n        /* \"#utility.yul\":252:371   */\n    tag_37:\n        /* \"#utility.yul\":410:411   */\n      0x00\n        /* \"#utility.yul\":435:496   */\n      tag_40\n        /* \"#utility.yul\":488:495   */\n      dup5\n        /* \"#utility.yul\":479:485   */\n      dup3\n        /* \"#utility.yul\":468:477   */\n      dup6\n        /* \"#utility.yul\":464:486   */\n      add\n        /* \"#utility.yul\":435:496   */\n      tag_32\n      jump\t// in\n    tag_40:\n        /* \"#utility.yul\":425:496   */\n      swap2\n      pop\n        /* \"#utility.yul\":381:506   */\n      pop\n        /* \"#utility.yul\":168:513   */\n      swap3\n      swap2\n      pop\n      pop\n      jump\t// out\n        /* \"#utility.yul\":519:885   */\n    tag_41:\n        /* \"#utility.yul\":661:664   */\n      0x00\n        /* \"#utility.yul\":682:749   */\n      tag_43\n        /* \"#utility.yul\":746:748   */\n      0x14\n        /* \"#utility.yul\":741:744   */\n      dup4\n        /* \"#utility.yul\":682:749   */\n      tag_44\n      jump\t// in\n    tag_43:\n        /* \"#utility.yul\":675:749   */\n      swap2\n      pop\n        /* \"#utility.yul\":758:851   */\n      tag_45\n        /* \"#utility.yul\":847:850   */\n      dup3\n        /* \"#utility.yul\":758:851   */\n      tag_46\n      jump\t// in\n    tag_45:\n        /* \"#utility.yul\":876:878   */\n      0x20\n        /* \"#utility.yul\":871:874   */\n      dup3\n        /* \"#utility.yul\":867:879   */\n      add\n        /* \"#utility.yul\":860:879   */\n      swap1\n      pop\n        /* \"#utility.yul\":519:885   */\n      swap2\n      swap1\n      pop\n      jump\t// out\n        /* \"#utility.yul\":891:1289   */\n    tag_47:\n        /* \"#utility.yul\":1050:1053   */\n      0x00\n        /* \"#utility.yul\":1071:1154   */\n      tag_49\n        /* \"#utility.yul\":1152:1153   */\n      0x00\n        /* \"#utility.yul\":1147:1150   */\n      dup4\n        /* \"#utility.yul\":1071:1154   */\n      tag_50\n      jump\t// in\n    tag_49:\n        /* \"#utility.yul\":1064:1154   */\n      swap2\n      pop\n        /* \"#utility.yul\":1163:1256   */\n      tag_51\n        /* \"#utility.yul\":1252:1255   */\n      dup3\n        /* \"#utility.yul\":1163:1256   */\n      tag_52\n      jump\t// in\n    tag_51:\n        /* \"#utility.yul\":1281:1282   */\n      0x00\n        /* \"#utility.yul\":1276:1279   */\n      dup3\n        /* \"#utility.yul\":1272:1283   */\n      add\n        /* \"#utility.yul\":1265:1283   */\n      swap1\n      pop\n        /* \"#utility.yul\":891:1289   */\n      swap2\n      swap1\n      pop\n      jump\t// out\n        /* \"#utility.yul\":1295:1674   */\n    tag_25:\n        /* \"#utility.yul\":1479:1482   */\n      0x00\n        /* \"#utility.yul\":1501:1648   */\n      tag_54\n        /* \"#utility.yul\":1644:1647   */\n      dup3\n        /* \"#utility.yul\":1501:1648   */\n      tag_47\n      jump\t// in\n    tag_54:\n        /* \"#utility.yul\":1494:1648   */\n      swap2\n      pop\n        /* \"#utility.yul\":1665:1668   */\n      dup2\n        /* \"#utility.yul\":1658:1668   */\n      swap1\n      pop\n        /* \"#utility.yul\":1295:1674   */\n      swap2\n      swap1\n      pop\n      jump\t// out\n        /* \"#utility.yul\":1680:2099   */\n    tag_22:\n        /* \"#utility.yul\":1846:1850   */\n      0x00\n        /* \"#utility.yul\":1884:1886   */\n      0x20\n        /* \"#utility.yul\":1873:1882   */\n      dup3\n        /* \"#utility.yul\":1869:1887   */\n      add\n        /* \"#utility.yul\":1861:1887   */\n      swap1\n      pop\n        /* \"#utility.yul\":1933:1942   */\n      dup2\n        /* \"#utility.yul\":1927:1931   */\n      dup2\n        /* \"#utility.yul\":1923:1943   */\n      sub\n        /* \"#utility.yul\":1919:1920   */\n      0x00\n        /* \"#utility.yul\":1908:1917   */\n      dup4\n        /* \"#utility.yul\":1904:1921   */\n      add\n        /* \"#utility.yul\":1897:1944   */\n      mstore\n        /* \"#utility.yul\":1961:2092   */\n      tag_56\n        /* \"#utility.yul\":2087:2091   */\n      dup2\n        /* \"#utility.yul\":1961:2092   */\n      tag_41\n      jump\t// in\n    tag_56:\n        /* \"#utility.yul\":1953:2092   */\n      swap1\n      pop\n        /* \"#utility.yul\":1680:2099   */\n      swap2\n      swap1\n      pop\n      jump\t// out\n        /* \"#utility.yul\":2186:2333   */\n    tag_50:\n        /* \"#utility.yul\":2287:2298   */\n      0x00\n        /* \"#utility.yul\":2324:2327   */\n      dup2\n        /* \"#utility.yul\":2309:2327   */\n      swap1\n      pop\n        /* \"#utility.yul\":2186:2333   */\n      swap3\n      swap2\n      pop\n      pop\n      jump\t// out\n        /* \"#utility.yul\":2339:2508   */\n    tag_44:\n        /* \"#utility.yul\":2423:2434   */\n      0x00\n        /* \"#utility.yul\":2457:2463   */\n      dup3\n        /* \"#utility.yul\":2452:2455   */\n      dup3\n        /* \"#utility.yul\":2445:2464   */\n      mstore\n        /* \"#utility.yul\":2497:2501   */\n      0x20\n        /* \"#utility.yul\":2492:2495   */\n      dup3\n        /* \"#utility.yul\":2488:2502   */\n      add\n        /* \"#utility.yul\":2473:2502   */\n      swap1\n      pop\n        /* \"#utility.yul\":2339:2508   */\n      swap3\n      swap2\n      pop\n      pop\n      jump\t// out\n        /* \"#utility.yul\":2514:2618   */\n    tag_61:\n        /* \"#utility.yul\":2559:2566   */\n      0x00\n        /* \"#utility.yul\":2588:2612   */\n      tag_63\n        /* \"#utility.yul\":2606:2611   */\n      dup3\n        /* \"#utility.yul\":2588:2612   */\n      tag_64\n      jump\t// in\n    tag_63:\n        /* \"#utility.yul\":2577:2612   */\n      swap1\n      pop\n        /* \"#utility.yul\":2514:2618   */\n      swap2\n      swap1\n      pop\n      jump\t// out\n        /* \"#utility.yul\":2624:2750   */\n    tag_64:\n        /* \"#utility.yul\":2661:2668   */\n      0x00\n        /* \"#utility.yul\":2701:2743   */\n      0xffffffffffffffffffffffffffffffffffffffff\n        /* \"#utility.yul\":2694:2699   */\n      dup3\n        /* \"#utility.yul\":2690:2744   */\n      and\n        /* \"#utility.yul\":2679:2744   */\n      swap1\n      pop\n        /* \"#utility.yul\":2624:2750   */\n      swap2\n      swap1\n      pop\n      jump\t// out\n        /* \"#utility.yul\":2879:2996   */\n    tag_39:\n        /* \"#utility.yul\":2988:2989   */\n      0x00\n        /* \"#utility.yul\":2985:2986   */\n      dup1\n        /* \"#utility.yul\":2978:2990   */\n      revert\n        /* \"#utility.yul\":3002:3172   */\n    tag_46:\n        /* \"#utility.yul\":3142:3164   */\n      0x4661696c656420746f2073656e64204574686572000000000000000000000000\n        /* \"#utility.yul\":3138:3139   */\n      0x00\n        /* \"#utility.yul\":3130:3136   */\n      dup3\n        /* \"#utility.yul\":3126:3140   */\n      add\n        /* \"#utility.yul\":3119:3165   */\n      mstore\n        /* \"#utility.yul\":3002:3172   */\n      pop\n      jump\t// out\n        /* \"#utility.yul\":3178:3292   */\n    tag_52:\n      pop\n      jump\t// out\n        /* \"#utility.yul\":3298:3436   */\n    tag_35:\n        /* \"#utility.yul\":3379:3411   */\n      tag_72\n        /* \"#utility.yul\":3405:3410   */\n      dup2\n        /* \"#utility.yul\":3379:3411   */\n      tag_61\n      jump\t// in\n    tag_72:\n        /* \"#utility.yul\":3372:3377   */\n      dup2\n        /* \"#utility.yul\":3369:3412   */\n      eq\n        /* \"#utility.yul\":3359:3430   */\n      tag_73\n      jumpi\n        /* \"#utility.yul\":3426:3427   */\n      0x00\n        /* \"#utility.yul\":3423:3424   */\n      dup1\n        /* \"#utility.yul\":3416:3428   */\n      revert\n        /* \"#utility.yul\":3359:3430   */\n    tag_73:\n        /* \"#utility.yul\":3298:3436   */\n      pop\n      jump\t// out\n\n    auxdata: 0xa2646970667358221220421c616cf024f25e20fe6cbdaae132db0e7d8944caf9cc6bf67c19e60d5f173264736f6c63430008070033\n}\n",
				"bytecode": {
					"linkReferences": {},
					"object": "608060405234801561001057600080fd5b50610390806100206000396000f3fe6080604052600436106100345760003560e01c8063636e082b1461003957806374be480614610055578063830c29ae14610071575b600080fd5b610053600480360381019061004e919061021c565b61008d565b005b61006f600480360381019061006a919061021c565b6100d7565b005b61008b6004803603810190610086919061021c565b610154565b005b8073ffffffffffffffffffffffffffffffffffffffff166108fc349081150290604051600060405180830381858888f193505050501580156100d3573d6000803e3d6000fd5b5050565b60008173ffffffffffffffffffffffffffffffffffffffff166108fc349081150290604051600060405180830381858888f19350505050905080610150576040517f08c379a0000000000000000000000000000000000000000000000000000000008152600401610147906102a4565b60405180910390fd5b5050565b6000808273ffffffffffffffffffffffffffffffffffffffff163460405161017b9061028f565b60006040518083038185875af1925050503d80600081146101b8576040519150601f19603f3d011682016040523d82523d6000602084013e6101bd565b606091505b509150915081610202576040517f08c379a00000000000000000000000000000000000000000000000000000000081526004016101f9906102a4565b60405180910390fd5b505050565b60008135905061021681610343565b92915050565b60006020828403121561023257610231610312565b5b600061024084828501610207565b91505092915050565b60006102566014836102cf565b915061026182610317565b602082019050919050565b60006102796000836102c4565b915061028482610340565b600082019050919050565b600061029a8261026c565b9150819050919050565b600060208201905081810360008301526102bd81610249565b9050919050565b600081905092915050565b600082825260208201905092915050565b60006102eb826102f2565b9050919050565b600073ffffffffffffffffffffffffffffffffffffffff82169050919050565b600080fd5b7f4661696c656420746f2073656e64204574686572000000000000000000000000600082015250565b50565b61034c816102e0565b811461035757600080fd5b5056fea2646970667358221220421c616cf024f25e20fe6cbdaae132db0e7d8944caf9cc6bf67c19e60d5f173264736f6c63430008070033",
					"opcodes": "PUSH1 0x80 PUSH1 0x40 MSTORE CALLVALUE DUP1 ISZERO PUSH2 0x10 JUMPI PUSH1 0x0 DUP1 REVERT JUMPDEST POP PUSH2 0x390 DUP1 PUSH2 0x20 PUSH1 0x0 CODECOPY PUSH1 0x0 RETURN INVALID PUSH1 0x80 PUSH1 0x40 MSTORE PUSH1 0x4 CALLDATASIZE LT PUSH2 0x34 JUMPI PUSH1 0x0 CALLDATALOAD PUSH1 0xE0 SHR DUP1 PUSH4 0x636E082B EQ PUSH2 0x39 JUMPI DUP1 PUSH4 0x74BE4806 EQ PUSH2 0x55 JUMPI DUP1 PUSH4 0x830C29AE EQ PUSH2 0x71 JUMPI JUMPDEST PUSH1 0x0 DUP1 REVERT JUMPDEST PUSH2 0x53 PUSH1 0x4 DUP1 CALLDATASIZE SUB DUP2 ADD SWAP1 PUSH2 0x4E SWAP2 SWAP1 PUSH2 0x21C JUMP JUMPDEST PUSH2 0x8D JUMP JUMPDEST STOP JUMPDEST PUSH2 0x6F PUSH1 0x4 DUP1 CALLDATASIZE SUB DUP2 ADD SWAP1 PUSH2 0x6A SWAP2 SWAP1 PUSH2 0x21C JUMP JUMPDEST PUSH2 0xD7 JUMP JUMPDEST STOP JUMPDEST PUSH2 0x8B PUSH1 0x4 DUP1 CALLDATASIZE SUB DUP2 ADD SWAP1 PUSH2 0x86 SWAP2 SWAP1 PUSH2 0x21C JUMP JUMPDEST PUSH2 0x154 JUMP JUMPDEST STOP JUMPDEST DUP1 PUSH20 0xFFFFFFFFFFFFFFFFFFFFFFFFFFFFFFFFFFFFFFFF AND PUSH2 0x8FC CALLVALUE SWAP1 DUP2 ISZERO MUL SWAP1 PUSH1 0x40 MLOAD PUSH1 0x0 PUSH1 0x40 MLOAD DUP1 DUP4 SUB DUP2 DUP6 DUP9 DUP9 CALL SWAP4 POP POP POP POP ISZERO DUP1 ISZERO PUSH2 0xD3 JUMPI RETURNDATASIZE PUSH1 0x0 DUP1 RETURNDATACOPY RETURNDATASIZE PUSH1 0x0 REVERT JUMPDEST POP POP JUMP JUMPDEST PUSH1 0x0 DUP2 PUSH20 0xFFFFFFFFFFFFFFFFFFFFFFFFFFFFFFFFFFFFFFFF AND PUSH2 0x8FC CALLVALUE SWAP1 DUP2 ISZERO MUL SWAP1 PUSH1 0x40 MLOAD PUSH1 0x0 PUSH1 0x40 MLOAD DUP1 DUP4 SUB DUP2 DUP6 DUP9 DUP9 CALL SWAP4 POP POP POP POP SWAP1 POP DUP1 PUSH2 0x150 JUMPI PUSH1 0x40 MLOAD PUSH32 0x8C379A000000000000000000000000000000000000000000000000000000000 DUP2 MSTORE PUSH1 0x4 ADD PUSH2 0x147 SWAP1 PUSH2 0x2A4 JUMP JUMPDEST PUSH1 0x40 MLOAD DUP1 SWAP2 SUB SWAP1 REVERT JUMPDEST POP POP JUMP JUMPDEST PUSH1 0x0 DUP1 DUP3 PUSH20 0xFFFFFFFFFFFFFFFFFFFFFFFFFFFFFFFFFFFFFFFF AND CALLVALUE PUSH1 0x40 MLOAD PUSH2 0x17B SWAP1 PUSH2 0x28F JUMP JUMPDEST PUSH1 0x0 PUSH1 0x40 MLOAD DUP1 DUP4 SUB DUP2 DUP6 DUP8 GAS CALL SWAP3 POP POP POP RETURNDATASIZE DUP1 PUSH1 0x0 DUP2 EQ PUSH2 0x1B8 JUMPI PUSH1 0x40 MLOAD SWAP2 POP PUSH1 0x1F NOT PUSH1 0x3F RETURNDATASIZE ADD AND DUP3 ADD PUSH1 0x40 MSTORE RETURNDATASIZE DUP3 MSTORE RETURNDATASIZE PUSH1 0x0 PUSH1 0x20 DUP5 ADD RETURNDATACOPY PUSH2 0x1BD JUMP JUMPDEST PUSH1 0x60 SWAP2 POP JUMPDEST POP SWAP2 POP SWAP2 POP DUP2 PUSH2 0x202 JUMPI PUSH1 0x40 MLOAD PUSH32 0x8C379A000000000000000000000000000000000000000000000000000000000 DUP2 MSTORE PUSH1 0x4 ADD PUSH2 0x1F9 SWAP1 PUSH2 0x2A4 JUMP JUMPDEST PUSH1 0x40 MLOAD DUP1 SWAP2 SUB SWAP1 REVERT JUMPDEST POP POP POP JUMP JUMPDEST PUSH1 0x0 DUP2 CALLDATALOAD SWAP1 POP PUSH2 0x216 DUP2 PUSH2 0x343 JUMP JUMPDEST SWAP3 SWAP2 POP POP JUMP JUMPDEST PUSH1 0x0 PUSH1 0x20 DUP3 DUP5 SUB SLT ISZERO PUSH2 0x232 JUMPI PUSH2 0x231 PUSH2 0x312 JUMP JUMPDEST JUMPDEST PUSH1 0x0 PUSH2 0x240 DUP5 DUP3 DUP6 ADD PUSH2 0x207 JUMP JUMPDEST SWAP2 POP POP SWAP3 SWAP2 POP POP JUMP JUMPDEST PUSH1 0x0 PUSH2 0x256 PUSH1 0x14 DUP4 PUSH2 0x2CF JUMP JUMPDEST SWAP2 POP PUSH2 0x261 DUP3 PUSH2 0x317 JUMP JUMPDEST PUSH1 0x20 DUP3 ADD SWAP1 POP SWAP2 SWAP1 POP JUMP JUMPDEST PUSH1 0x0 PUSH2 0x279 PUSH1 0x0 DUP4 PUSH2 0x2C4 JUMP JUMPDEST SWAP2 POP PUSH2 0x284 DUP3 PUSH2 0x340 JUMP JUMPDEST PUSH1 0x0 DUP3 ADD SWAP1 POP SWAP2 SWAP1 POP JUMP JUMPDEST PUSH1 0x0 PUSH2 0x29A DUP3 PUSH2 0x26C JUMP JUMPDEST SWAP2 POP DUP2 SWAP1 POP SWAP2 SWAP1 POP JUMP JUMPDEST PUSH1 0x0 PUSH1 0x20 DUP3 ADD SWAP1 POP DUP2 DUP2 SUB PUSH1 0x0 DUP4 ADD MSTORE PUSH2 0x2BD DUP2 PUSH2 0x249 JUMP JUMPDEST SWAP1 POP SWAP2 SWAP1 POP JUMP JUMPDEST PUSH1 0x0 DUP2 SWAP1 POP SWAP3 SWAP2 POP POP JUMP JUMPDEST PUSH1 0x0 DUP3 DUP3 MSTORE PUSH1 0x20 DUP3 ADD SWAP1 POP SWAP3 SWAP2 POP POP JUMP JUMPDEST PUSH1 0x0 PUSH2 0x2EB DUP3 PUSH2 0x2F2 JUMP JUMPDEST SWAP1 POP SWAP2 SWAP1 POP JUMP JUMPDEST PUSH1 0x0 PUSH20 0xFFFFFFFFFFFFFFFFFFFFFFFFFFFFFFFFFFFFFFFF DUP3 AND SWAP1 POP SWAP2 SWAP1 POP JUMP JUMPDEST PUSH1 0x0 DUP1 REVERT JUMPDEST PUSH32 0x4661696C656420746F2073656E64204574686572000000000000000000000000 PUSH1 0x0 DUP3 ADD MSTORE POP JUMP JUMPDEST POP JUMP JUMPDEST PUSH2 0x34C DUP2 PUSH2 0x2E0 JUMP JUMPDEST DUP2 EQ PUSH2 0x357 JUMPI PUSH1 0x0 DUP1 REVERT JUMPDEST POP JUMP INVALID LOG2 PUSH5 0x6970667358 0x22 SLT KECCAK256 TIMESTAMP SHR PUSH2 0x6CF0 0x24 CALLCODE 0x5E KECCAK256 INVALID PUSH13 0xBDAAE132DB0E7D8944CAF9CC6B 0xF6 PUSH29 0x19E60D5F173264736F6C63430008070033000000000000000000000000 "
				},
				"gasEstimates": {
					"creation": {
						"codeDepositCost": "182400",
						"executionCost": "226",
						"totalCost": "182626"
					},
					"external": {
						"sendViaCall(address)": "infinite",
						"sendViaSend(address)": "infinite",
						"sendViaTransfer(address)": "infinite"
					}
				},
				"methodIdentifiers": {
					"sendViaCall(address)": "830c29ae",
					"sendViaSend(address)": "74be4806",
					"sendViaTransfer(address)": "636e082b"
				}
			},
			"storageLayout": {
				"storage": [],
				"types": null
			},
			"userdoc": {
				"kind": "user",
				"methods": {},
				"version": 1
			}
		}
	}
}