{
	".learneth/Solidity para principiantes/10.3 Transacciones - Enviar Ether/sendingEther.sol": {
		"Charity": {
			"abi": [
				{
					"inputs": [],
					"stateMutability": "nonpayable",
					"type": "constructor"
				},
				{
					"inputs": [],
					"name": "donate",
					"outputs": [],
					"stateMutability": "payable",
					"type": "function"
				},
				{
					"inputs": [],
					"name": "owner",
					"outputs": [
						{
							"internalType": "address",
							"name": "",
							"type": "address"
						}
					],
					"stateMutability": "view",
					"type": "function"
				},
				{
					"inputs": [],
					"name": "withdraw",
					"outputs": [],
					"stateMutability": "nonpayable",
					"type": "function"
				}
			],
			"devdoc": {
				"kind": "dev",
				"methods": {},
				"version": 1
			},
			"evm": {
				"assembly": "    /* \".learneth/Solidity para principiantes/10.3 Transacciones - Enviar Ether/sendingEther.sol\":1485:1840  contract Charity {... */\n  mstore(0x40, 0x80)\n    /* \".learneth/Solidity para principiantes/10.3 Transacciones - Enviar Ether/sendingEther.sol\":1539:1588  constructor() {... */\n  callvalue\n  dup1\n  iszero\n  tag_1\n  jumpi\n  0x00\n  dup1\n  revert\ntag_1:\n  pop\n    /* \".learneth/Solidity para principiantes/10.3 Transacciones - Enviar Ether/sendingEther.sol\":1571:1581  msg.sender */\n  caller\n    /* \".learneth/Solidity para principiantes/10.3 Transacciones - Enviar Ether/sendingEther.sol\":1563:1568  owner */\n  0x00\n  dup1\n    /* \".learneth/Solidity para principiantes/10.3 Transacciones - Enviar Ether/sendingEther.sol\":1563:1581  owner = msg.sender */\n  0x0100\n  exp\n  dup2\n  sload\n  dup2\n  0xffffffffffffffffffffffffffffffffffffffff\n  mul\n  not\n  and\n  swap1\n  dup4\n  0xffffffffffffffffffffffffffffffffffffffff\n  and\n  mul\n  or\n  swap1\n  sstore\n  pop\n    /* \".learneth/Solidity para principiantes/10.3 Transacciones - Enviar Ether/sendingEther.sol\":1485:1840  contract Charity {... */\n  dataSize(sub_0)\n  dup1\n  dataOffset(sub_0)\n  0x00\n  codecopy\n  0x00\n  return\nstop\n\nsub_0: assembly {\n        /* \".learneth/Solidity para principiantes/10.3 Transacciones - Enviar Ether/sendingEther.sol\":1485:1840  contract Charity {... */\n      mstore(0x40, 0x80)\n      jumpi(tag_1, lt(calldatasize, 0x04))\n      shr(0xe0, calldataload(0x00))\n      dup1\n      0x3ccfd60b\n      eq\n      tag_2\n      jumpi\n      dup1\n      0x8da5cb5b\n      eq\n      tag_3\n      jumpi\n      dup1\n      0xed88c68e\n      eq\n      tag_4\n      jumpi\n    tag_1:\n      0x00\n      dup1\n      revert\n        /* \".learneth/Solidity para principiantes/10.3 Transacciones - Enviar Ether/sendingEther.sol\":1639:1838  function withdraw() public {... */\n    tag_2:\n      callvalue\n      dup1\n      iszero\n      tag_5\n      jumpi\n      0x00\n      dup1\n      revert\n    tag_5:\n      pop\n      tag_6\n      tag_7\n      jump\t// in\n    tag_6:\n      stop\n        /* \".learneth/Solidity para principiantes/10.3 Transacciones - Enviar Ether/sendingEther.sol\":1508:1528  address public owner */\n    tag_3:\n      callvalue\n      dup1\n      iszero\n      tag_8\n      jumpi\n      0x00\n      dup1\n      revert\n    tag_8:\n      pop\n      tag_9\n      tag_10\n      jump\t// in\n    tag_9:\n      mload(0x40)\n      tag_11\n      swap2\n      swap1\n      tag_12\n      jump\t// in\n    tag_11:\n      mload(0x40)\n      dup1\n      swap2\n      sub\n      swap1\n      return\n        /* \".learneth/Solidity para principiantes/10.3 Transacciones - Enviar Ether/sendingEther.sol\":1598:1633  function donate() public payable {} */\n    tag_4:\n      tag_13\n      tag_14\n      jump\t// in\n    tag_13:\n      stop\n        /* \".learneth/Solidity para principiantes/10.3 Transacciones - Enviar Ether/sendingEther.sol\":1639:1838  function withdraw() public {... */\n    tag_7:\n        /* \".learneth/Solidity para principiantes/10.3 Transacciones - Enviar Ether/sendingEther.sol\":1676:1687  uint amount */\n      0x00\n        /* \".learneth/Solidity para principiantes/10.3 Transacciones - Enviar Ether/sendingEther.sol\":1690:1711  address(this).balance */\n      selfbalance\n        /* \".learneth/Solidity para principiantes/10.3 Transacciones - Enviar Ether/sendingEther.sol\":1676:1711  uint amount = address(this).balance */\n      swap1\n      pop\n        /* \".learneth/Solidity para principiantes/10.3 Transacciones - Enviar Ether/sendingEther.sol\":1723:1732  bool sent */\n      0x00\n        /* \".learneth/Solidity para principiantes/10.3 Transacciones - Enviar Ether/sendingEther.sol\":1734:1751  bytes memory data */\n      dup1\n        /* \".learneth/Solidity para principiantes/10.3 Transacciones - Enviar Ether/sendingEther.sol\":1755:1760  owner */\n      0x00\n      dup1\n      sload\n      swap1\n      0x0100\n      exp\n      swap1\n      div\n      0xffffffffffffffffffffffffffffffffffffffff\n      and\n        /* \".learneth/Solidity para principiantes/10.3 Transacciones - Enviar Ether/sendingEther.sol\":1755:1765  owner.call */\n      0xffffffffffffffffffffffffffffffffffffffff\n      and\n        /* \".learneth/Solidity para principiantes/10.3 Transacciones - Enviar Ether/sendingEther.sol\":1773:1779  amount */\n      dup4\n        /* \".learneth/Solidity para principiantes/10.3 Transacciones - Enviar Ether/sendingEther.sol\":1755:1784  owner.call{value: amount}(\"\") */\n      mload(0x40)\n      tag_16\n      swap1\n      tag_17\n      jump\t// in\n    tag_16:\n      0x00\n      mload(0x40)\n      dup1\n      dup4\n      sub\n      dup2\n      dup6\n      dup8\n      gas\n      call\n      swap3\n      pop\n      pop\n      pop\n      returndatasize\n      dup1\n      0x00\n      dup2\n      eq\n      tag_20\n      jumpi\n      mload(0x40)\n      swap2\n      pop\n      and(add(returndatasize, 0x3f), not(0x1f))\n      dup3\n      add\n      0x40\n      mstore\n      returndatasize\n      dup3\n      mstore\n      returndatasize\n      0x00\n      0x20\n      dup5\n      add\n      returndatacopy\n      jump(tag_19)\n    tag_20:\n      0x60\n      swap2\n      pop\n    tag_19:\n      pop\n        /* \".learneth/Solidity para principiantes/10.3 Transacciones - Enviar Ether/sendingEther.sol\":1722:1784  (bool sent, bytes memory data) = owner.call{value: amount}(\"\") */\n      swap2\n      pop\n      swap2\n      pop\n        /* \".learneth/Solidity para principiantes/10.3 Transacciones - Enviar Ether/sendingEther.sol\":1802:1806  sent */\n      dup2\n        /* \".learneth/Solidity para principiantes/10.3 Transacciones - Enviar Ether/sendingEther.sol\":1794:1831  require(sent, \"Failed to send Ether\") */\n      tag_21\n      jumpi\n      mload(0x40)\n      0x08c379a000000000000000000000000000000000000000000000000000000000\n      dup2\n      mstore\n      0x04\n      add\n      tag_22\n      swap1\n      tag_23\n      jump\t// in\n    tag_22:\n      mload(0x40)\n      dup1\n      swap2\n      sub\n      swap1\n      revert\n    tag_21:\n        /* \".learneth/Solidity para principiantes/10.3 Transacciones - Enviar Ether/sendingEther.sol\":1666:1838  {... */\n      pop\n      pop\n      pop\n        /* \".learneth/Solidity para principiantes/10.3 Transacciones - Enviar Ether/sendingEther.sol\":1639:1838  function withdraw() public {... */\n      jump\t// out\n        /* \".learneth/Solidity para principiantes/10.3 Transacciones - Enviar Ether/sendingEther.sol\":1508:1528  address public owner */\n    tag_10:\n      0x00\n      dup1\n      sload\n      swap1\n      0x0100\n      exp\n      swap1\n      div\n      0xffffffffffffffffffffffffffffffffffffffff\n      and\n      dup2\n      jump\t// out\n        /* \".learneth/Solidity para principiantes/10.3 Transacciones - Enviar Ether/sendingEther.sol\":1598:1633  function donate() public payable {} */\n    tag_14:\n      jump\t// out\n        /* \"#utility.yul\":7:125   */\n    tag_26:\n        /* \"#utility.yul\":94:118   */\n      tag_28\n        /* \"#utility.yul\":112:117   */\n      dup2\n        /* \"#utility.yul\":94:118   */\n      tag_29\n      jump\t// in\n    tag_28:\n        /* \"#utility.yul\":89:92   */\n      dup3\n        /* \"#utility.yul\":82:119   */\n      mstore\n        /* \"#utility.yul\":7:125   */\n      pop\n      pop\n      jump\t// out\n        /* \"#utility.yul\":131:497   */\n    tag_30:\n        /* \"#utility.yul\":273:276   */\n      0x00\n        /* \"#utility.yul\":294:361   */\n      tag_32\n        /* \"#utility.yul\":358:360   */\n      0x14\n        /* \"#utility.yul\":353:356   */\n      dup4\n        /* \"#utility.yul\":294:361   */\n      tag_33\n      jump\t// in\n    tag_32:\n        /* \"#utility.yul\":287:361   */\n      swap2\n      pop\n        /* \"#utility.yul\":370:463   */\n      tag_34\n        /* \"#utility.yul\":459:462   */\n      dup3\n        /* \"#utility.yul\":370:463   */\n      tag_35\n      jump\t// in\n    tag_34:\n        /* \"#utility.yul\":488:490   */\n      0x20\n        /* \"#utility.yul\":483:486   */\n      dup3\n        /* \"#utility.yul\":479:491   */\n      add\n        /* \"#utility.yul\":472:491   */\n      swap1\n      pop\n        /* \"#utility.yul\":131:497   */\n      swap2\n      swap1\n      pop\n      jump\t// out\n        /* \"#utility.yul\":503:901   */\n    tag_36:\n        /* \"#utility.yul\":662:665   */\n      0x00\n        /* \"#utility.yul\":683:766   */\n      tag_38\n        /* \"#utility.yul\":764:765   */\n      0x00\n        /* \"#utility.yul\":759:762   */\n      dup4\n        /* \"#utility.yul\":683:766   */\n      tag_39\n      jump\t// in\n    tag_38:\n        /* \"#utility.yul\":676:766   */\n      swap2\n      pop\n        /* \"#utility.yul\":775:868   */\n      tag_40\n        /* \"#utility.yul\":864:867   */\n      dup3\n        /* \"#utility.yul\":775:868   */\n      tag_41\n      jump\t// in\n    tag_40:\n        /* \"#utility.yul\":893:894   */\n      0x00\n        /* \"#utility.yul\":888:891   */\n      dup3\n        /* \"#utility.yul\":884:895   */\n      add\n        /* \"#utility.yul\":877:895   */\n      swap1\n      pop\n        /* \"#utility.yul\":503:901   */\n      swap2\n      swap1\n      pop\n      jump\t// out\n        /* \"#utility.yul\":907:1286   */\n    tag_17:\n        /* \"#utility.yul\":1091:1094   */\n      0x00\n        /* \"#utility.yul\":1113:1260   */\n      tag_43\n        /* \"#utility.yul\":1256:1259   */\n      dup3\n        /* \"#utility.yul\":1113:1260   */\n      tag_36\n      jump\t// in\n    tag_43:\n        /* \"#utility.yul\":1106:1260   */\n      swap2\n      pop\n        /* \"#utility.yul\":1277:1280   */\n      dup2\n        /* \"#utility.yul\":1270:1280   */\n      swap1\n      pop\n        /* \"#utility.yul\":907:1286   */\n      swap2\n      swap1\n      pop\n      jump\t// out\n        /* \"#utility.yul\":1292:1514   */\n    tag_12:\n        /* \"#utility.yul\":1385:1389   */\n      0x00\n        /* \"#utility.yul\":1423:1425   */\n      0x20\n        /* \"#utility.yul\":1412:1421   */\n      dup3\n        /* \"#utility.yul\":1408:1426   */\n      add\n        /* \"#utility.yul\":1400:1426   */\n      swap1\n      pop\n        /* \"#utility.yul\":1436:1507   */\n      tag_45\n        /* \"#utility.yul\":1504:1505   */\n      0x00\n        /* \"#utility.yul\":1493:1502   */\n      dup4\n        /* \"#utility.yul\":1489:1506   */\n      add\n        /* \"#utility.yul\":1480:1486   */\n      dup5\n        /* \"#utility.yul\":1436:1507   */\n      tag_26\n      jump\t// in\n    tag_45:\n        /* \"#utility.yul\":1292:1514   */\n      swap3\n      swap2\n      pop\n      pop\n      jump\t// out\n        /* \"#utility.yul\":1520:1939   */\n    tag_23:\n        /* \"#utility.yul\":1686:1690   */\n      0x00\n        /* \"#utility.yul\":1724:1726   */\n      0x20\n        /* \"#utility.yul\":1713:1722   */\n      dup3\n        /* \"#utility.yul\":1709:1727   */\n      add\n        /* \"#utility.yul\":1701:1727   */\n      swap1\n      pop\n        /* \"#utility.yul\":1773:1782   */\n      dup2\n        /* \"#utility.yul\":1767:1771   */\n      dup2\n        /* \"#utility.yul\":1763:1783   */\n      sub\n        /* \"#utility.yul\":1759:1760   */\n      0x00\n        /* \"#utility.yul\":1748:1757   */\n      dup4\n        /* \"#utility.yul\":1744:1761   */\n      add\n        /* \"#utility.yul\":1737:1784   */\n      mstore\n        /* \"#utility.yul\":1801:1932   */\n      tag_47\n        /* \"#utility.yul\":1927:1931   */\n      dup2\n        /* \"#utility.yul\":1801:1932   */\n      tag_30\n      jump\t// in\n    tag_47:\n        /* \"#utility.yul\":1793:1932   */\n      swap1\n      pop\n        /* \"#utility.yul\":1520:1939   */\n      swap2\n      swap1\n      pop\n      jump\t// out\n        /* \"#utility.yul\":1945:2092   */\n    tag_39:\n        /* \"#utility.yul\":2046:2057   */\n      0x00\n        /* \"#utility.yul\":2083:2086   */\n      dup2\n        /* \"#utility.yul\":2068:2086   */\n      swap1\n      pop\n        /* \"#utility.yul\":1945:2092   */\n      swap3\n      swap2\n      pop\n      pop\n      jump\t// out\n        /* \"#utility.yul\":2098:2267   */\n    tag_33:\n        /* \"#utility.yul\":2182:2193   */\n      0x00\n        /* \"#utility.yul\":2216:2222   */\n      dup3\n        /* \"#utility.yul\":2211:2214   */\n      dup3\n        /* \"#utility.yul\":2204:2223   */\n      mstore\n        /* \"#utility.yul\":2256:2260   */\n      0x20\n        /* \"#utility.yul\":2251:2254   */\n      dup3\n        /* \"#utility.yul\":2247:2261   */\n      add\n        /* \"#utility.yul\":2232:2261   */\n      swap1\n      pop\n        /* \"#utility.yul\":2098:2267   */\n      swap3\n      swap2\n      pop\n      pop\n      jump\t// out\n        /* \"#utility.yul\":2273:2369   */\n    tag_29:\n        /* \"#utility.yul\":2310:2317   */\n      0x00\n        /* \"#utility.yul\":2339:2363   */\n      tag_51\n        /* \"#utility.yul\":2357:2362   */\n      dup3\n        /* \"#utility.yul\":2339:2363   */\n      tag_52\n      jump\t// in\n    tag_51:\n        /* \"#utility.yul\":2328:2363   */\n      swap1\n      pop\n        /* \"#utility.yul\":2273:2369   */\n      swap2\n      swap1\n      pop\n      jump\t// out\n        /* \"#utility.yul\":2375:2501   */\n    tag_52:\n        /* \"#utility.yul\":2412:2419   */\n      0x00\n        /* \"#utility.yul\":2452:2494   */\n      0xffffffffffffffffffffffffffffffffffffffff\n        /* \"#utility.yul\":2445:2450   */\n      dup3\n        /* \"#utility.yul\":2441:2495   */\n      and\n        /* \"#utility.yul\":2430:2495   */\n      swap1\n      pop\n        /* \"#utility.yul\":2375:2501   */\n      swap2\n      swap1\n      pop\n      jump\t// out\n        /* \"#utility.yul\":2507:2677   */\n    tag_35:\n        /* \"#utility.yul\":2647:2669   */\n      0x4661696c656420746f2073656e64204574686572000000000000000000000000\n        /* \"#utility.yul\":2643:2644   */\n      0x00\n        /* \"#utility.yul\":2635:2641   */\n      dup3\n        /* \"#utility.yul\":2631:2645   */\n      add\n        /* \"#utility.yul\":2624:2670   */\n      mstore\n        /* \"#utility.yul\":2507:2677   */\n      pop\n      jump\t// out\n        /* \"#utility.yul\":2683:2797   */\n    tag_41:\n      pop\n      jump\t// out\n\n    auxdata: 0xa264697066735822122032f2957ab46cd6f2b8b178c221696cfd3f7205e21e8baacccf99c4cdd9f1ecd664736f6c63430008070033\n}\n",
				"bytecode": {
					"linkReferences": {},
					"object": "608060405234801561001057600080fd5b50336000806101000a81548173ffffffffffffffffffffffffffffffffffffffff021916908373ffffffffffffffffffffffffffffffffffffffff1602179055506102d8806100606000396000f3fe6080604052600436106100345760003560e01c80633ccfd60b146100395780638da5cb5b14610050578063ed88c68e1461007b575b600080fd5b34801561004557600080fd5b5061004e610085565b005b34801561005c57600080fd5b5061006561015d565b60405161007291906101ed565b60405180910390f35b610083610181565b005b600047905060008060008054906101000a900473ffffffffffffffffffffffffffffffffffffffff1673ffffffffffffffffffffffffffffffffffffffff16836040516100d1906101d8565b60006040518083038185875af1925050503d806000811461010e576040519150601f19603f3d011682016040523d82523d6000602084013e610113565b606091505b509150915081610158576040517f08c379a000000000000000000000000000000000000000000000000000000000815260040161014f90610208565b60405180910390fd5b505050565b60008054906101000a900473ffffffffffffffffffffffffffffffffffffffff1681565b565b61018c81610244565b82525050565b600061019f601483610233565b91506101aa82610276565b602082019050919050565b60006101c2600083610228565b91506101cd8261029f565b600082019050919050565b60006101e3826101b5565b9150819050919050565b60006020820190506102026000830184610183565b92915050565b6000602082019050818103600083015261022181610192565b9050919050565b600081905092915050565b600082825260208201905092915050565b600061024f82610256565b9050919050565b600073ffffffffffffffffffffffffffffffffffffffff82169050919050565b7f4661696c656420746f2073656e64204574686572000000000000000000000000600082015250565b5056fea264697066735822122032f2957ab46cd6f2b8b178c221696cfd3f7205e21e8baacccf99c4cdd9f1ecd664736f6c63430008070033",
					"opcodes": "PUSH1 0x80 PUSH1 0x40 MSTORE CALLVALUE DUP1 ISZERO PUSH2 0x10 JUMPI PUSH1 0x0 DUP1 REVERT JUMPDEST POP CALLER PUSH1 0x0 DUP1 PUSH2 0x100 EXP DUP2 SLOAD DUP2 PUSH20 0xFFFFFFFFFFFFFFFFFFFFFFFFFFFFFFFFFFFFFFFF MUL NOT AND SWAP1 DUP4 PUSH20 0xFFFFFFFFFFFFFFFFFFFFFFFFFFFFFFFFFFFFFFFF AND MUL OR SWAP1 SSTORE POP PUSH2 0x2D8 DUP1 PUSH2 0x60 PUSH1 0x0 CODECOPY PUSH1 0x0 RETURN INVALID PUSH1 0x80 PUSH1 0x40 MSTORE PUSH1 0x4 CALLDATASIZE LT PUSH2 0x34 JUMPI PUSH1 0x0 CALLDATALOAD PUSH1 0xE0 SHR DUP1 PUSH4 0x3CCFD60B EQ PUSH2 0x39 JUMPI DUP1 PUSH4 0x8DA5CB5B EQ PUSH2 0x50 JUMPI DUP1 PUSH4 0xED88C68E EQ PUSH2 0x7B JUMPI JUMPDEST PUSH1 0x0 DUP1 REVERT JUMPDEST CALLVALUE DUP1 ISZERO PUSH2 0x45 JUMPI PUSH1 0x0 DUP1 REVERT JUMPDEST POP PUSH2 0x4E PUSH2 0x85 JUMP JUMPDEST STOP JUMPDEST CALLVALUE DUP1 ISZERO PUSH2 0x5C JUMPI PUSH1 0x0 DUP1 REVERT JUMPDEST POP PUSH2 0x65 PUSH2 0x15D JUMP JUMPDEST PUSH1 0x40 MLOAD PUSH2 0x72 SWAP2 SWAP1 PUSH2 0x1ED JUMP JUMPDEST PUSH1 0x40 MLOAD DUP1 SWAP2 SUB SWAP1 RETURN JUMPDEST PUSH2 0x83 PUSH2 0x181 JUMP JUMPDEST STOP JUMPDEST PUSH1 0x0 SELFBALANCE SWAP1 POP PUSH1 0x0 DUP1 PUSH1 0x0 DUP1 SLOAD SWAP1 PUSH2 0x100 EXP SWAP1 DIV PUSH20 0xFFFFFFFFFFFFFFFFFFFFFFFFFFFFFFFFFFFFFFFF AND PUSH20 0xFFFFFFFFFFFFFFFFFFFFFFFFFFFFFFFFFFFFFFFF AND DUP4 PUSH1 0x40 MLOAD PUSH2 0xD1 SWAP1 PUSH2 0x1D8 JUMP JUMPDEST PUSH1 0x0 PUSH1 0x40 MLOAD DUP1 DUP4 SUB DUP2 DUP6 DUP8 GAS CALL SWAP3 POP POP POP RETURNDATASIZE DUP1 PUSH1 0x0 DUP2 EQ PUSH2 0x10E JUMPI PUSH1 0x40 MLOAD SWAP2 POP PUSH1 0x1F NOT PUSH1 0x3F RETURNDATASIZE ADD AND DUP3 ADD PUSH1 0x40 MSTORE RETURNDATASIZE DUP3 MSTORE RETURNDATASIZE PUSH1 0x0 PUSH1 0x20 DUP5 ADD RETURNDATACOPY PUSH2 0x113 JUMP JUMPDEST PUSH1 0x60 SWAP2 POP JUMPDEST POP SWAP2 POP SWAP2 POP DUP2 PUSH2 0x158 JUMPI PUSH1 0x40 MLOAD PUSH32 0x8C379A000000000000000000000000000000000000000000000000000000000 DUP2 MSTORE PUSH1 0x4 ADD PUSH2 0x14F SWAP1 PUSH2 0x208 JUMP JUMPDEST PUSH1 0x40 MLOAD DUP1 SWAP2 SUB SWAP1 REVERT JUMPDEST POP POP POP JUMP JUMPDEST PUSH1 0x0 DUP1 SLOAD SWAP1 PUSH2 0x100 EXP SWAP1 DIV PUSH20 0xFFFFFFFFFFFFFFFFFFFFFFFFFFFFFFFFFFFFFFFF AND DUP2 JUMP JUMPDEST JUMP JUMPDEST PUSH2 0x18C DUP2 PUSH2 0x244 JUMP JUMPDEST DUP3 MSTORE POP POP JUMP JUMPDEST PUSH1 0x0 PUSH2 0x19F PUSH1 0x14 DUP4 PUSH2 0x233 JUMP JUMPDEST SWAP2 POP PUSH2 0x1AA DUP3 PUSH2 0x276 JUMP JUMPDEST PUSH1 0x20 DUP3 ADD SWAP1 POP SWAP2 SWAP1 POP JUMP JUMPDEST PUSH1 0x0 PUSH2 0x1C2 PUSH1 0x0 DUP4 PUSH2 0x228 JUMP JUMPDEST SWAP2 POP PUSH2 0x1CD DUP3 PUSH2 0x29F JUMP JUMPDEST PUSH1 0x0 DUP3 ADD SWAP1 POP SWAP2 SWAP1 POP JUMP JUMPDEST PUSH1 0x0 PUSH2 0x1E3 DUP3 PUSH2 0x1B5 JUMP JUMPDEST SWAP2 POP DUP2 SWAP1 POP SWAP2 SWAP1 POP JUMP JUMPDEST PUSH1 0x0 PUSH1 0x20 DUP3 ADD SWAP1 POP PUSH2 0x202 PUSH1 0x0 DUP4 ADD DUP5 PUSH2 0x183 JUMP JUMPDEST SWAP3 SWAP2 POP POP JUMP JUMPDEST PUSH1 0x0 PUSH1 0x20 DUP3 ADD SWAP1 POP DUP2 DUP2 SUB PUSH1 0x0 DUP4 ADD MSTORE PUSH2 0x221 DUP2 PUSH2 0x192 JUMP JUMPDEST SWAP1 POP SWAP2 SWAP1 POP JUMP JUMPDEST PUSH1 0x0 DUP2 SWAP1 POP SWAP3 SWAP2 POP POP JUMP JUMPDEST PUSH1 0x0 DUP3 DUP3 MSTORE PUSH1 0x20 DUP3 ADD SWAP1 POP SWAP3 SWAP2 POP POP JUMP JUMPDEST PUSH1 0x0 PUSH2 0x24F DUP3 PUSH2 0x256 JUMP JUMPDEST SWAP1 POP SWAP2 SWAP1 POP JUMP JUMPDEST PUSH1 0x0 PUSH20 0xFFFFFFFFFFFFFFFFFFFFFFFFFFFFFFFFFFFFFFFF DUP3 AND SWAP1 POP SWAP2 SWAP1 POP JUMP JUMPDEST PUSH32 0x4661696C656420746F2073656E64204574686572000000000000000000000000 PUSH1 0x0 DUP3 ADD MSTORE POP JUMP JUMPDEST POP JUMP INVALID LOG2 PUSH5 0x6970667358 0x22 SLT KECCAK256 ORIGIN CALLCODE SWAP6 PUSH27 0xB46CD6F2B8B178C221696CFD3F7205E21E8BAACCCF99C4CDD9F1EC 0xD6 PUSH5 0x736F6C6343 STOP ADDMOD SMOD STOP CALLER "
				},
				"gasEstimates": {
					"creation": {
						"codeDepositCost": "145600",
						"executionCost": "24456",
						"totalCost": "170056"
					},
					"external": {
						"donate()": "142",
						"owner()": "2511",
						"withdraw()": "infinite"
					}
				},
				"methodIdentifiers": {
					"donate()": "ed88c68e",
					"owner()": "8da5cb5b",
					"withdraw()": "3ccfd60b"
				}
			},
			"storageLayout": {
				"storage": [
					{
						"astId": 80,
						"contract": ".learneth/Solidity para principiantes/10.3 Transacciones - Enviar Ether/sendingEther.sol:Charity",
						"label": "owner",
						"offset": 0,
						"slot": "0",
						"type": "t_address"
					}
				],
				"types": {
					"t_address": {
						"encoding": "inplace",
						"label": "address",
						"numberOfBytes": "20"
					}
				}
			},
			"userdoc": {
				"kind": "user",
				"methods": {},
				"version": 1
			}
		}
	}
}